{
  "contractName": "Arbitrage",
  "abi": [
    {
      "inputs": [
        {
          "name": "_network",
          "type": "uint8"
        }
      ],
      "payable": false,
      "stateMutability": "nonpayable",
      "type": "constructor"
    },
    {
      "constant": false,
      "inputs": [
        {
          "name": "token1",
          "type": "address"
        },
        {
          "name": "amount",
          "type": "uint256"
        }
      ],
      "name": "dutchOpportunity",
      "outputs": [],
      "payable": false,
      "stateMutability": "nonpayable",
      "type": "function"
    },
    {
      "constant": false,
      "inputs": [
        {
          "name": "token1",
          "type": "address"
        },
        {
          "name": "amount",
          "type": "uint256"
        }
      ],
      "name": "uniswapOpportunity",
      "outputs": [],
      "payable": true,
      "stateMutability": "payable",
      "type": "function"
    },
    {
      "constant": false,
      "inputs": [
        {
          "name": "token",
          "type": "address"
        },
        {
          "name": "amount",
          "type": "uint256"
        }
      ],
      "name": "preCheck",
      "outputs": [
        {
          "name": "",
          "type": "uint256"
        }
      ],
      "payable": true,
      "stateMutability": "payable",
      "type": "function"
    }
  ],
  "bytecode": "0x608060405234801561001057600080fd5b50604051602080611b948339810180604052602081101561003057600080fd5b81019080805190602001909291905050506000600181111561004e57fe5b81600181111561005a57fe5b141561010e5773c0a47dfe034b400b47bdad5fecda2621de6c4d956000806101000a81548173ffffffffffffffffffffffffffffffffffffffff021916908373ffffffffffffffffffffffffffffffffffffffff16021790555073af1745c0f8117384dfa5fff40f824057c70f2ed3600160006101000a81548173ffffffffffffffffffffffffffffffffffffffff021916908373ffffffffffffffffffffffffffffffffffffffff1602179055506101b8565b73f5d915570bc477f9b8d6c0e980aa81757a3aac366000806101000a81548173ffffffffffffffffffffffffffffffffffffffff021916908373ffffffffffffffffffffffffffffffffffffffff160217905550734e69969d9270ff55fc7c5043b074d4e45f795587600160006101000a81548173ffffffffffffffffffffffffffffffffffffffff021916908373ffffffffffffffffffffffffffffffffffffffff1602179055505b506119cc806101c86000396000f3fe608060405260043610610051576000357c01000000000000000000000000000000000000000000000000000000009004806368a88b111461005657806389d12768146100a457806393edc024146100ff575b600080fd5b6100a26004803603604081101561006c57600080fd5b81019080803573ffffffffffffffffffffffffffffffffffffffff16906020019092919080359060200190929190505050610161565b005b3480156100b057600080fd5b506100fd600480360360408110156100c757600080fd5b81019080803573ffffffffffffffffffffffffffffffffffffffff1690602001909291908035906020019092919050505061073f565b005b61014b6004803603604081101561011557600080fd5b81019080803573ffffffffffffffffffffffffffffffffffffffff16906020019092919080359060200190929190505050610cba565b6040518082815260200191505060405180910390f35b80341415156101bb576040517f08c379a000000000000000000000000000000000000000000000000000000000815260040180806020018281038252602481526020018061197d6024913960400191505060405180910390fd5b60005a90506000600160009054906101000a900473ffffffffffffffffffffffffffffffffffffffff1673ffffffffffffffffffffffffffffffffffffffff16637bf1a6276040518163ffffffff167c010000000000000000000000000000000000000000000000000000000002815260040160206040518083038186803b15801561024657600080fd5b505afa15801561025a573d6000803e3d6000fd5b505050506040513d602081101561027057600080fd5b8101908080519060200190929190505050905060008060009054906101000a900473ffffffffffffffffffffffffffffffffffffffff1673ffffffffffffffffffffffffffffffffffffffff166306f2bf62866040518263ffffffff167c0100000000000000000000000000000000000000000000000000000000028152600401808273ffffffffffffffffffffffffffffffffffffffff1673ffffffffffffffffffffffffffffffffffffffff16815260200191505060206040518083038186803b15801561033f57600080fd5b505afa158015610353573d6000803e3d6000fd5b505050506040513d602081101561036957600080fd5b810190808051906020019092919050505090506000600160009054906101000a900473ffffffffffffffffffffffffffffffffffffffff1673ffffffffffffffffffffffffffffffffffffffff166314584a9d87856040518363ffffffff167c0100000000000000000000000000000000000000000000000000000000028152600401808373ffffffffffffffffffffffffffffffffffffffff1673ffffffffffffffffffffffffffffffffffffffff1681526020018273ffffffffffffffffffffffffffffffffffffffff1673ffffffffffffffffffffffffffffffffffffffff1681526020019250505060206040518083038186803b15801561046d57600080fd5b505afa158015610481573d6000803e3d6000fd5b505050506040513d602081101561049757600080fd5b8101908080519060200190929190505050905060008273ffffffffffffffffffffffffffffffffffffffff1663f39b5b9b876000426040518463ffffffff167c010000000000000000000000000000000000000000000000000000000002815260040180838152602001828152602001925050506020604051808303818588803b15801561052457600080fd5b505af1158015610538573d6000803e3d6000fd5b50505050506040513d602081101561054f57600080fd5b810190808051906020019092919050505090506000600160009054906101000a900473ffffffffffffffffffffffffffffffffffffffff1673ffffffffffffffffffffffffffffffffffffffff166359f96ae5898786866040518563ffffffff167c0100000000000000000000000000000000000000000000000000000000028152600401808573ffffffffffffffffffffffffffffffffffffffff1673ffffffffffffffffffffffffffffffffffffffff1681526020018473ffffffffffffffffffffffffffffffffffffffff1673ffffffffffffffffffffffffffffffffffffffff1681526020018381526020018281526020019450505050506040805180830381600087803b15801561066457600080fd5b505af1158015610678573d6000803e3d6000fd5b505050506040513d604081101561068e57600080fd5b810190808051906020019092919080519060200190929190505050809250819450505060003a5a88030290508781830310151515610734576040517f08c379a00000000000000000000000000000000000000000000000000000000081526004018080602001828103825260098152602001807f6e6f2070726f666974000000000000000000000000000000000000000000000081525060200191505060405180910390fd5b505050505050505050565b60005a90506000600160009054906101000a900473ffffffffffffffffffffffffffffffffffffffff1673ffffffffffffffffffffffffffffffffffffffff16637bf1a6276040518163ffffffff167c010000000000000000000000000000000000000000000000000000000002815260040160206040518083038186803b1580156107ca57600080fd5b505afa1580156107de573d6000803e3d6000fd5b505050506040513d60208110156107f457600080fd5b8101908080519060200190929190505050905060008060009054906101000a900473ffffffffffffffffffffffffffffffffffffffff1673ffffffffffffffffffffffffffffffffffffffff166306f2bf62866040518263ffffffff167c0100000000000000000000000000000000000000000000000000000000028152600401808273ffffffffffffffffffffffffffffffffffffffff1673ffffffffffffffffffffffffffffffffffffffff16815260200191505060206040518083038186803b1580156108c357600080fd5b505afa1580156108d7573d6000803e3d6000fd5b505050506040513d60208110156108ed57600080fd5b810190808051906020019092919050505090506000600160009054906101000a900473ffffffffffffffffffffffffffffffffffffffff1673ffffffffffffffffffffffffffffffffffffffff166314584a9d87856040518363ffffffff167c0100000000000000000000000000000000000000000000000000000000028152600401808373ffffffffffffffffffffffffffffffffffffffff1673ffffffffffffffffffffffffffffffffffffffff1681526020018273ffffffffffffffffffffffffffffffffffffffff1673ffffffffffffffffffffffffffffffffffffffff1681526020019250505060206040518083038186803b1580156109f157600080fd5b505afa158015610a05573d6000803e3d6000fd5b505050506040513d6020811015610a1b57600080fd5b810190808051906020019092919050505090506000600160009054906101000a900473ffffffffffffffffffffffffffffffffffffffff1673ffffffffffffffffffffffffffffffffffffffff16635e7f22c28589858a6040518563ffffffff167c0100000000000000000000000000000000000000000000000000000000028152600401808573ffffffffffffffffffffffffffffffffffffffff1673ffffffffffffffffffffffffffffffffffffffff1681526020018473ffffffffffffffffffffffffffffffffffffffff1673ffffffffffffffffffffffffffffffffffffffff168152602001838152602001828152602001945050505050602060405180830381600087803b158015610b3157600080fd5b505af1158015610b45573d6000803e3d6000fd5b505050506040513d6020811015610b5b57600080fd5b8101908080519060200190929190505050905060008373ffffffffffffffffffffffffffffffffffffffff166395e3c50b8389426040518463ffffffff167c0100000000000000000000000000000000000000000000000000000000028152600401808481526020018381526020018281526020019350505050602060405180830381600087803b158015610bef57600080fd5b505af1158015610c03573d6000803e3d6000fd5b505050506040513d6020811015610c1957600080fd5b8101908080519060200190929190505050905060003a5a88030290508781830310151515610caf576040517f08c379a00000000000000000000000000000000000000000000000000000000081526004018080602001828103825260098152602001807f6e6f2070726f666974000000000000000000000000000000000000000000000081525060200191505060405180910390fd5b505050505050505050565b60008073ffffffffffffffffffffffffffffffffffffffff168373ffffffffffffffffffffffffffffffffffffffff1614151515610d60576040517f08c379a000000000000000000000000000000000000000000000000000000000815260040180806020018281038252600d8152602001807f776879206e6f20746f6b656e3f0000000000000000000000000000000000000081525060200191505060405180910390fd5b60008060009054906101000a900473ffffffffffffffffffffffffffffffffffffffff1673ffffffffffffffffffffffffffffffffffffffff166306f2bf62856040518263ffffffff167c0100000000000000000000000000000000000000000000000000000000028152600401808273ffffffffffffffffffffffffffffffffffffffff1673ffffffffffffffffffffffffffffffffffffffff16815260200191505060206040518083038186803b158015610e1c57600080fd5b505afa158015610e30573d6000803e3d6000fd5b505050506040513d6020811015610e4657600080fd5b8101908080519060200190929190505050905060008173ffffffffffffffffffffffffffffffffffffffff1663cd7724c3856040518263ffffffff167c01000000000000000000000000000000000000000000000000000000000281526004018082815260200191505060206040518083038186803b158015610ec857600080fd5b505afa158015610edc573d6000803e3d6000fd5b505050506040513d6020811015610ef257600080fd5b810190808051906020019092919050505090506000600160009054906101000a900473ffffffffffffffffffffffffffffffffffffffff1673ffffffffffffffffffffffffffffffffffffffff16637bf1a6276040518163ffffffff167c010000000000000000000000000000000000000000000000000000000002815260040160206040518083038186803b158015610f8b57600080fd5b505afa158015610f9f573d6000803e3d6000fd5b505050506040513d6020811015610fb557600080fd5b810190808051906020019092919050505090506000600160009054906101000a900473ffffffffffffffffffffffffffffffffffffffff1673ffffffffffffffffffffffffffffffffffffffff166314584a9d88846040518363ffffffff167c0100000000000000000000000000000000000000000000000000000000028152600401808373ffffffffffffffffffffffffffffffffffffffff1673ffffffffffffffffffffffffffffffffffffffff1681526020018273ffffffffffffffffffffffffffffffffffffffff1673ffffffffffffffffffffffffffffffffffffffff1681526020019250505060206040518083038186803b1580156110b957600080fd5b505afa1580156110cd573d6000803e3d6000fd5b505050506040513d60208110156110e357600080fd5b81019080805190602001909291905050509050600080600160009054906101000a900473ffffffffffffffffffffffffffffffffffffffff1673ffffffffffffffffffffffffffffffffffffffff1663fdab1b7b858b866040518463ffffffff167c0100000000000000000000000000000000000000000000000000000000028152600401808473ffffffffffffffffffffffffffffffffffffffff1673ffffffffffffffffffffffffffffffffffffffff1681526020018373ffffffffffffffffffffffffffffffffffffffff1673ffffffffffffffffffffffffffffffffffffffff1681526020018281526020019350505050604080518083038186803b1580156111ef57600080fd5b505afa158015611203573d6000803e3d6000fd5b505050506040513d604081101561121957600080fd5b8101908080519060200190929190805190602001909291905050509150915080850288830210156114c0576000600160009054906101000a900473ffffffffffffffffffffffffffffffffffffffff1673ffffffffffffffffffffffffffffffffffffffff16635e7f22c2868c878d6040518563ffffffff167c0100000000000000000000000000000000000000000000000000000000028152600401808573ffffffffffffffffffffffffffffffffffffffff1673ffffffffffffffffffffffffffffffffffffffff1681526020018473ffffffffffffffffffffffffffffffffffffffff1673ffffffffffffffffffffffffffffffffffffffff168152602001838152602001828152602001945050505050602060405180830381600087803b15801561134757600080fd5b505af115801561135b573d6000803e3d6000fd5b505050506040513d602081101561137157600080fd5b8101908080519060200190929190505050905060008773ffffffffffffffffffffffffffffffffffffffff166395e3c50b838c426040518463ffffffff167c0100000000000000000000000000000000000000000000000000000000028152600401808481526020018381526020018281526020019350505050602060405180830381600087803b15801561140557600080fd5b505af1158015611419573d6000803e3d6000fd5b505050506040513d602081101561142f57600080fd5b8101908080519060200190929190505050905089811115156114b9576040517f08c379a00000000000000000000000000000000000000000000000000000000081526004018080602001828103825260098152602001807f6e6f2070726f666974000000000000000000000000000000000000000000000081525060200191505060405180910390fd5b5050611970565b600160009054906101000a900473ffffffffffffffffffffffffffffffffffffffff1673ffffffffffffffffffffffffffffffffffffffff1663fdab1b7b8a86866040518463ffffffff167c0100000000000000000000000000000000000000000000000000000000028152600401808473ffffffffffffffffffffffffffffffffffffffff1673ffffffffffffffffffffffffffffffffffffffff1681526020018373ffffffffffffffffffffffffffffffffffffffff1673ffffffffffffffffffffffffffffffffffffffff1681526020018281526020019350505050604080518083038186803b1580156115b657600080fd5b505afa1580156115ca573d6000803e3d6000fd5b505050506040513d60408110156115e057600080fd5b81019080805190602001909291908051906020019092919050505080935081925050508085028883021115611901578734141515611669576040517f08c379a000000000000000000000000000000000000000000000000000000000815260040180806020018281038252602481526020018061197d6024913960400191505060405180910390fd5b60008189840281151561167857fe5b04905060008773ffffffffffffffffffffffffffffffffffffffff1663f39b5b9b8b84426040518463ffffffff167c010000000000000000000000000000000000000000000000000000000002815260040180838152602001828152602001925050506020604051808303818588803b1580156116f457600080fd5b505af1158015611708573d6000803e3d6000fd5b50505050506040513d602081101561171f57600080fd5b810190808051906020019092919050505090506000600160009054906101000a900473ffffffffffffffffffffffffffffffffffffffff1673ffffffffffffffffffffffffffffffffffffffff166359f96ae58d8989866040518563ffffffff167c0100000000000000000000000000000000000000000000000000000000028152600401808573ffffffffffffffffffffffffffffffffffffffff1673ffffffffffffffffffffffffffffffffffffffff1681526020018473ffffffffffffffffffffffffffffffffffffffff1673ffffffffffffffffffffffffffffffffffffffff1681526020018381526020018281526020019450505050506040805180830381600087803b15801561183457600080fd5b505af1158015611848573d6000803e3d6000fd5b505050506040513d604081101561185e57600080fd5b81019080805190602001909291908051906020019092919050505080925081975050508a81101515156118f9576040517f08c379a00000000000000000000000000000000000000000000000000000000081526004018080602001828103825260098152602001807f6e6f2070726f666974000000000000000000000000000000000000000000000081525060200191505060405180910390fd5b50505061196f565b6040517f08c379a00000000000000000000000000000000000000000000000000000000081526004018080602001828103825260108152602001807f6e6f74206120676f6f642074726164650000000000000000000000000000000081525060200191505060405180910390fd5b5b5050505050509291505056fe627579696e672066726f6d20756e69737761702074616b6573207265616c204574686572a165627a7a723058208ef3a10fe49cfc9315e59a443d1cc79eb3bc0053f0e2cee7850fd57e816dac8c0029",
  "source": "pragma solidity ^0.5.0;\n\nimport \"./UniswapExchangeInterface.sol\";\nimport \"./UniswapFactoryInterface.sol\";\n\nimport \"../node_modules/@gnosis.pm/dx-contracts/contracts/DutchExchange.sol\";\n\n/**\n * The Arbitrage contract\n */\ncontract Arbitrage {\n\n    enum Network {Mainnet, Rinkeby}\n\n    UniswapFactoryInterface uniFactory;\n    DutchExchange dutchXProxy;\n    \n\n    constructor(Network _network) public {\n        if (_network == Network.Mainnet) {\n            uniFactory = UniswapFactoryInterface(0xc0a47dFe034B400B47bDaD5FecDa2621de6c4d95);\n            dutchXProxy = DutchExchange(0xaf1745c0f8117384Dfa5FFf40f824057c70F2ed3);\n        } else {\n            uniFactory = UniswapFactoryInterface(0xf5D915570BC477f9B8D6C0E980aA81757A3AaC36);\n            dutchXProxy = DutchExchange(0x4e69969D9270fF55fc7c5043B074d4e45F795587);\n        }\n    }\n\n    function dutchOpportunity(address token1, uint256 amount) public {\n        uint256 startGas = gasleft();\n        address token2 = dutchXProxy.ethToken();\n        address uniswapExchangeToken = uniFactory.getExchange(token1);\n        uint256 dutchAuctionIndex = dutchXProxy.getAuctionIndex(token1, token2);\n\n        uint256 tokensBought = dutchXProxy.postBuyOrder(token2, token1, dutchAuctionIndex, amount);\n        uint256 etherReturned = UniswapExchangeInterface(uniswapExchangeToken).tokenToEthSwapInput(tokensBought, amount, block.timestamp);\n        uint256 gasUsed = (startGas - gasleft()) * tx.gasprice;\n        require((etherReturned - gasUsed) >= amount, \"no profit\");\n    }\n\n    function uniswapOpportunity(address token1, uint256 amount) public payable {\n        require(msg.value == amount, \"buying from uniswap takes real Ether\");\n\n        uint256 startGas = gasleft();\n        address token2 = dutchXProxy.ethToken();\n        address uniswapExchangeToken = uniFactory.getExchange(token1);\n        uint256 dutchAuctionIndex = dutchXProxy.getAuctionIndex(token1, token2);\n\n        uint256 tokensBought = UniswapExchangeInterface(uniswapExchangeToken).ethToTokenSwapInput.value(amount)(0, block.timestamp);\n        uint256 etherReturned;\n        (dutchAuctionIndex, etherReturned) = dutchXProxy.postSellOrder(token1, token2, dutchAuctionIndex, tokensBought);\n        uint256 gasUsed = (startGas - gasleft()) * tx.gasprice;\n        require((etherReturned - gasUsed) >= amount, \"no profit\");\n    }\n\n\n\n\n\n    // this will assume that all dutchX tokens relative to the arbitrage will have already been deposited\n    // this will assume that all tokens have been given the proper transfer allowances\n    // this will also assume that any Ether to be spent on uniswap will be included with the tx as msg.value\n    // in order to save gas costs on transferring Ether token to and from Eth\n    function preCheck(address token, uint256 amount) public payable returns (uint256) {\n        require(token != address(0), \"why no token?\");\n\n\n        address uniswapExchangeToken = uniFactory.getExchange(token);\n        uint256 uniswapTokensReturned = UniswapExchangeInterface(uniswapExchangeToken).getEthToTokenInputPrice(amount);\n\n        address dutchEther = dutchXProxy.ethToken();\n        uint256 dutchAuctionIndex = dutchXProxy.getAuctionIndex(token, dutchEther);\n\n        (uint256 dutchTokenResult, uint256 dutchEtherResult) = dutchXProxy.getCurrentAuctionPrice(dutchEther, token, dutchAuctionIndex);\n\n        // buy dutch sell uni\n\n        // uniswapPrice = uniswapTokensReturned / amount; // dai per ether\n        // dutchPrice = dutchTokenResult / dutchEtherResult; // dai per ether\n        // if (dutchPrice < uniswapPrice) {\n        // if ((num1 * den2) < (num2 * den1)) {\n        if ((dutchTokenResult * amount) < (uniswapTokensReturned * dutchEtherResult)) {\n            \n            \n            // calculating the result of buy including fees is maybe unnecessary\n            // if we have a lot of mag they will be very minimal?\n\n            // uint sellVolume = dutchXProxy.sellVolumesCurrent[dutchEther][token];\n            // uint buyVolume = buyVolumes[dutchEther][token];\n            // uint outstandingVolume = dutchXProxy.atleastZero(int(mul(sellVolume, dutchTokenResult) / dutchEtherResult - buyVolume));\n            \n            // uint amountAfterFee;\n            // if (amount < outstandingVolume) {\n            //     if (amount > 0) {\n            //         amountAfterFee = dutchXProxy.settleFee(token, dutchEther, dutchAuctionIndex, amount);\n            //     }\n            // } else {\n            //     amount = outstandingVolume;\n            //     amountAfterFee = outstandingVolume;\n            // }\n            // //\n\n\n            uint256 tokensBought = dutchXProxy.postBuyOrder(dutchEther, token, dutchAuctionIndex, amount);\n            uint256 etherReturned = UniswapExchangeInterface(uniswapExchangeToken).tokenToEthSwapInput(tokensBought, amount, block.timestamp);\n            \n            require(etherReturned > amount, \"no profit\");\n        } else {\n            (dutchEtherResult, dutchTokenResult) = dutchXProxy.getCurrentAuctionPrice(token, dutchEther, dutchAuctionIndex);\n\n            // buy uni sell dutch\n\n            // uniswapPrice = uniswapTokensReturned / amount; // dai per ether\n            // dutchPrice = dutchTokenResult / dutchEtherResult; // dai per ether\n            // if (dutchPrice > uniswapPrice) {\n            // if ((num1 * den2) > (num2 * den1)) {\n            if ((dutchTokenResult * amount) > (uniswapTokensReturned * dutchEtherResult)) {\n\n                // could also exchage some amt of wrapped Ether for Eth here.\n                require(msg.value == amount, \"buying from uniswap takes real Ether\");\n                uint256 minimumTokensExpectedFromDutch = (dutchTokenResult * amount) / dutchEtherResult;\n                uint256 tokensBought = UniswapExchangeInterface(uniswapExchangeToken).ethToTokenSwapInput.value(amount)(minimumTokensExpectedFromDutch, block.timestamp);\n                uint256 etherReturned;\n                (dutchAuctionIndex, etherReturned) = dutchXProxy.postSellOrder(token, dutchEther, dutchAuctionIndex, tokensBought);\n\n                // this one is greater than or equal to because the dutch results will only improve from there.\n                require(etherReturned >= amount, \"no profit\");\n\n            } else {\n                // might need to remove this revert for the situation where an\n                // estimateGas call will show a fail when in fact the trade would\n                // succeed when actually executed...\n                revert(\"not a good trade\");\n            }\n        }\n    }\n}\n",
  "sourcePath": "/Users/billy/sol/arbitrage/contracts/Arbitrage.sol",
  "compiler": {
    "name": "solc",
    "version": "0.5.2+commit.1df8f40c.Emscripten.clang"
  },
  "schemaVersion": "3.0.1",
  "updatedAt": "2019-01-21T21:38:20.692Z",
  "devdoc": {
    "methods": {}
  },
  "userdoc": {
    "methods": {},
    "notice": "The Arbitrage contract"
  }
}