{
  "contractName": "Arbitrage",
  "abi": [
    {
      "constant": false,
      "inputs": [],
      "name": "renounceOwnership",
      "outputs": [],
      "payable": false,
      "stateMutability": "nonpayable",
      "type": "function"
    },
    {
      "constant": true,
      "inputs": [],
      "name": "owner",
      "outputs": [
        {
          "name": "",
          "type": "address"
        }
      ],
      "payable": false,
      "stateMutability": "view",
      "type": "function"
    },
    {
      "constant": true,
      "inputs": [],
      "name": "isOwner",
      "outputs": [
        {
          "name": "",
          "type": "bool"
        }
      ],
      "payable": false,
      "stateMutability": "view",
      "type": "function"
    },
    {
      "constant": false,
      "inputs": [
        {
          "name": "newOwner",
          "type": "address"
        }
      ],
      "name": "transferOwnership",
      "outputs": [],
      "payable": false,
      "stateMutability": "nonpayable",
      "type": "function"
    },
    {
      "inputs": [
        {
          "name": "_uniFactory",
          "type": "address"
        },
        {
          "name": "_dutchXProxy",
          "type": "address"
        }
      ],
      "payable": false,
      "stateMutability": "nonpayable",
      "type": "constructor"
    },
    {
      "payable": true,
      "stateMutability": "payable",
      "type": "fallback"
    },
    {
      "anonymous": false,
      "inputs": [
        {
          "indexed": true,
          "name": "previousOwner",
          "type": "address"
        },
        {
          "indexed": true,
          "name": "newOwner",
          "type": "address"
        }
      ],
      "name": "OwnershipTransferred",
      "type": "event"
    },
    {
      "constant": false,
      "inputs": [],
      "name": "depositEther",
      "outputs": [],
      "payable": true,
      "stateMutability": "payable",
      "type": "function"
    },
    {
      "constant": false,
      "inputs": [
        {
          "name": "recepient",
          "type": "address"
        },
        {
          "name": "amount",
          "type": "uint256"
        }
      ],
      "name": "withdrawTransferEther",
      "outputs": [],
      "payable": false,
      "stateMutability": "nonpayable",
      "type": "function"
    },
    {
      "constant": false,
      "inputs": [
        {
          "name": "recepient",
          "type": "address"
        },
        {
          "name": "amount",
          "type": "uint256"
        }
      ],
      "name": "transferEther",
      "outputs": [],
      "payable": false,
      "stateMutability": "nonpayable",
      "type": "function"
    },
    {
      "constant": false,
      "inputs": [
        {
          "name": "token",
          "type": "address"
        },
        {
          "name": "amount",
          "type": "uint256"
        }
      ],
      "name": "withdrawToken",
      "outputs": [
        {
          "name": "",
          "type": "uint256"
        }
      ],
      "payable": false,
      "stateMutability": "nonpayable",
      "type": "function"
    },
    {
      "constant": false,
      "inputs": [
        {
          "name": "token",
          "type": "address"
        },
        {
          "name": "recepient",
          "type": "address"
        },
        {
          "name": "amount",
          "type": "uint256"
        }
      ],
      "name": "transferToken",
      "outputs": [],
      "payable": false,
      "stateMutability": "nonpayable",
      "type": "function"
    },
    {
      "constant": false,
      "inputs": [
        {
          "name": "token",
          "type": "address"
        },
        {
          "name": "amount",
          "type": "uint256"
        }
      ],
      "name": "depositToken",
      "outputs": [],
      "payable": false,
      "stateMutability": "nonpayable",
      "type": "function"
    },
    {
      "constant": false,
      "inputs": [
        {
          "name": "arbToken",
          "type": "address"
        },
        {
          "name": "amount",
          "type": "uint256"
        }
      ],
      "name": "dutchOpportunity",
      "outputs": [],
      "payable": false,
      "stateMutability": "nonpayable",
      "type": "function"
    },
    {
      "constant": false,
      "inputs": [
        {
          "name": "arbToken",
          "type": "address"
        },
        {
          "name": "amount",
          "type": "uint256"
        }
      ],
      "name": "uniswapOpportunity",
      "outputs": [],
      "payable": false,
      "stateMutability": "nonpayable",
      "type": "function"
    }
  ],
  "bytecode": "0x608060405234801561001057600080fd5b50604051604080612db68339810180604052604081101561003057600080fd5b810190808051906020019092919080519060200190929190505050336000806101000a81548173ffffffffffffffffffffffffffffffffffffffff021916908373ffffffffffffffffffffffffffffffffffffffff1602179055506000809054906101000a900473ffffffffffffffffffffffffffffffffffffffff1673ffffffffffffffffffffffffffffffffffffffff16600073ffffffffffffffffffffffffffffffffffffffff167f8be0079c531659141344cd1fd0a4f28419497f9722a3daafe3b4186f6b6457e060405160405180910390a381600160006101000a81548173ffffffffffffffffffffffffffffffffffffffff021916908373ffffffffffffffffffffffffffffffffffffffff16021790555080600260006101000a81548173ffffffffffffffffffffffffffffffffffffffff021916908373ffffffffffffffffffffffffffffffffffffffff1602179055505050612c1c8061019a6000396000f3fe6080604052600436106100ba576000357c0100000000000000000000000000000000000000000000000000000000900463ffffffff16806305b1137b146100bc578063338b5dea1461011757806368a88b1114610172578063715018a6146101cd57806389d12768146101e45780638da5cb5b1461023f5780638f32d59b1461029657806398ea5fca146102c55780639e281a98146102cf578063d6eb77a81461033e578063f2fde38b14610399578063f5537ede146103ea575b005b3480156100c857600080fd5b50610115600480360360408110156100df57600080fd5b81019080803573ffffffffffffffffffffffffffffffffffffffff16906020019092919080359060200190929190505050610465565b005b34801561012357600080fd5b506101706004803603604081101561013a57600080fd5b81019080803573ffffffffffffffffffffffffffffffffffffffff169060200190929190803590602001909291905050506104ec565b005b34801561017e57600080fd5b506101cb6004803603604081101561019557600080fd5b81019080803573ffffffffffffffffffffffffffffffffffffffff1690602001909291908035906020019092919050505061050d565b005b3480156101d957600080fd5b506101e2610ccd565b005b3480156101f057600080fd5b5061023d6004803603604081101561020757600080fd5b81019080803573ffffffffffffffffffffffffffffffffffffffff16906020019092919080359060200190929190505050610d9f565b005b34801561024b57600080fd5b506102546118d4565b604051808273ffffffffffffffffffffffffffffffffffffffff1673ffffffffffffffffffffffffffffffffffffffff16815260200191505060405180910390f35b3480156102a257600080fd5b506102ab6118fd565b604051808215151515815260200191505060405180910390f35b6102cd611954565b005b3480156102db57600080fd5b50610328600480360360408110156102f257600080fd5b81019080803573ffffffffffffffffffffffffffffffffffffffff16906020019092919080359060200190929190505050611f8d565b6040518082815260200191505060405180910390f35b34801561034a57600080fd5b506103976004803603604081101561036157600080fd5b81019080803573ffffffffffffffffffffffffffffffffffffffff169060200190929190803590602001909291905050506120aa565b005b3480156103a557600080fd5b506103e8600480360360208110156103bc57600080fd5b81019080803573ffffffffffffffffffffffffffffffffffffffff169060200190929190505050612111565b005b3480156103f657600080fd5b506104636004803603606081101561040d57600080fd5b81019080803573ffffffffffffffffffffffffffffffffffffffff169060200190929190803573ffffffffffffffffffffffffffffffffffffffff16906020019092919080359060200190929190505050612130565b005b61046d6118fd565b151561047857600080fd5b60008114610486578061049f565b3073ffffffffffffffffffffffffffffffffffffffff16315b90508173ffffffffffffffffffffffffffffffffffffffff166108fc829081150290604051600060405180830381858888f193505050501580156104e7573d6000803e3d6000fd5b505050565b6104f46118fd565b15156104ff57600080fd5b610509828261234b565b5050565b61051681612737565b803073ffffffffffffffffffffffffffffffffffffffff1631101515156105cb576040517f08c379a00000000000000000000000000000000000000000000000000000000081526004018080602001828103825260248152602001807f627579696e672066726f6d20756e69737761702074616b6573207265616c204581526020017f746865720000000000000000000000000000000000000000000000000000000081525060400191505060405180910390fd5b6000600260009054906101000a900473ffffffffffffffffffffffffffffffffffffffff1673ffffffffffffffffffffffffffffffffffffffff16637bf1a6276040518163ffffffff167c0100000000000000000000000000000000000000000000000000000000028152600401602060405180830381600087803b15801561065357600080fd5b505af1158015610667573d6000803e3d6000fd5b505050506040513d602081101561067d57600080fd5b810190808051906020019092919050505090506000600260009054906101000a900473ffffffffffffffffffffffffffffffffffffffff1673ffffffffffffffffffffffffffffffffffffffff166314584a9d85846040518363ffffffff167c0100000000000000000000000000000000000000000000000000000000028152600401808373ffffffffffffffffffffffffffffffffffffffff1673ffffffffffffffffffffffffffffffffffffffff1681526020018273ffffffffffffffffffffffffffffffffffffffff1673ffffffffffffffffffffffffffffffffffffffff16815260200192505050602060405180830381600087803b15801561078357600080fd5b505af1158015610797573d6000803e3d6000fd5b505050506040513d60208110156107ad57600080fd5b810190808051906020019092919050505090506000600160009054906101000a900473ffffffffffffffffffffffffffffffffffffffff1673ffffffffffffffffffffffffffffffffffffffff166306f2bf62866040518263ffffffff167c0100000000000000000000000000000000000000000000000000000000028152600401808273ffffffffffffffffffffffffffffffffffffffff1673ffffffffffffffffffffffffffffffffffffffff16815260200191505060206040518083038186803b15801561087d57600080fd5b505afa158015610891573d6000803e3d6000fd5b505050506040513d60208110156108a757600080fd5b810190808051906020019092919050505073ffffffffffffffffffffffffffffffffffffffff1663f39b5b9b856000426040518463ffffffff167c010000000000000000000000000000000000000000000000000000000002815260040180838152602001828152602001925050506020604051808303818588803b15801561092f57600080fd5b505af1158015610943573d6000803e3d6000fd5b50505050506040513d602081101561095a57600080fd5b81019080805190602001909291905050509050610977858261234b565b600260009054906101000a900473ffffffffffffffffffffffffffffffffffffffff1673ffffffffffffffffffffffffffffffffffffffff16635e7f22c28487857fffffffffffffffffffffffffffffffffffffffffffffffffffffffffffffffff6040518563ffffffff167c0100000000000000000000000000000000000000000000000000000000028152600401808573ffffffffffffffffffffffffffffffffffffffff1673ffffffffffffffffffffffffffffffffffffffff1681526020018473ffffffffffffffffffffffffffffffffffffffff1673ffffffffffffffffffffffffffffffffffffffff168152602001838152602001828152602001945050505050602060405180830381600087803b158015610a9857600080fd5b505af1158015610aac573d6000803e3d6000fd5b505050506040513d6020811015610ac257600080fd5b810190808051906020019092919050505050600080600260009054906101000a900473ffffffffffffffffffffffffffffffffffffffff1673ffffffffffffffffffffffffffffffffffffffff1663b0293850868930886040518563ffffffff167c0100000000000000000000000000000000000000000000000000000000028152600401808573ffffffffffffffffffffffffffffffffffffffff1673ffffffffffffffffffffffffffffffffffffffff1681526020018473ffffffffffffffffffffffffffffffffffffffff1673ffffffffffffffffffffffffffffffffffffffff1681526020018373ffffffffffffffffffffffffffffffffffffffff1673ffffffffffffffffffffffffffffffffffffffff1681526020018281526020019450505050506040805180830381600087803b158015610c0357600080fd5b505af1158015610c17573d6000803e3d6000fd5b505050506040513d6040811015610c2d57600080fd5b81019080805190602001909291908051906020019092919050505091509150858210151515610cc4576040517f08c379a00000000000000000000000000000000000000000000000000000000081526004018080602001828103825260098152602001807f6e6f2070726f666974000000000000000000000000000000000000000000000081525060200191505060405180910390fd5b50505050505050565b610cd56118fd565b1515610ce057600080fd5b600073ffffffffffffffffffffffffffffffffffffffff166000809054906101000a900473ffffffffffffffffffffffffffffffffffffffff1673ffffffffffffffffffffffffffffffffffffffff167f8be0079c531659141344cd1fd0a4f28419497f9722a3daafe3b4186f6b6457e060405160405180910390a360008060006101000a81548173ffffffffffffffffffffffffffffffffffffffff021916908373ffffffffffffffffffffffffffffffffffffffff160217905550565b6000600260009054906101000a900473ffffffffffffffffffffffffffffffffffffffff1673ffffffffffffffffffffffffffffffffffffffff16637bf1a6276040518163ffffffff167c0100000000000000000000000000000000000000000000000000000000028152600401602060405180830381600087803b158015610e2757600080fd5b505af1158015610e3b573d6000803e3d6000fd5b505050506040513d6020811015610e5157600080fd5b810190808051906020019092919050505090506000600160009054906101000a900473ffffffffffffffffffffffffffffffffffffffff1673ffffffffffffffffffffffffffffffffffffffff166306f2bf62856040518263ffffffff167c0100000000000000000000000000000000000000000000000000000000028152600401808273ffffffffffffffffffffffffffffffffffffffff1673ffffffffffffffffffffffffffffffffffffffff16815260200191505060206040518083038186803b158015610f2157600080fd5b505afa158015610f35573d6000803e3d6000fd5b505050506040513d6020811015610f4b57600080fd5b810190808051906020019092919050505090506000600260009054906101000a900473ffffffffffffffffffffffffffffffffffffffff1673ffffffffffffffffffffffffffffffffffffffff166314584a9d86856040518363ffffffff167c0100000000000000000000000000000000000000000000000000000000028152600401808373ffffffffffffffffffffffffffffffffffffffff1673ffffffffffffffffffffffffffffffffffffffff1681526020018273ffffffffffffffffffffffffffffffffffffffff1673ffffffffffffffffffffffffffffffffffffffff16815260200192505050602060405180830381600087803b15801561105157600080fd5b505af1158015611065573d6000803e3d6000fd5b505050506040513d602081101561107b57600080fd5b81019080805190602001909291905050509050600260009054906101000a900473ffffffffffffffffffffffffffffffffffffffff1673ffffffffffffffffffffffffffffffffffffffff16635e7f22c2868584886040518563ffffffff167c0100000000000000000000000000000000000000000000000000000000028152600401808573ffffffffffffffffffffffffffffffffffffffff1673ffffffffffffffffffffffffffffffffffffffff1681526020018473ffffffffffffffffffffffffffffffffffffffff1673ffffffffffffffffffffffffffffffffffffffff168152602001838152602001828152602001945050505050602060405180830381600087803b15801561118f57600080fd5b505af11580156111a3573d6000803e3d6000fd5b505050506040513d60208110156111b957600080fd5b810190808051906020019092919050505050606060016040519080825280602002602001820160405280156111fd5781602001602082028038833980820191505090505b5090508581600081518110151561121057fe5b9060200190602002019073ffffffffffffffffffffffffffffffffffffffff16908173ffffffffffffffffffffffffffffffffffffffff16815250506060600160405190808252806020026020018201604052801561127e5781602001602082028038833980820191505090505b5090508481600081518110151561129157fe5b9060200190602002019073ffffffffffffffffffffffffffffffffffffffff16908173ffffffffffffffffffffffffffffffffffffffff1681525050606060016040519080825280602002602001820160405280156112ff5781602001602082028038833980820191505090505b5090508381600081518110151561131257fe5b906020019060200201818152505060606000600260009054906101000a900473ffffffffffffffffffffffffffffffffffffffff1673ffffffffffffffffffffffffffffffffffffffff16630c57cfba8686866040518463ffffffff167c010000000000000000000000000000000000000000000000000000000002815260040180806020018060200180602001848103845287818151815260200191508051906020019060200280838360005b838110156113db5780820151818401526020810190506113c0565b50505050905001848103835286818151815260200191508051906020019060200280838360005b8381101561141d578082015181840152602081019050611402565b50505050905001848103825285818151815260200191508051906020019060200280838360005b8381101561145f578082015181840152602081019050611444565b50505050905001965050505050505060006040518083038186803b15801561148657600080fd5b505afa15801561149a573d6000803e3d6000fd5b505050506040513d6000823e3d601f19601f8201168201806040525060408110156114c457600080fd5b8101908080516401000000008111156114dc57600080fd5b828101905060208101848111156114f257600080fd5b815185602082028301116401000000008211171561150f57600080fd5b505092919060200180519060200190929190505050915091506060877fffffffffffffffffffffffffffffffffffffffffffffffffffffffffffffffff604051602401808373ffffffffffffffffffffffffffffffffffffffff1673ffffffffffffffffffffffffffffffffffffffff168152602001828152602001925050506040516020818303038152906040527f086c40f6000000000000000000000000000000000000000000000000000000007bffffffffffffffffffffffffffffffffffffffffffffffffffffffff19166020820180517bffffffffffffffffffffffffffffffffffffffffffffffffffffffff83818316178352505050509050600060608c73ffffffffffffffffffffffffffffffffffffffff16600062030d4090856040518082805190602001908083835b6020831015156116665780518252602082019150602081019050602083039250611641565b6001836020036101000a038019825116818451168082178552505050505050905001915050600060405180830381858888f193505050503d80600081146116c9576040519150601f19603f3d011682016040523d82523d6000602084013e6116ce565b606091505b509150915081151561176e576040517f08c379a00000000000000000000000000000000000000000000000000000000081526004018080602001828103825260398152602001807f417070726f766520617262546f6b656e20746f206265207472616e736665727281526020017f656420627920556e6973776170206469646e277420776f726b0000000000000081525060400191505060405180910390fd5b60008a73ffffffffffffffffffffffffffffffffffffffff166395e3c50b87600081518110151561179b57fe5b906020019060200201518f426040518463ffffffff167c0100000000000000000000000000000000000000000000000000000000028152600401808481526020018381526020018281526020019350505050602060405180830381600087803b15801561180757600080fd5b505af115801561181b573d6000803e3d6000fd5b505050506040513d602081101561183157600080fd5b810190808051906020019092919050505090508c81101515156118bc576040517f08c379a00000000000000000000000000000000000000000000000000000000081526004018080602001828103825260098152602001807f6e6f2070726f666974000000000000000000000000000000000000000000000081525060200191505060405180910390fd5b6118c4611954565b5050505050505050505050505050565b60008060009054906101000a900473ffffffffffffffffffffffffffffffffffffffff16905090565b60008060009054906101000a900473ffffffffffffffffffffffffffffffffffffffff1673ffffffffffffffffffffffffffffffffffffffff163373ffffffffffffffffffffffffffffffffffffffff1614905090565b61195c6118fd565b151561196757600080fd5b60003073ffffffffffffffffffffffffffffffffffffffff163111151561198d57600080fd5b60003073ffffffffffffffffffffffffffffffffffffffff163190506000600260009054906101000a900473ffffffffffffffffffffffffffffffffffffffff1673ffffffffffffffffffffffffffffffffffffffff16637bf1a6276040518163ffffffff167c0100000000000000000000000000000000000000000000000000000000028152600401602060405180830381600087803b158015611a3157600080fd5b505af1158015611a45573d6000803e3d6000fd5b505050506040513d6020811015611a5b57600080fd5b81019080805190602001909291905050509050600060608273ffffffffffffffffffffffffffffffffffffffff168462030d4090604051806000019050600060405180830381858888f193505050503d8060008114611ad6576040519150601f19603f3d011682016040523d82523d6000602084013e611adb565b606091505b5091509150811515611b7b576040517f08c379a00000000000000000000000000000000000000000000000000000000081526004018080602001828103825260258152602001807f436f6e76657274696e6720457468657220746f2057455448206469646e27742081526020017f776f726b2e00000000000000000000000000000000000000000000000000000081525060400191505060405180910390fd5b6060600260009054906101000a900473ffffffffffffffffffffffffffffffffffffffff167fffffffffffffffffffffffffffffffffffffffffffffffffffffffffffffffff604051602401808373ffffffffffffffffffffffffffffffffffffffff1673ffffffffffffffffffffffffffffffffffffffff168152602001828152602001925050506040516020818303038152906040527f086c40f6000000000000000000000000000000000000000000000000000000007bffffffffffffffffffffffffffffffffffffffffffffffffffffffff19166020820180517bffffffffffffffffffffffffffffffffffffffffffffffffffffffff838183161783525050505090508373ffffffffffffffffffffffffffffffffffffffff16600062030d4090836040518082805190602001908083835b602083101515611cd75780518252602082019150602081019050602083039250611cb2565b6001836020036101000a038019825116818451168082178552505050505050905001915050600060405180830381858888f193505050503d8060008114611d3a576040519150601f19603f3d011682016040523d82523d6000602084013e611d3f565b606091505b508093508194505050821515611de3576040517f08c379a00000000000000000000000000000000000000000000000000000000081526004018080602001828103825260358152602001807f417070726f7665205745544820746f206265207472616e73666572726564206281526020017f7920447574636858206469646e277420776f726b2e000000000000000000000081525060400191505060405180910390fd5b6000600260009054906101000a900473ffffffffffffffffffffffffffffffffffffffff1673ffffffffffffffffffffffffffffffffffffffff166347e7ef2486886040518363ffffffff167c0100000000000000000000000000000000000000000000000000000000028152600401808373ffffffffffffffffffffffffffffffffffffffff1673ffffffffffffffffffffffffffffffffffffffff16815260200182815260200192505050602060405180830381600087803b158015611eaa57600080fd5b505af1158015611ebe573d6000803e3d6000fd5b505050506040513d6020811015611ed457600080fd5b81019080805190602001909291905050509050858110151515611f85576040517f08c379a00000000000000000000000000000000000000000000000000000000081526004018080602001828103825260238152602001807f4465706f736974205745544820746f20447574636858206469646e277420776f81526020017f726b2e000000000000000000000000000000000000000000000000000000000081525060400191505060405180910390fd5b505050505050565b6000611f976118fd565b1515611fa257600080fd5b600260009054906101000a900473ffffffffffffffffffffffffffffffffffffffff1673ffffffffffffffffffffffffffffffffffffffff1663f3fef3a384846040518363ffffffff167c0100000000000000000000000000000000000000000000000000000000028152600401808373ffffffffffffffffffffffffffffffffffffffff1673ffffffffffffffffffffffffffffffffffffffff16815260200182815260200192505050602060405180830381600087803b15801561206757600080fd5b505af115801561207b573d6000803e3d6000fd5b505050506040513d602081101561209157600080fd5b8101908080519060200190929190505050905092915050565b6120b26118fd565b15156120bd57600080fd5b6120c681612737565b8173ffffffffffffffffffffffffffffffffffffffff166108fc829081150290604051600060405180830381858888f1935050505015801561210c573d6000803e3d6000fd5b505050565b6121196118fd565b151561212457600080fd5b61212d81612af6565b50565b6121386118fd565b151561214357600080fd5b60608282604051602401808373ffffffffffffffffffffffffffffffffffffffff1673ffffffffffffffffffffffffffffffffffffffff168152602001828152602001925050506040516020818303038152906040527f6cb927d8000000000000000000000000000000000000000000000000000000007bffffffffffffffffffffffffffffffffffffffffffffffffffffffff19166020820180517bffffffffffffffffffffffffffffffffffffffffffffffffffffffff83818316178352505050509050600060608573ffffffffffffffffffffffffffffffffffffffff16600062030d4090856040518082805190602001908083835b602083101515612261578051825260208201915060208101905060208303925061223c565b6001836020036101000a038019825116818451168082178552505050505050905001915050600060405180830381858888f193505050503d80600081146122c4576040519150601f19603f3d011682016040523d82523d6000602084013e6122c9565b606091505b5091509150811515612343576040517f08c379a000000000000000000000000000000000000000000000000000000000815260040180806020018281038252601b8152602001807f5472616e7366657220746f6b656e206469646e277420776f726b2e000000000081525060200191505060405180910390fd5b505050505050565b6060600260009054906101000a900473ffffffffffffffffffffffffffffffffffffffff167fffffffffffffffffffffffffffffffffffffffffffffffffffffffffffffffff604051602401808373ffffffffffffffffffffffffffffffffffffffff1673ffffffffffffffffffffffffffffffffffffffff168152602001828152602001925050506040516020818303038152906040527f086c40f6000000000000000000000000000000000000000000000000000000007bffffffffffffffffffffffffffffffffffffffffffffffffffffffff19166020820180517bffffffffffffffffffffffffffffffffffffffffffffffffffffffff83818316178352505050509050600060608473ffffffffffffffffffffffffffffffffffffffff16600062030d4090856040518082805190602001908083835b6020831015156124ab5780518252602082019150602081019050602083039250612486565b6001836020036101000a038019825116818451168082178552505050505050905001915050600060405180830381858888f193505050503d806000811461250e576040519150601f19603f3d011682016040523d82523d6000602084013e612513565b606091505b50915091508115156125b3576040517f08c379a00000000000000000000000000000000000000000000000000000000081526004018080602001828103825260368152602001807f417070726f766520746f6b656e20746f206265207472616e736665727265642081526020017f627920447574636858206469646e277420776f726b2e0000000000000000000081525060400191505060405180910390fd5b6000600260009054906101000a900473ffffffffffffffffffffffffffffffffffffffff1673ffffffffffffffffffffffffffffffffffffffff166347e7ef2487876040518363ffffffff167c0100000000000000000000000000000000000000000000000000000000028152600401808373ffffffffffffffffffffffffffffffffffffffff1673ffffffffffffffffffffffffffffffffffffffff16815260200182815260200192505050602060405180830381600087803b15801561267a57600080fd5b505af115801561268e573d6000803e3d6000fd5b505050506040513d60208110156126a457600080fd5b8101908080519060200190929190505050905084811015151561272f576040517f08c379a00000000000000000000000000000000000000000000000000000000081526004018080602001828103825260138152602001807f6465706f736974206469646e277420776f726b0000000000000000000000000081525060200191505060405180910390fd5b505050505050565b6000600260009054906101000a900473ffffffffffffffffffffffffffffffffffffffff1673ffffffffffffffffffffffffffffffffffffffff16637bf1a6276040518163ffffffff167c0100000000000000000000000000000000000000000000000000000000028152600401602060405180830381600087803b1580156127bf57600080fd5b505af11580156127d3573d6000803e3d6000fd5b505050506040513d60208110156127e957600080fd5b81019080805190602001909291905050509050600260009054906101000a900473ffffffffffffffffffffffffffffffffffffffff1673ffffffffffffffffffffffffffffffffffffffff1663f3fef3a382846040518363ffffffff167c0100000000000000000000000000000000000000000000000000000000028152600401808373ffffffffffffffffffffffffffffffffffffffff1673ffffffffffffffffffffffffffffffffffffffff16815260200182815260200192505050602060405180830381600087803b1580156128c157600080fd5b505af11580156128d5573d6000803e3d6000fd5b505050506040513d60208110156128eb57600080fd5b810190808051906020019092919050505050606082604051602401808281526020019150506040516020818303038152906040527f8ba14562000000000000000000000000000000000000000000000000000000007bffffffffffffffffffffffffffffffffffffffffffffffffffffffff19166020820180517bffffffffffffffffffffffffffffffffffffffffffffffffffffffff83818316178352505050509050600060608373ffffffffffffffffffffffffffffffffffffffff16600062030d4090856040518082805190602001908083835b6020831015156129e757805182526020820191506020810190506020830392506129c2565b6001836020036101000a038019825116818451168082178552505050505050905001915050600060405180830381858888f193505050503d8060008114612a4a576040519150601f19603f3d011682016040523d82523d6000602084013e612a4f565b606091505b5091509150811515612aef576040517f08c379a00000000000000000000000000000000000000000000000000000000081526004018080602001828103825260288152602001807f5769746864726177206f662045746865722066726f6d2057455448206469646e81526020017f277420776f726b2e00000000000000000000000000000000000000000000000081525060400191505060405180910390fd5b5050505050565b600073ffffffffffffffffffffffffffffffffffffffff168173ffffffffffffffffffffffffffffffffffffffff1614151515612b3257600080fd5b8073ffffffffffffffffffffffffffffffffffffffff166000809054906101000a900473ffffffffffffffffffffffffffffffffffffffff1673ffffffffffffffffffffffffffffffffffffffff167f8be0079c531659141344cd1fd0a4f28419497f9722a3daafe3b4186f6b6457e060405160405180910390a3806000806101000a81548173ffffffffffffffffffffffffffffffffffffffff021916908373ffffffffffffffffffffffffffffffffffffffff1602179055505056fea165627a7a723058205504165983649ff747e8a22bb9d033126dd88bbe2a6d951f3f8377edec6926b70029",
  "source": "pragma solidity ^0.5.0;\n\nimport \"./IUniswapExchange.sol\";\nimport \"./IUniswapFactory.sol\";\nimport \"./IDutchExchange.sol\";\nimport \"../node_modules/openzeppelin-solidity/contracts/ownership/Ownable.sol\";\n\n/// @title Uniswap Arbitrage Module - Executes arbitrage transactions between Uniswap and DutchX.\n/// @author Billy Rennekamp - <billy@gnosis.pm>\ncontract Arbitrage is Ownable {\n    \n    uint constant max = uint(-1);\n\n    IUniswapFactory uniFactory;\n    IDutchExchange dutchXProxy;\n\n    /// @dev Constructor function sets initial storage of contract.\n    /// @param _uniFactory The uniswap factory deployed address.\n    /// @param _dutchXProxy The dutchX proxy deployed address.\n    constructor(IUniswapFactory _uniFactory, IDutchExchange _dutchXProxy) public {\n        uniFactory = _uniFactory;\n        dutchXProxy = _dutchXProxy;\n    }\n\n    /// @dev Payable fallback function has nothing inside so it won't run out of gas with gas limited transfers\n    function() external payable {}\n\n    /// @dev Only owner can deposit contract Ether into the DutchX as WETH\n    function depositEther() public payable onlyOwner {\n\n        require(address(this).balance > 0);\n        uint balance = address(this).balance;\n\n        // Deposit balance to WETH\n        address weth = dutchXProxy.ethToken();\n        (bool success, bytes memory returnData) = weth.call.value(balance).gas(200000)(\"\");\n        require(success, \"Converting Ether to WETH didn't work.\");\n\n        // Approve max amount of WETH to be transferred by dutchX\n        // Keeping it max will have same or similar costs to making it exact over and over again\n        // 200000 was common gas amount added to similar transactions although typically used only ~30k50k\n        // success is not guaranteed by success boolean, returnData deemed unnecessary to decode\n        bytes memory payload = abi.encodeWithSignature(\"approve(address,uint)\", address(dutchXProxy), max);\n        (success,returnData) = weth.call.value(0).gas(200000)(payload);\n        require(success, \"Approve WETH to be transferred by DutchX didn't work.\");\n\n        // Deposit new amount on dutchX, confirm there's at least the amount we just deposited\n        uint newBalance = dutchXProxy.deposit(weth, balance);\n        require(newBalance >= balance, \"Deposit WETH to DutchX didn't work.\");\n    }\n\n    /// @dev Only owner can withdraw WETH from DutchX, convert to Ether and transfer to recepient\n    /// @param recepient The payable recepient of the Ether.\n    /// @param amount The amount of Ether to withdraw\n   function withdrawTransferEther(address payable recepient, uint amount) public onlyOwner {\n        _withdrawEther(amount);\n        recepient.transfer(amount);\n    }\n\n    /// @dev Only owner can transfer any Ether currently in the contract to some recepient.\n    /// @param recepient The payable recepient of the Ether.\n    /// @param amount The amount of Ether to withdraw\n    function transferEther(address payable recepient, uint amount) public onlyOwner {\n        // If amount is zero, deposit the entire contract balance.\n        amount = amount == 0 ? address(this).balance : amount;\n        recepient.transfer(amount);\n    }\n\n    /// @dev Internal function to withdraw WETH from the DutchX, convert it to Ether and keep it in contract\n    /// @param amount The amount of WETH to withdraw and convert.\n    function _withdrawEther(uint amount) internal {\n\n        address weth = dutchXProxy.ethToken();\n        dutchXProxy.withdraw(weth, amount);\n\n        // 200000 was common gas amount added to similar transactions although typically used only ~30k50k\n        // success is not guaranteed by success boolean, returnData deemed unnecessary to decode\n        bytes memory payload = abi.encodeWithSignature(\"withdraw(uint)\", amount);\n        (bool success, bytes memory returnData) = weth.call.value(0).gas(200000)(payload);\n\n        require(success, \"Withdraw of Ether from WETH didn't work.\");\n    }\n\n    /// @dev Only owner can withdraw a token from the DutchX\n    /// @param token The token address that is being withdrawn.\n    /// @param amount The amount of token to withdraw. Can be larger than available balance and maximum will be withdrawn.\n    /// @return Returns the amount actually withdrawn from the DutchX\n    function withdrawToken(address token, uint amount) public onlyOwner returns (uint) {\n        return dutchXProxy.withdraw(token, amount);\n    }\n\n    /// @dev Only owner can transfer tokens that belong to this contract\n    /// @param token The token address that is being transferred.\n    /// @param amount The amount of token to transfer.\n    function transferToken(address token, address recepient, uint amount) public onlyOwner {\n\n        // 200000 was common gas amount added to similar transactions although typically used only ~30k50k\n        // success is not guaranteed by success boolean, returnData deemed unnecessary to decode\n        bytes memory payload = abi.encodeWithSignature(\"transfer(address,uint)\", recepient, amount);\n        (bool success, bytes memory returnData) = token.call.value(0).gas(200000)(payload);\n\n        require(success, \"Transfer token didn't work.\");\n    }\n\n    /// @dev Only owner can deposit token to the DutchX\n    /// @param token The token address that is being deposited.\n    /// @param amount The amount of token to deposit.\n    function depositToken(address token, uint amount) public onlyOwner {\n        _depositToken(token, amount);\n    }\n\n    /// @dev Internal function to deposit token to the DutchX\n    /// @param token The token address that is being deposited.\n    /// @param amount The amount of token to deposit.\n    function _depositToken(address token, uint amount) internal {\n\n        // 200000 was common gas amount added to similar transactions although typically used only ~30k50k\n        // success is not guaranteed by success boolean, returnData deemed unnecessary to decode\n        bytes memory payload = abi.encodeWithSignature(\"approve(address,uint)\",address(dutchXProxy), max);\n        (bool success, bytes memory returnData) = token.call.value(0).gas(200000)(payload);\n        require(success, \"Approve token to be transferred by DutchX didn't work.\");\n\n        // Confirm that the balance of the token on the DutchX is at least how much was deposited\n        uint newBalance = dutchXProxy.deposit(token, amount);\n        require(newBalance >= amount, \"deposit didn't work\");\n    }\n\n    /// @dev Executes a trade opportunity on dutchX. Assumes that there is a balance of WETH already on the dutchX \n    /// @param arbToken Address of the token that should be arbitraged.\n    /// @param amount Amount of Ether to use in arbitrage.\n    /// @return Returns if transaction can be executed.\n    function dutchOpportunity(address arbToken, uint256 amount) public {\n\n        address etherToken = dutchXProxy.ethToken();\n\n        address uniswapExchange = uniFactory.getExchange(arbToken);\n\n        // The order of parameters for getAuctionIndex don't matter\n        uint256 dutchAuctionIndex = dutchXProxy.getAuctionIndex(arbToken, etherToken);\n\n        // postBuyOrder(sellToken, buyToken, amount)\n        // results in a decrease of the amount the user owns of the second token\n        // which means the buyToken is what the buyer wants to get rid of.\n        // \"The buy token is what the buyer provides, the seller token is what the seller provides.\"\n        dutchXProxy.postBuyOrder(arbToken, etherToken, dutchAuctionIndex, amount);\n\n        // claimAndWithdrawTokensFromSeveralAuctionsAsBuyers(sellTokens, buyTokens, indexes)\n        // This function combines the claimBuyerFunds with the withdraw function.\n        // Thought it would be cheaper than using both, but with requirements of so many var declarations it might not be...\n\n        address[] memory arbTokenArray = new address[](1);\n        arbTokenArray[0] = arbToken;\n        address[] memory etherTokenArray = new address[](1);\n        etherTokenArray[0] = etherToken;\n        uint[] memory indexArray = new uint[](1);\n        indexArray[0] = dutchAuctionIndex;\n\n        (uint[] memory tokensBought, uint256 magnolia) = dutchXProxy.claimAndWithdrawTokensFromSeveralAuctionsAsBuyer(arbTokenArray, etherTokenArray, indexArray);\n\n        // Approve Uniswap to transfer arbToken on user's behalf\n        // Keeping it max will have same or similar costs to making it exact over and over again\n        // 200000 was common gas amount added to similar transactions although typically used only ~30k50k\n        // success is not guaranteed by success boolean, returnData deemed unnecessary to decode\n        bytes memory payload = abi.encodeWithSignature(\"approve(address,uint)\", address(uniswapExchange), max);\n        (bool success, bytes memory returnData) = arbToken.call.value(0).gas(200000)(payload);\n        require(success, \"Approve arbToken to be transferred by Uniswap didn't work\");\n\n        // tokenToEthSwapInput(inputToken, minimumReturn, timeToLive)\n        // minimumReturn is enough to make a profit (excluding gas)\n        // timeToLive is now because transaction is atomic\n        uint256 etherReturned = IUniswapExchange(uniswapExchange).tokenToEthSwapInput(tokensBought[0], amount, block.timestamp);\n\n        // gas costs were excluded because worse case scenario the tx fails and gas costs were spent up to here anyway\n        // best worst case scenario the profit from the trade alleviates part of the gas costs even if still no total profit\n        require(etherReturned >= amount, \"no profit\");\n\n        // Ether is deposited as WETH\n        depositEther();\n    }\n\n    /// @dev Executes a trade opportunity on uniswap.\n    /// @param arbToken Address of the token that should be arbitraged.\n    /// @param amount Amount of Ether to use in arbitrage.\n    /// @return Returns if transaction can be executed.\n    function uniswapOpportunity(address arbToken, uint256 amount) public {\n\n        // WETH must be converted to Eth for Uniswap trade\n        // (Uniswap allows ERC20:ERC20 but most liquidity is on ETH:ERC20 markets)\n        _withdrawEther(amount);\n        require(address(this).balance >= amount, \"buying from uniswap takes real Ether\");\n\n        address etherToken = dutchXProxy.ethToken();\n        \n        // The order of parameters for getAuctionIndex don't matter\n        uint256 dutchAuctionIndex = dutchXProxy.getAuctionIndex(arbToken, etherToken);\n\n        // ethToTokenSwapInput(minTokens, deadline)\n        // minTokens is 0 because it will revert without a profit regardless\n        // deadline is now since trade is atomic\n        uint256 tokensBought = IUniswapExchange(uniFactory.getExchange(arbToken)).ethToTokenSwapInput.value(amount)(0, block.timestamp);\n        \n        // tokens need to be approved for the dutchX before they are deposited\n        _depositToken(arbToken, tokensBought);\n\n        // spend max amount of tokens currently on the dutch x (might be combined from previous remainders)\n        // max is automatically reduced to maximum available tokens because there may be\n        // token remainders from previous auctions which closed after previous arbitrage opportunities\n        dutchXProxy.postBuyOrder(etherToken, arbToken, dutchAuctionIndex, max);\n        (uint etherReturned, uint frtsIssued) = dutchXProxy.claimBuyerFunds(etherToken, arbToken, address(this), dutchAuctionIndex);\n        \n        // gas costs were excluded because worse case scenario the tx fails and gas costs were spent up to here anyway\n        // best worst case scenario the profit from the trade alleviates part of the gas costs even if still no total profit\n        require(etherReturned >= amount, \"no profit\");\n\n        // Ether returned is already in dutchX balance where Ether is assumed to be stored when not being used.\n    }\n    \n}",
  "sourcePath": "/Users/billy/gnosis/arbitrage/contracts/Arbitrage.sol",
  "compiler": {
    "name": "solc",
    "version": "0.5.0+commit.1d4f565a.Emscripten.clang"
  },
  "schemaVersion": "3.0.1",
  "updatedAt": "2019-02-05T16:45:06.284Z",
  "devdoc": {
    "author": "Billy Rennekamp - <billy@gnosis.pm>",
    "methods": {
      "constructor": {
        "details": "Constructor function sets initial storage of contract.",
        "params": {
          "_dutchXProxy": "The dutchX proxy deployed address.",
          "_uniFactory": "The uniswap factory deployed address."
        }
      },
      "depositEther()": {
        "details": "Only owner can deposit contract Ether into the DutchX as WETH"
      },
      "depositToken(address,uint256)": {
        "details": "Only owner can deposit token to the DutchX",
        "params": {
          "amount": "The amount of token to deposit.",
          "token": "The token address that is being deposited."
        }
      },
      "dutchOpportunity(address,uint256)": {
        "details": "Executes a trade opportunity on dutchX. Assumes that there is a balance of WETH already on the dutchX ",
        "params": {
          "amount": "Amount of Ether to use in arbitrage.",
          "arbToken": "Address of the token that should be arbitraged."
        },
        "return": "Returns if transaction can be executed."
      },
      "isOwner()": {
        "return": "true if `msg.sender` is the owner of the contract."
      },
      "owner()": {
        "return": "the address of the owner."
      },
      "renounceOwnership()": {
        "details": "Allows the current owner to relinquish control of the contract."
      },
      "transferEther(address,uint256)": {
        "details": "Only owner can transfer any Ether currently in the contract to some recepient.",
        "params": {
          "amount": "The amount of Ether to withdraw",
          "recepient": "The payable recepient of the Ether."
        }
      },
      "transferOwnership(address)": {
        "details": "Allows the current owner to transfer control of the contract to a newOwner.",
        "params": {
          "newOwner": "The address to transfer ownership to."
        }
      },
      "transferToken(address,address,uint256)": {
        "details": "Only owner can transfer tokens that belong to this contract",
        "params": {
          "amount": "The amount of token to transfer.",
          "token": "The token address that is being transferred."
        }
      },
      "uniswapOpportunity(address,uint256)": {
        "details": "Executes a trade opportunity on uniswap.",
        "params": {
          "amount": "Amount of Ether to use in arbitrage.",
          "arbToken": "Address of the token that should be arbitraged."
        },
        "return": "Returns if transaction can be executed."
      },
      "withdrawToken(address,uint256)": {
        "details": "Only owner can withdraw a token from the DutchX",
        "params": {
          "amount": "The amount of token to withdraw. Can be larger than available balance and maximum will be withdrawn.",
          "token": "The token address that is being withdrawn."
        },
        "return": "Returns the amount actually withdrawn from the DutchX"
      },
      "withdrawTransferEther(address,uint256)": {
        "details": "Only owner can withdraw WETH from DutchX, convert to Ether and transfer to recepient",
        "params": {
          "amount": "The amount of Ether to withdraw",
          "recepient": "The payable recepient of the Ether."
        }
      }
    },
    "title": "Uniswap Arbitrage Module - Executes arbitrage transactions between Uniswap and DutchX."
  },
  "userdoc": {
    "methods": {
      "renounceOwnership()": {
        "notice": "Renouncing to ownership will leave the contract without an owner. It will not be possible to call the functions with the `onlyOwner` modifier anymore."
      }
    }
  }
}