{
  "contractName": "Arbitrage",
  "abi": [
    {
      "constant": false,
      "inputs": [],
      "name": "renounceOwnership",
      "outputs": [],
      "payable": false,
      "stateMutability": "nonpayable",
      "type": "function",
      "signature": "0x715018a6"
    },
    {
      "constant": true,
      "inputs": [],
      "name": "owner",
      "outputs": [
        {
          "name": "",
          "type": "address"
        }
      ],
      "payable": false,
      "stateMutability": "view",
      "type": "function",
      "signature": "0x8da5cb5b"
    },
    {
      "constant": true,
      "inputs": [],
      "name": "isOwner",
      "outputs": [
        {
          "name": "",
          "type": "bool"
        }
      ],
      "payable": false,
      "stateMutability": "view",
      "type": "function",
      "signature": "0x8f32d59b"
    },
    {
      "constant": false,
      "inputs": [
        {
          "name": "newOwner",
          "type": "address"
        }
      ],
      "name": "transferOwnership",
      "outputs": [],
      "payable": false,
      "stateMutability": "nonpayable",
      "type": "function",
      "signature": "0xf2fde38b"
    },
    {
      "inputs": [
        {
          "name": "_uniFactory",
          "type": "address"
        },
        {
          "name": "_dutchXProxy",
          "type": "address"
        }
      ],
      "payable": false,
      "stateMutability": "nonpayable",
      "type": "constructor",
      "signature": "constructor"
    },
    {
      "payable": true,
      "stateMutability": "payable",
      "type": "fallback"
    },
    {
      "anonymous": false,
      "inputs": [
        {
          "indexed": true,
          "name": "previousOwner",
          "type": "address"
        },
        {
          "indexed": true,
          "name": "newOwner",
          "type": "address"
        }
      ],
      "name": "OwnershipTransferred",
      "type": "event",
      "signature": "0x8be0079c531659141344cd1fd0a4f28419497f9722a3daafe3b4186f6b6457e0"
    },
    {
      "constant": false,
      "inputs": [],
      "name": "depositEther",
      "outputs": [],
      "payable": true,
      "stateMutability": "payable",
      "type": "function",
      "signature": "0x98ea5fca"
    },
    {
      "constant": false,
      "inputs": [
        {
          "name": "amount",
          "type": "uint256"
        }
      ],
      "name": "withdrawEtherThenTransfer",
      "outputs": [],
      "payable": false,
      "stateMutability": "nonpayable",
      "type": "function",
      "signature": "0x7b2682a3"
    },
    {
      "constant": false,
      "inputs": [
        {
          "name": "amount",
          "type": "uint256"
        }
      ],
      "name": "transferEther",
      "outputs": [],
      "payable": false,
      "stateMutability": "nonpayable",
      "type": "function",
      "signature": "0x73ffd5b7"
    },
    {
      "constant": false,
      "inputs": [
        {
          "name": "amount",
          "type": "uint256"
        }
      ],
      "name": "withdrawEther",
      "outputs": [],
      "payable": false,
      "stateMutability": "nonpayable",
      "type": "function",
      "signature": "0x3bed33ce"
    },
    {
      "constant": false,
      "inputs": [
        {
          "name": "token",
          "type": "address"
        },
        {
          "name": "amount",
          "type": "uint256"
        }
      ],
      "name": "withdrawToken",
      "outputs": [
        {
          "name": "",
          "type": "uint256"
        }
      ],
      "payable": false,
      "stateMutability": "nonpayable",
      "type": "function",
      "signature": "0x9e281a98"
    },
    {
      "constant": false,
      "inputs": [
        {
          "name": "token",
          "type": "address"
        },
        {
          "name": "amount",
          "type": "uint256"
        }
      ],
      "name": "transferToken",
      "outputs": [],
      "payable": false,
      "stateMutability": "nonpayable",
      "type": "function",
      "signature": "0x1072cbea"
    },
    {
      "constant": false,
      "inputs": [
        {
          "name": "token",
          "type": "address"
        },
        {
          "name": "amount",
          "type": "uint256"
        }
      ],
      "name": "depositToken",
      "outputs": [],
      "payable": false,
      "stateMutability": "nonpayable",
      "type": "function",
      "signature": "0x338b5dea"
    },
    {
      "constant": false,
      "inputs": [
        {
          "name": "arbToken",
          "type": "address"
        },
        {
          "name": "amount",
          "type": "uint256"
        }
      ],
      "name": "dutchOpportunity",
      "outputs": [],
      "payable": false,
      "stateMutability": "nonpayable",
      "type": "function",
      "signature": "0x89d12768"
    },
    {
      "constant": false,
      "inputs": [
        {
          "name": "arbToken",
          "type": "address"
        },
        {
          "name": "amount",
          "type": "uint256"
        }
      ],
      "name": "uniswapOpportunity",
      "outputs": [],
      "payable": false,
      "stateMutability": "nonpayable",
      "type": "function",
      "signature": "0x68a88b11"
    }
  ],
  "bytecode": "0x608060405234801561001057600080fd5b5060405160408061345e8339810180604052604081101561003057600080fd5b810190808051906020019092919080519060200190929190505050336000806101000a81548173ffffffffffffffffffffffffffffffffffffffff021916908373ffffffffffffffffffffffffffffffffffffffff1602179055506000809054906101000a900473ffffffffffffffffffffffffffffffffffffffff1673ffffffffffffffffffffffffffffffffffffffff16600073ffffffffffffffffffffffffffffffffffffffff167f8be0079c531659141344cd1fd0a4f28419497f9722a3daafe3b4186f6b6457e060405160405180910390a381600160006101000a81548173ffffffffffffffffffffffffffffffffffffffff021916908373ffffffffffffffffffffffffffffffffffffffff16021790555080600260006101000a81548173ffffffffffffffffffffffffffffffffffffffff021916908373ffffffffffffffffffffffffffffffffffffffff16021790555050506132c48061019a6000396000f3fe6080604052600436106100c5576000357c0100000000000000000000000000000000000000000000000000000000900463ffffffff1680631072cbea146100c7578063338b5dea146101225780633bed33ce1461017d57806368a88b11146101b8578063715018a61461021357806373ffd5b71461022a5780637b2682a31461026557806389d12768146102a05780638da5cb5b146102fb5780638f32d59b1461035257806398ea5fca146103815780639e281a981461038b578063f2fde38b146103fa575b005b3480156100d357600080fd5b50610120600480360360408110156100ea57600080fd5b81019080803573ffffffffffffffffffffffffffffffffffffffff1690602001909291908035906020019092919050505061044b565b005b34801561012e57600080fd5b5061017b6004803603604081101561014557600080fd5b81019080803573ffffffffffffffffffffffffffffffffffffffff1690602001909291908035906020019092919050505061079b565b005b34801561018957600080fd5b506101b6600480360360208110156101a057600080fd5b81019080803590602001909291905050506107bc565b005b3480156101c457600080fd5b50610211600480360360408110156101db57600080fd5b81019080803573ffffffffffffffffffffffffffffffffffffffff169060200190929190803590602001909291905050506107db565b005b34801561021f57600080fd5b50610228610f9b565b005b34801561023657600080fd5b506102636004803603602081101561024d57600080fd5b810190808035906020019092919050505061106d565b005b34801561027157600080fd5b5061029e6004803603602081101561028857600080fd5b81019080803590602001909291905050506110f7565b005b3480156102ac57600080fd5b506102f9600480360360408110156102c357600080fd5b81019080803573ffffffffffffffffffffffffffffffffffffffff16906020019092919080359060200190929190505050611164565b005b34801561030757600080fd5b50610310611dee565b604051808273ffffffffffffffffffffffffffffffffffffffff1673ffffffffffffffffffffffffffffffffffffffff16815260200191505060405180910390f35b34801561035e57600080fd5b50610367611e17565b604051808215151515815260200191505060405180910390f35b610389611e6e565b005b34801561039757600080fd5b506103e4600480360360408110156103ae57600080fd5b81019080803573ffffffffffffffffffffffffffffffffffffffff16906020019092919080359060200190929190505050612762565b6040518082815260200191505060405180910390f35b34801561040657600080fd5b506104496004803603602081101561041d57600080fd5b81019080803573ffffffffffffffffffffffffffffffffffffffff16906020019092919050505061287f565b005b610453611e17565b151561045e57600080fd5b6060610468611dee565b82604051602401808373ffffffffffffffffffffffffffffffffffffffff1673ffffffffffffffffffffffffffffffffffffffff168152602001828152602001925050506040516020818303038152906040527fa9059cbb000000000000000000000000000000000000000000000000000000007bffffffffffffffffffffffffffffffffffffffffffffffffffffffff19166020820180517bffffffffffffffffffffffffffffffffffffffffffffffffffffffff83818316178352505050509050600060608473ffffffffffffffffffffffffffffffffffffffff16600062030d4090856040518082805190602001908083835b602083101515610583578051825260208201915060208101905060208303925061055e565b6001836020036101000a038019825116818451168082178552505050505050905001915050600060405180830381858888f193505050503d80600081146105e6576040519150601f19603f3d011682016040523d82523d6000602084013e6105eb565b606091505b5091509150811515610665576040517f08c379a000000000000000000000000000000000000000000000000000000000815260040180806020018281038252601b8152602001807f5472616e7366657220746f6b656e206469646e277420776f726b2e000000000081525060200191505060405180910390fd5b60008151148061072057506020815114801561071f575060007f01000000000000000000000000000000000000000000000000000000000000000281601f8151811015156106af57fe5b9060200101517f010000000000000000000000000000000000000000000000000000000000000090047f0100000000000000000000000000000000000000000000000000000000000000027effffffffffffffffffffffffffffffffffffffffffffffffffffffffffffff191614155b5b1515610794576040517f08c379a000000000000000000000000000000000000000000000000000000000815260040180806020018281038252601b8152602001807f5472616e7366657220746f6b656e2072657475726e20747275652e000000000081525060200191505060405180910390fd5b5050505050565b6107a3611e17565b15156107ae57600080fd5b6107b8828261289e565b5050565b6107c4611e17565b15156107cf57600080fd5b6107d881612ddf565b50565b6107e481612ddf565b803073ffffffffffffffffffffffffffffffffffffffff163110151515610899576040517f08c379a00000000000000000000000000000000000000000000000000000000081526004018080602001828103825260248152602001807f627579696e672066726f6d20756e69737761702074616b6573207265616c204581526020017f746865720000000000000000000000000000000000000000000000000000000081525060400191505060405180910390fd5b6000600260009054906101000a900473ffffffffffffffffffffffffffffffffffffffff1673ffffffffffffffffffffffffffffffffffffffff16637bf1a6276040518163ffffffff167c0100000000000000000000000000000000000000000000000000000000028152600401602060405180830381600087803b15801561092157600080fd5b505af1158015610935573d6000803e3d6000fd5b505050506040513d602081101561094b57600080fd5b810190808051906020019092919050505090506000600260009054906101000a900473ffffffffffffffffffffffffffffffffffffffff1673ffffffffffffffffffffffffffffffffffffffff166314584a9d85846040518363ffffffff167c0100000000000000000000000000000000000000000000000000000000028152600401808373ffffffffffffffffffffffffffffffffffffffff1673ffffffffffffffffffffffffffffffffffffffff1681526020018273ffffffffffffffffffffffffffffffffffffffff1673ffffffffffffffffffffffffffffffffffffffff16815260200192505050602060405180830381600087803b158015610a5157600080fd5b505af1158015610a65573d6000803e3d6000fd5b505050506040513d6020811015610a7b57600080fd5b810190808051906020019092919050505090506000600160009054906101000a900473ffffffffffffffffffffffffffffffffffffffff1673ffffffffffffffffffffffffffffffffffffffff166306f2bf62866040518263ffffffff167c0100000000000000000000000000000000000000000000000000000000028152600401808273ffffffffffffffffffffffffffffffffffffffff1673ffffffffffffffffffffffffffffffffffffffff16815260200191505060206040518083038186803b158015610b4b57600080fd5b505afa158015610b5f573d6000803e3d6000fd5b505050506040513d6020811015610b7557600080fd5b810190808051906020019092919050505073ffffffffffffffffffffffffffffffffffffffff1663f39b5b9b856000426040518463ffffffff167c010000000000000000000000000000000000000000000000000000000002815260040180838152602001828152602001925050506020604051808303818588803b158015610bfd57600080fd5b505af1158015610c11573d6000803e3d6000fd5b50505050506040513d6020811015610c2857600080fd5b81019080805190602001909291905050509050610c45858261289e565b600260009054906101000a900473ffffffffffffffffffffffffffffffffffffffff1673ffffffffffffffffffffffffffffffffffffffff16635e7f22c28487857fffffffffffffffffffffffffffffffffffffffffffffffffffffffffffffffff6040518563ffffffff167c0100000000000000000000000000000000000000000000000000000000028152600401808573ffffffffffffffffffffffffffffffffffffffff1673ffffffffffffffffffffffffffffffffffffffff1681526020018473ffffffffffffffffffffffffffffffffffffffff1673ffffffffffffffffffffffffffffffffffffffff168152602001838152602001828152602001945050505050602060405180830381600087803b158015610d6657600080fd5b505af1158015610d7a573d6000803e3d6000fd5b505050506040513d6020811015610d9057600080fd5b810190808051906020019092919050505050600080600260009054906101000a900473ffffffffffffffffffffffffffffffffffffffff1673ffffffffffffffffffffffffffffffffffffffff1663b0293850868930886040518563ffffffff167c0100000000000000000000000000000000000000000000000000000000028152600401808573ffffffffffffffffffffffffffffffffffffffff1673ffffffffffffffffffffffffffffffffffffffff1681526020018473ffffffffffffffffffffffffffffffffffffffff1673ffffffffffffffffffffffffffffffffffffffff1681526020018373ffffffffffffffffffffffffffffffffffffffff1673ffffffffffffffffffffffffffffffffffffffff1681526020018281526020019450505050506040805180830381600087803b158015610ed157600080fd5b505af1158015610ee5573d6000803e3d6000fd5b505050506040513d6040811015610efb57600080fd5b81019080805190602001909291908051906020019092919050505091509150858210151515610f92576040517f08c379a00000000000000000000000000000000000000000000000000000000081526004018080602001828103825260098152602001807f6e6f2070726f666974000000000000000000000000000000000000000000000081525060200191505060405180910390fd5b50505050505050565b610fa3611e17565b1515610fae57600080fd5b600073ffffffffffffffffffffffffffffffffffffffff166000809054906101000a900473ffffffffffffffffffffffffffffffffffffffff1673ffffffffffffffffffffffffffffffffffffffff167f8be0079c531659141344cd1fd0a4f28419497f9722a3daafe3b4186f6b6457e060405160405180910390a360008060006101000a81548173ffffffffffffffffffffffffffffffffffffffff021916908373ffffffffffffffffffffffffffffffffffffffff160217905550565b611075611e17565b151561108057600080fd5b611088611dee565b73ffffffffffffffffffffffffffffffffffffffff166108fc600083146110af57826110c8565b3073ffffffffffffffffffffffffffffffffffffffff16315b9081150290604051600060405180830381858888f193505050501580156110f3573d6000803e3d6000fd5b5050565b6110ff611e17565b151561110a57600080fd5b61111381612ddf565b61111b611dee565b73ffffffffffffffffffffffffffffffffffffffff166108fc829081150290604051600060405180830381858888f19350505050158015611160573d6000803e3d6000fd5b5050565b6000600260009054906101000a900473ffffffffffffffffffffffffffffffffffffffff1673ffffffffffffffffffffffffffffffffffffffff16637bf1a6276040518163ffffffff167c0100000000000000000000000000000000000000000000000000000000028152600401602060405180830381600087803b1580156111ec57600080fd5b505af1158015611200573d6000803e3d6000fd5b505050506040513d602081101561121657600080fd5b810190808051906020019092919050505090506000600160009054906101000a900473ffffffffffffffffffffffffffffffffffffffff1673ffffffffffffffffffffffffffffffffffffffff166306f2bf62856040518263ffffffff167c0100000000000000000000000000000000000000000000000000000000028152600401808273ffffffffffffffffffffffffffffffffffffffff1673ffffffffffffffffffffffffffffffffffffffff16815260200191505060206040518083038186803b1580156112e657600080fd5b505afa1580156112fa573d6000803e3d6000fd5b505050506040513d602081101561131057600080fd5b810190808051906020019092919050505090506000600260009054906101000a900473ffffffffffffffffffffffffffffffffffffffff1673ffffffffffffffffffffffffffffffffffffffff166314584a9d86856040518363ffffffff167c0100000000000000000000000000000000000000000000000000000000028152600401808373ffffffffffffffffffffffffffffffffffffffff1673ffffffffffffffffffffffffffffffffffffffff1681526020018273ffffffffffffffffffffffffffffffffffffffff1673ffffffffffffffffffffffffffffffffffffffff16815260200192505050602060405180830381600087803b15801561141657600080fd5b505af115801561142a573d6000803e3d6000fd5b505050506040513d602081101561144057600080fd5b81019080805190602001909291905050509050600260009054906101000a900473ffffffffffffffffffffffffffffffffffffffff1673ffffffffffffffffffffffffffffffffffffffff16635e7f22c2868584886040518563ffffffff167c0100000000000000000000000000000000000000000000000000000000028152600401808573ffffffffffffffffffffffffffffffffffffffff1673ffffffffffffffffffffffffffffffffffffffff1681526020018473ffffffffffffffffffffffffffffffffffffffff1673ffffffffffffffffffffffffffffffffffffffff168152602001838152602001828152602001945050505050602060405180830381600087803b15801561155457600080fd5b505af1158015611568573d6000803e3d6000fd5b505050506040513d602081101561157e57600080fd5b810190808051906020019092919050505050606060016040519080825280602002602001820160405280156115c25781602001602082028038833980820191505090505b509050858160008151811015156115d557fe5b9060200190602002019073ffffffffffffffffffffffffffffffffffffffff16908173ffffffffffffffffffffffffffffffffffffffff1681525050606060016040519080825280602002602001820160405280156116435781602001602082028038833980820191505090505b5090508481600081518110151561165657fe5b9060200190602002019073ffffffffffffffffffffffffffffffffffffffff16908173ffffffffffffffffffffffffffffffffffffffff1681525050606060016040519080825280602002602001820160405280156116c45781602001602082028038833980820191505090505b509050838160008151811015156116d757fe5b906020019060200201818152505060606000600260009054906101000a900473ffffffffffffffffffffffffffffffffffffffff1673ffffffffffffffffffffffffffffffffffffffff16630c57cfba8686866040518463ffffffff167c010000000000000000000000000000000000000000000000000000000002815260040180806020018060200180602001848103845287818151815260200191508051906020019060200280838360005b838110156117a0578082015181840152602081019050611785565b50505050905001848103835286818151815260200191508051906020019060200280838360005b838110156117e25780820151818401526020810190506117c7565b50505050905001848103825285818151815260200191508051906020019060200280838360005b83811015611824578082015181840152602081019050611809565b50505050905001965050505050505060006040518083038186803b15801561184b57600080fd5b505afa15801561185f573d6000803e3d6000fd5b505050506040513d6000823e3d601f19601f82011682018060405250604081101561188957600080fd5b8101908080516401000000008111156118a157600080fd5b828101905060208101848111156118b757600080fd5b81518560208202830111640100000000821117156118d457600080fd5b505092919060200180519060200190929190505050915091506060877fffffffffffffffffffffffffffffffffffffffffffffffffffffffffffffffff604051602401808373ffffffffffffffffffffffffffffffffffffffff1673ffffffffffffffffffffffffffffffffffffffff168152602001828152602001925050506040516020818303038152906040527f095ea7b3000000000000000000000000000000000000000000000000000000007bffffffffffffffffffffffffffffffffffffffffffffffffffffffff19166020820180517bffffffffffffffffffffffffffffffffffffffffffffffffffffffff83818316178352505050509050600060608c73ffffffffffffffffffffffffffffffffffffffff16600062030d4090856040518082805190602001908083835b602083101515611a2b5780518252602082019150602081019050602083039250611a06565b6001836020036101000a038019825116818451168082178552505050505050905001915050600060405180830381858888f193505050503d8060008114611a8e576040519150601f19603f3d011682016040523d82523d6000602084013e611a93565b606091505b5091509150811515611b33576040517f08c379a00000000000000000000000000000000000000000000000000000000081526004018080602001828103825260398152602001807f417070726f766520617262546f6b656e20746f206265207472616e736665727281526020017f656420627920556e6973776170206469646e277420776f726b0000000000000081525060400191505060405180910390fd5b600081511480611bee575060208151148015611bed575060007f01000000000000000000000000000000000000000000000000000000000000000281601f815181101515611b7d57fe5b9060200101517f010000000000000000000000000000000000000000000000000000000000000090047f0100000000000000000000000000000000000000000000000000000000000000027effffffffffffffffffffffffffffffffffffffffffffffffffffffffffffff191614155b5b1515611c88576040517f08c379a00000000000000000000000000000000000000000000000000000000081526004018080602001828103825260408152602001807f417070726f766520617262546f6b656e20746f206265207472616e736665727281526020017f656420627920556e6973776170206469646e27742072657475726e207472756581525060400191505060405180910390fd5b60008a73ffffffffffffffffffffffffffffffffffffffff166395e3c50b876000815181101515611cb557fe5b906020019060200201518f426040518463ffffffff167c0100000000000000000000000000000000000000000000000000000000028152600401808481526020018381526020018281526020019350505050602060405180830381600087803b158015611d2157600080fd5b505af1158015611d35573d6000803e3d6000fd5b505050506040513d6020811015611d4b57600080fd5b810190808051906020019092919050505090508c8110151515611dd6576040517f08c379a00000000000000000000000000000000000000000000000000000000081526004018080602001828103825260098152602001807f6e6f2070726f666974000000000000000000000000000000000000000000000081525060200191505060405180910390fd5b611dde611e6e565b5050505050505050505050505050565b60008060009054906101000a900473ffffffffffffffffffffffffffffffffffffffff16905090565b60008060009054906101000a900473ffffffffffffffffffffffffffffffffffffffff1673ffffffffffffffffffffffffffffffffffffffff163373ffffffffffffffffffffffffffffffffffffffff1614905090565b611e76611e17565b1515611e8157600080fd5b60003073ffffffffffffffffffffffffffffffffffffffff1631111515611f36576040517f08c379a00000000000000000000000000000000000000000000000000000000081526004018080602001828103825260298152602001807f42616c616e6365206d7573742062652067726561746572207468616e2030207481526020017f6f206465706f736974000000000000000000000000000000000000000000000081525060400191505060405180910390fd5b60003073ffffffffffffffffffffffffffffffffffffffff163190506000600260009054906101000a900473ffffffffffffffffffffffffffffffffffffffff1673ffffffffffffffffffffffffffffffffffffffff16637bf1a6276040518163ffffffff167c0100000000000000000000000000000000000000000000000000000000028152600401602060405180830381600087803b158015611fda57600080fd5b505af1158015611fee573d6000803e3d6000fd5b505050506040513d602081101561200457600080fd5b8101908080519060200190929190505050905060606040516024016040516020818303038152906040527fd0e30db0000000000000000000000000000000000000000000000000000000007bffffffffffffffffffffffffffffffffffffffffffffffffffffffff19166020820180517bffffffffffffffffffffffffffffffffffffffffffffffffffffffff83818316178352505050509050600060608373ffffffffffffffffffffffffffffffffffffffff168562030d4090856040518082805190602001908083835b6020831015156120f557805182526020820191506020810190506020830392506120d0565b6001836020036101000a038019825116818451168082178552505050505050905001915050600060405180830381858888f193505050503d8060008114612158576040519150601f19603f3d011682016040523d82523d6000602084013e61215d565b606091505b50915091508115156121fd576040517f08c379a00000000000000000000000000000000000000000000000000000000081526004018080602001828103825260258152602001807f436f6e76657274696e6720457468657220746f2057455448206469646e27742081526020017f776f726b2e00000000000000000000000000000000000000000000000000000081525060400191505060405180910390fd5b600260009054906101000a900473ffffffffffffffffffffffffffffffffffffffff167fffffffffffffffffffffffffffffffffffffffffffffffffffffffffffffffff604051602401808373ffffffffffffffffffffffffffffffffffffffff1673ffffffffffffffffffffffffffffffffffffffff168152602001828152602001925050506040516020818303038152906040527f095ea7b3000000000000000000000000000000000000000000000000000000007bffffffffffffffffffffffffffffffffffffffffffffffffffffffff19166020820180517bffffffffffffffffffffffffffffffffffffffffffffffffffffffff838183161783525050505092508373ffffffffffffffffffffffffffffffffffffffff16600062030d4090856040518082805190602001908083835b6020831015156123575780518252602082019150602081019050602083039250612332565b6001836020036101000a038019825116818451168082178552505050505050905001915050600060405180830381858888f193505050503d80600081146123ba576040519150601f19603f3d011682016040523d82523d6000602084013e6123bf565b606091505b508092508193505050811515612463576040517f08c379a00000000000000000000000000000000000000000000000000000000081526004018080602001828103825260358152602001807f417070726f7665205745544820746f206265207472616e73666572726564206281526020017f7920447574636858206469646e277420776f726b2e000000000000000000000081525060400191505060405180910390fd5b60008151148061251e57506020815114801561251d575060007f01000000000000000000000000000000000000000000000000000000000000000281601f8151811015156124ad57fe5b9060200101517f010000000000000000000000000000000000000000000000000000000000000090047f0100000000000000000000000000000000000000000000000000000000000000027effffffffffffffffffffffffffffffffffffffffffffffffffffffffffffff191614155b5b15156125b8576040517f08c379a000000000000000000000000000000000000000000000000000000000815260040180806020018281038252603c8152602001807f417070726f7665205745544820746f206265207472616e73666572726564206281526020017f7920447574636858206469646e27742072657475726e20747275652e0000000081525060400191505060405180910390fd5b6000600260009054906101000a900473ffffffffffffffffffffffffffffffffffffffff1673ffffffffffffffffffffffffffffffffffffffff166347e7ef2486886040518363ffffffff167c0100000000000000000000000000000000000000000000000000000000028152600401808373ffffffffffffffffffffffffffffffffffffffff1673ffffffffffffffffffffffffffffffffffffffff16815260200182815260200192505050602060405180830381600087803b15801561267f57600080fd5b505af1158015612693573d6000803e3d6000fd5b505050506040513d60208110156126a957600080fd5b8101908080519060200190929190505050905085811015151561275a576040517f08c379a00000000000000000000000000000000000000000000000000000000081526004018080602001828103825260238152602001807f4465706f736974205745544820746f20447574636858206469646e277420776f81526020017f726b2e000000000000000000000000000000000000000000000000000000000081525060400191505060405180910390fd5b505050505050565b600061276c611e17565b151561277757600080fd5b600260009054906101000a900473ffffffffffffffffffffffffffffffffffffffff1673ffffffffffffffffffffffffffffffffffffffff1663f3fef3a384846040518363ffffffff167c0100000000000000000000000000000000000000000000000000000000028152600401808373ffffffffffffffffffffffffffffffffffffffff1673ffffffffffffffffffffffffffffffffffffffff16815260200182815260200192505050602060405180830381600087803b15801561283c57600080fd5b505af1158015612850573d6000803e3d6000fd5b505050506040513d602081101561286657600080fd5b8101908080519060200190929190505050905092915050565b612887611e17565b151561289257600080fd5b61289b8161319e565b50565b6060600260009054906101000a900473ffffffffffffffffffffffffffffffffffffffff167fffffffffffffffffffffffffffffffffffffffffffffffffffffffffffffffff604051602401808373ffffffffffffffffffffffffffffffffffffffff1673ffffffffffffffffffffffffffffffffffffffff168152602001828152602001925050506040516020818303038152906040527f095ea7b3000000000000000000000000000000000000000000000000000000007bffffffffffffffffffffffffffffffffffffffffffffffffffffffff19166020820180517bffffffffffffffffffffffffffffffffffffffffffffffffffffffff83818316178352505050509050600060608473ffffffffffffffffffffffffffffffffffffffff16600062030d4090856040518082805190602001908083835b6020831015156129fe57805182526020820191506020810190506020830392506129d9565b6001836020036101000a038019825116818451168082178552505050505050905001915050600060405180830381858888f193505050503d8060008114612a61576040519150601f19603f3d011682016040523d82523d6000602084013e612a66565b606091505b5091509150811515612b06576040517f08c379a00000000000000000000000000000000000000000000000000000000081526004018080602001828103825260368152602001807f417070726f766520746f6b656e20746f206265207472616e736665727265642081526020017f627920447574636858206469646e277420776f726b2e0000000000000000000081525060400191505060405180910390fd5b600081511480612bc1575060208151148015612bc0575060007f01000000000000000000000000000000000000000000000000000000000000000281601f815181101515612b5057fe5b9060200101517f010000000000000000000000000000000000000000000000000000000000000090047f0100000000000000000000000000000000000000000000000000000000000000027effffffffffffffffffffffffffffffffffffffffffffffffffffffffffffff191614155b5b1515612c5b576040517f08c379a000000000000000000000000000000000000000000000000000000000815260040180806020018281038252603d8152602001807f417070726f766520746f6b656e20746f206265207472616e736665727265642081526020017f627920447574636858206469646e27742072657475726e20747275652e00000081525060400191505060405180910390fd5b6000600260009054906101000a900473ffffffffffffffffffffffffffffffffffffffff1673ffffffffffffffffffffffffffffffffffffffff166347e7ef2487876040518363ffffffff167c0100000000000000000000000000000000000000000000000000000000028152600401808373ffffffffffffffffffffffffffffffffffffffff1673ffffffffffffffffffffffffffffffffffffffff16815260200182815260200192505050602060405180830381600087803b158015612d2257600080fd5b505af1158015612d36573d6000803e3d6000fd5b505050506040513d6020811015612d4c57600080fd5b81019080805190602001909291905050509050848110151515612dd7576040517f08c379a00000000000000000000000000000000000000000000000000000000081526004018080602001828103825260138152602001807f6465706f736974206469646e277420776f726b0000000000000000000000000081525060200191505060405180910390fd5b505050505050565b6000600260009054906101000a900473ffffffffffffffffffffffffffffffffffffffff1673ffffffffffffffffffffffffffffffffffffffff16637bf1a6276040518163ffffffff167c0100000000000000000000000000000000000000000000000000000000028152600401602060405180830381600087803b158015612e6757600080fd5b505af1158015612e7b573d6000803e3d6000fd5b505050506040513d6020811015612e9157600080fd5b81019080805190602001909291905050509050600260009054906101000a900473ffffffffffffffffffffffffffffffffffffffff1673ffffffffffffffffffffffffffffffffffffffff1663f3fef3a382846040518363ffffffff167c0100000000000000000000000000000000000000000000000000000000028152600401808373ffffffffffffffffffffffffffffffffffffffff1673ffffffffffffffffffffffffffffffffffffffff16815260200182815260200192505050602060405180830381600087803b158015612f6957600080fd5b505af1158015612f7d573d6000803e3d6000fd5b505050506040513d6020811015612f9357600080fd5b810190808051906020019092919050505050606082604051602401808281526020019150506040516020818303038152906040527f2e1a7d4d000000000000000000000000000000000000000000000000000000007bffffffffffffffffffffffffffffffffffffffffffffffffffffffff19166020820180517bffffffffffffffffffffffffffffffffffffffffffffffffffffffff83818316178352505050509050600060608373ffffffffffffffffffffffffffffffffffffffff16600062030d4090856040518082805190602001908083835b60208310151561308f578051825260208201915060208101905060208303925061306a565b6001836020036101000a038019825116818451168082178552505050505050905001915050600060405180830381858888f193505050503d80600081146130f2576040519150601f19603f3d011682016040523d82523d6000602084013e6130f7565b606091505b5091509150811515613197576040517f08c379a00000000000000000000000000000000000000000000000000000000081526004018080602001828103825260288152602001807f5769746864726177206f662045746865722066726f6d2057455448206469646e81526020017f277420776f726b2e00000000000000000000000000000000000000000000000081525060400191505060405180910390fd5b5050505050565b600073ffffffffffffffffffffffffffffffffffffffff168173ffffffffffffffffffffffffffffffffffffffff16141515156131da57600080fd5b8073ffffffffffffffffffffffffffffffffffffffff166000809054906101000a900473ffffffffffffffffffffffffffffffffffffffff1673ffffffffffffffffffffffffffffffffffffffff167f8be0079c531659141344cd1fd0a4f28419497f9722a3daafe3b4186f6b6457e060405160405180910390a3806000806101000a81548173ffffffffffffffffffffffffffffffffffffffff021916908373ffffffffffffffffffffffffffffffffffffffff1602179055505056fea165627a7a723058200d108a15dc3574ed2c6d003d6342ca5dfcd9b47ba8b7650061eb806d76ca1eea0029",
  "source": "pragma solidity ^0.5.0;\n\nimport \"./IUniswapExchange.sol\";\nimport \"./IUniswapFactory.sol\";\nimport \"./IDutchExchange.sol\";\nimport \"../node_modules/openzeppelin-solidity/contracts/ownership/Ownable.sol\";\nimport \"../node_modules/@gnosis.pm/mock-contract/contracts/MockContract.sol\";\n\n/// @title Uniswap Arbitrage Module - Executes arbitrage transactions between Uniswap and DutchX.\n/// @author Billy Rennekamp - <billy@gnosis.pm>\ncontract Arbitrage is Ownable {\n    \n    uint constant max = uint(-1);\n\n    IUniswapFactory uniFactory;\n    IDutchExchange dutchXProxy;\n\n    /// @dev Constructor function sets initial storage of contract.\n    /// @param _uniFactory The uniswap factory deployed address.\n    /// @param _dutchXProxy The dutchX proxy deployed address.\n    constructor(IUniswapFactory _uniFactory, IDutchExchange _dutchXProxy) public {\n        uniFactory = _uniFactory;\n        dutchXProxy = _dutchXProxy;\n    }\n\n    /// @dev Payable fallback function has nothing inside so it won't run out of gas with gas limited transfers\n    function() external payable {}\n\n    /// @dev Only owner can deposit contract Ether into the DutchX as WETH\n    function depositEther() public payable onlyOwner {\n\n        require(address(this).balance > 0, \"Balance must be greater than 0 to deposit\");\n        uint balance = address(this).balance;\n\n        // Deposit balance to WETH\n        address weth = dutchXProxy.ethToken();\n        bytes memory payload = abi.encodeWithSignature(\"deposit()\");\n        // solium-disable-next-line security/no-call-value\n        (bool success, bytes memory returnData) = weth.call.value(balance).gas(200000)(payload);\n        require(success, \"Converting Ether to WETH didn't work.\");\n\n        // Approve max amount of WETH to be transferred by dutchX\n        // Keeping it max will have same or similar costs to making it exact over and over again\n        // 200000 was common gas amount added to similar transactions although typically used only ~30k50k\n        // success is not guaranteed by success boolean, returnData deemed unnecessary to decode\n        payload = abi.encodeWithSignature(\"approve(address,uint256)\", address(dutchXProxy), max);\n        // solium-disable-next-line security/no-call-value\n        (success, returnData) = weth.call.value(0).gas(200000)(payload);\n        require(success, \"Approve WETH to be transferred by DutchX didn't work.\");\n        require(returnData.length == 0 || (returnData.length == 32 && (returnData[31] != 0)), \"Approve WETH to be transferred by DutchX didn't return true.\");\n\n        // Deposit new amount on dutchX, confirm there's at least the amount we just deposited\n        uint newBalance = dutchXProxy.deposit(weth, balance);\n        require(newBalance >= balance, \"Deposit WETH to DutchX didn't work.\");\n    }\n\n    /// @dev Only owner can withdraw WETH from DutchX, convert to Ether and transfer to owner\n    /// @param amount The amount of Ether to withdraw\n    function withdrawEtherThenTransfer(uint amount) public onlyOwner {\n        _withdrawEther(amount);\n        address(uint160(owner())).transfer(amount);\n    }\n\n    /// @dev Only owner can transfer any Ether currently in the contract to the owner address.\n    /// @param amount The amount of Ether to withdraw\n    function transferEther(uint amount) public onlyOwner {\n        // If amount is zero, deposit the entire contract balance.\n        address(uint160(owner())).transfer(amount == 0 ? address(this).balance : amount);\n    }\n\n    \n    /// @dev Only owner function to withdraw WETH from the DutchX, convert it to Ether and keep it in contract\n    /// @param amount The amount of WETH to withdraw and convert.\n    function withdrawEther(uint amount) public onlyOwner {\n        _withdrawEther(amount);\n    }\n\n    /// @dev Internal function to withdraw WETH from the DutchX, convert it to Ether and keep it in contract\n    /// @param amount The amount of WETH to withdraw and convert.\n    function _withdrawEther(uint amount) internal {\n\n        address weth = dutchXProxy.ethToken();\n        dutchXProxy.withdraw(weth, amount);\n\n        // 200000 was common gas amount added to similar transactions although typically used only ~30k50k\n        // success is not guaranteed by success boolean, returnData deemed unnecessary to decode\n        bytes memory payload = abi.encodeWithSignature(\"withdraw(uint256)\", amount);\n        // solium-disable-next-line security/no-call-value\n        (bool success, bytes memory returnData) = weth.call.value(0).gas(200000)(payload);\n        require(success, \"Withdraw of Ether from WETH didn't work.\");\n    }\n\n    /// @dev Only owner can withdraw a token from the DutchX\n    /// @param token The token address that is being withdrawn.\n    /// @param amount The amount of token to withdraw. Can be larger than available balance and maximum will be withdrawn.\n    /// @return Returns the amount actually withdrawn from the DutchX\n    function withdrawToken(address token, uint amount) public onlyOwner returns (uint) {\n        return dutchXProxy.withdraw(token, amount);\n    }\n\n    /// @dev Only owner can transfer tokens to the owner that belong to this contract\n    /// @param token The token address that is being transferred.\n    /// @param amount The amount of token to transfer.\n    function transferToken(address token, uint amount) public onlyOwner {\n\n        // 200000 was common gas amount added to similar transactions although typically used only ~30k50k\n        // success is not guaranteed by success boolean, returnData deemed unnecessary to decode\n        bytes memory payload = abi.encodeWithSignature(\"transfer(address,uint256)\", owner(), amount);\n        // solium-disable-next-line security/no-call-value\n        (bool success, bytes memory returnData) = token.call.value(0).gas(200000)(payload);\n        require(success, \"Transfer token didn't work.\");\n        require(returnData.length == 0 || (returnData.length == 32 && (returnData[31] != 0)), \"Transfer token return true.\");\n    }\n\n    /// @dev Only owner can deposit token to the DutchX\n    /// @param token The token address that is being deposited.\n    /// @param amount The amount of token to deposit.\n    function depositToken(address token, uint amount) public onlyOwner {\n        _depositToken(token, amount);\n    }\n\n    /// @dev Internal function to deposit token to the DutchX\n    /// @param token The token address that is being deposited.\n    /// @param amount The amount of token to deposit.\n    function _depositToken(address token, uint amount) internal {\n\n        // 200000 was common gas amount added to similar transactions although typically used only ~30k50k\n        // success is not guaranteed by success boolean, returnData deemed unnecessary to decode\n        bytes memory payload = abi.encodeWithSignature(\"approve(address,uint256)\", address(dutchXProxy), max);\n        // solium-disable-next-line security/no-call-value\n        (bool success, bytes memory returnData) = token.call.value(0).gas(200000)(payload);\n        require(success, \"Approve token to be transferred by DutchX didn't work.\");\n        require(returnData.length == 0 || (returnData.length == 32 && (returnData[31] != 0)), \"Approve token to be transferred by DutchX didn't return true.\");\n\n        // Confirm that the balance of the token on the DutchX is at least how much was deposited\n        uint newBalance = dutchXProxy.deposit(token, amount);\n        require(newBalance >= amount, \"deposit didn't work\");\n    }\n\n    /// @dev Executes a trade opportunity on dutchX. Assumes that there is a balance of WETH already on the dutchX \n    /// @param arbToken Address of the token that should be arbitraged.\n    /// @param amount Amount of Ether to use in arbitrage.\n    /// @return Returns if transaction can be executed.\n    function dutchOpportunity(address arbToken, uint256 amount) public {\n\n        address etherToken = dutchXProxy.ethToken();\n\n        address uniswapExchange = uniFactory.getExchange(arbToken);\n\n        // The order of parameters for getAuctionIndex don't matter\n        uint256 dutchAuctionIndex = dutchXProxy.getAuctionIndex(arbToken, etherToken);\n\n        // postBuyOrder(sellToken, buyToken, amount)\n        // results in a decrease of the amount the user owns of the second token\n        // which means the buyToken is what the buyer wants to get rid of.\n        // \"The buy token is what the buyer provides, the seller token is what the seller provides.\"\n        dutchXProxy.postBuyOrder(arbToken, etherToken, dutchAuctionIndex, amount);\n\n        // claimAndWithdrawTokensFromSeveralAuctionsAsBuyers(sellTokens, buyTokens, indexes)\n        // This function combines the claimBuyerFunds with the withdraw function.\n        // Thought it would be cheaper than using both, but with requirements of so many var declarations it might not be...\n\n        address[] memory arbTokenArray = new address[](1);\n        arbTokenArray[0] = arbToken;\n        address[] memory etherTokenArray = new address[](1);\n        etherTokenArray[0] = etherToken;\n        uint[] memory indexArray = new uint[](1);\n        indexArray[0] = dutchAuctionIndex;\n\n        // solium-disable-next-line no-unused-vars\n        (uint[] memory tokensBought, uint256 magnolia) = dutchXProxy.claimAndWithdrawTokensFromSeveralAuctionsAsBuyer(arbTokenArray, etherTokenArray, indexArray);\n\n        // Approve Uniswap to transfer arbToken on user's behalf\n        // Keeping it max will have same or similar costs to making it exact over and over again\n        // 200000 was common gas amount added to similar transactions although typically used only ~30k50k\n        // success is not guaranteed by success boolean, returnData deemed unnecessary to decode\n        bytes memory payload = abi.encodeWithSignature(\"approve(address,uint256)\", address(uniswapExchange), max);\n        // solium-disable-next-line security/no-call-value\n        (bool success, bytes memory returnData) = arbToken.call.value(0).gas(200000)(payload);\n        require(success, \"Approve arbToken to be transferred by Uniswap didn't work\");\n        require(returnData.length == 0 || (returnData.length == 32 && (returnData[31] != 0)), \"Approve arbToken to be transferred by Uniswap didn't return true\");\n\n        // tokenToEthSwapInput(inputToken, minimumReturn, timeToLive)\n        // minimumReturn is enough to make a profit (excluding gas)\n        // timeToLive is now because transaction is atomic\n        uint256 etherReturned = IUniswapExchange(uniswapExchange).tokenToEthSwapInput(tokensBought[0], amount, block.timestamp);\n\n        // gas costs were excluded because worse case scenario the tx fails and gas costs were spent up to here anyway\n        // best worst case scenario the profit from the trade alleviates part of the gas costs even if still no total profit\n        require(etherReturned >= amount, \"no profit\");\n\n        // Ether is deposited as WETH\n        depositEther();\n    }\n\n    /// @dev Executes a trade opportunity on uniswap.\n    /// @param arbToken Address of the token that should be arbitraged.\n    /// @param amount Amount of Ether to use in arbitrage.\n    /// @return Returns if transaction can be executed.\n    function uniswapOpportunity(address arbToken, uint256 amount) public {\n\n        // WETH must be converted to Eth for Uniswap trade\n        // (Uniswap allows ERC20:ERC20 but most liquidity is on ETH:ERC20 markets)\n        _withdrawEther(amount);\n        require(address(this).balance >= amount, \"buying from uniswap takes real Ether\");\n\n        address etherToken = dutchXProxy.ethToken();\n        \n        // The order of parameters for getAuctionIndex don't matter\n        uint256 dutchAuctionIndex = dutchXProxy.getAuctionIndex(arbToken, etherToken);\n\n        // ethToTokenSwapInput(minTokens, deadline)\n        // minTokens is 0 because it will revert without a profit regardless\n        // deadline is now since trade is atomic\n        // solium-disable-next-line security/no-block-members\n        uint256 tokensBought = IUniswapExchange(uniFactory.getExchange(arbToken)).ethToTokenSwapInput.value(amount)(0, block.timestamp);\n        \n        // tokens need to be approved for the dutchX before they are deposited\n        _depositToken(arbToken, tokensBought);\n\n        // spend max amount of tokens currently on the dutch x (might be combined from previous remainders)\n        // max is automatically reduced to maximum available tokens because there may be\n        // token remainders from previous auctions which closed after previous arbitrage opportunities\n        dutchXProxy.postBuyOrder(etherToken, arbToken, dutchAuctionIndex, max);\n        // solium-disable-next-line no-unused-vars\n        (uint etherReturned, uint frtsIssued) = dutchXProxy.claimBuyerFunds(etherToken, arbToken, address(this), dutchAuctionIndex);\n        \n        // gas costs were excluded because worse case scenario the tx fails and gas costs were spent up to here anyway\n        // best worst case scenario the profit from the trade alleviates part of the gas costs even if still no total profit\n        require(etherReturned >= amount, \"no profit\");\n\n        // Ether returned is already in dutchX balance where Ether is assumed to be stored when not being used.\n    }\n    \n}",
  "sourcePath": "/Users/billy/gnosis/arbitrage/contracts/Arbitrage.sol",
  "compiler": {
    "name": "solc",
    "version": "0.5.0+commit.1d4f565a.Emscripten.clang"
  },
  "schemaVersion": "3.0.1",
  "updatedAt": "2019-02-07T19:55:48.318Z",
  "devdoc": {
    "author": "Billy Rennekamp - <billy@gnosis.pm>",
    "methods": {
      "constructor": {
        "details": "Constructor function sets initial storage of contract.",
        "params": {
          "_dutchXProxy": "The dutchX proxy deployed address.",
          "_uniFactory": "The uniswap factory deployed address."
        }
      },
      "depositEther()": {
        "details": "Only owner can deposit contract Ether into the DutchX as WETH"
      },
      "depositToken(address,uint256)": {
        "details": "Only owner can deposit token to the DutchX",
        "params": {
          "amount": "The amount of token to deposit.",
          "token": "The token address that is being deposited."
        }
      },
      "dutchOpportunity(address,uint256)": {
        "details": "Executes a trade opportunity on dutchX. Assumes that there is a balance of WETH already on the dutchX ",
        "params": {
          "amount": "Amount of Ether to use in arbitrage.",
          "arbToken": "Address of the token that should be arbitraged."
        },
        "return": "Returns if transaction can be executed."
      },
      "isOwner()": {
        "return": "true if `msg.sender` is the owner of the contract."
      },
      "owner()": {
        "return": "the address of the owner."
      },
      "renounceOwnership()": {
        "details": "Allows the current owner to relinquish control of the contract."
      },
      "transferEther(uint256)": {
        "details": "Only owner can transfer any Ether currently in the contract to the owner address.",
        "params": {
          "amount": "The amount of Ether to withdraw"
        }
      },
      "transferOwnership(address)": {
        "details": "Allows the current owner to transfer control of the contract to a newOwner.",
        "params": {
          "newOwner": "The address to transfer ownership to."
        }
      },
      "transferToken(address,uint256)": {
        "details": "Only owner can transfer tokens to the owner that belong to this contract",
        "params": {
          "amount": "The amount of token to transfer.",
          "token": "The token address that is being transferred."
        }
      },
      "uniswapOpportunity(address,uint256)": {
        "details": "Executes a trade opportunity on uniswap.",
        "params": {
          "amount": "Amount of Ether to use in arbitrage.",
          "arbToken": "Address of the token that should be arbitraged."
        },
        "return": "Returns if transaction can be executed."
      },
      "withdrawEther(uint256)": {
        "details": "Only owner function to withdraw WETH from the DutchX, convert it to Ether and keep it in contract",
        "params": {
          "amount": "The amount of WETH to withdraw and convert."
        }
      },
      "withdrawEtherThenTransfer(uint256)": {
        "details": "Only owner can withdraw WETH from DutchX, convert to Ether and transfer to owner",
        "params": {
          "amount": "The amount of Ether to withdraw"
        }
      },
      "withdrawToken(address,uint256)": {
        "details": "Only owner can withdraw a token from the DutchX",
        "params": {
          "amount": "The amount of token to withdraw. Can be larger than available balance and maximum will be withdrawn.",
          "token": "The token address that is being withdrawn."
        },
        "return": "Returns the amount actually withdrawn from the DutchX"
      }
    },
    "title": "Uniswap Arbitrage Module - Executes arbitrage transactions between Uniswap and DutchX."
  },
  "userdoc": {
    "methods": {
      "renounceOwnership()": {
        "notice": "Renouncing to ownership will leave the contract without an owner. It will not be possible to call the functions with the `onlyOwner` modifier anymore."
      }
    }
  }
}