{
  "contractName": "ArbitrageLocal",
  "abi": [
    {
      "constant": false,
      "inputs": [
        {
          "name": "token",
          "type": "address"
        },
        {
          "name": "amount",
          "type": "uint256"
        }
      ],
      "name": "transferToken",
      "outputs": [],
      "payable": false,
      "stateMutability": "nonpayable",
      "type": "function"
    },
    {
      "constant": false,
      "inputs": [
        {
          "name": "token",
          "type": "address"
        },
        {
          "name": "amount",
          "type": "uint256"
        }
      ],
      "name": "depositToken",
      "outputs": [],
      "payable": false,
      "stateMutability": "nonpayable",
      "type": "function"
    },
    {
      "constant": false,
      "inputs": [
        {
          "name": "amount",
          "type": "uint256"
        }
      ],
      "name": "withdrawEther",
      "outputs": [],
      "payable": false,
      "stateMutability": "nonpayable",
      "type": "function"
    },
    {
      "constant": false,
      "inputs": [
        {
          "name": "arbToken",
          "type": "address"
        },
        {
          "name": "amount",
          "type": "uint256"
        }
      ],
      "name": "uniswapOpportunity",
      "outputs": [],
      "payable": false,
      "stateMutability": "nonpayable",
      "type": "function"
    },
    {
      "constant": false,
      "inputs": [],
      "name": "renounceOwnership",
      "outputs": [],
      "payable": false,
      "stateMutability": "nonpayable",
      "type": "function"
    },
    {
      "constant": false,
      "inputs": [
        {
          "name": "amount",
          "type": "uint256"
        }
      ],
      "name": "transferEther",
      "outputs": [],
      "payable": false,
      "stateMutability": "nonpayable",
      "type": "function"
    },
    {
      "constant": true,
      "inputs": [],
      "name": "uniFactory",
      "outputs": [
        {
          "name": "",
          "type": "address"
        }
      ],
      "payable": false,
      "stateMutability": "view",
      "type": "function"
    },
    {
      "constant": false,
      "inputs": [
        {
          "name": "amount",
          "type": "uint256"
        }
      ],
      "name": "withdrawEtherThenTransfer",
      "outputs": [],
      "payable": false,
      "stateMutability": "nonpayable",
      "type": "function"
    },
    {
      "constant": false,
      "inputs": [
        {
          "name": "arbToken",
          "type": "address"
        },
        {
          "name": "amount",
          "type": "uint256"
        }
      ],
      "name": "dutchOpportunity",
      "outputs": [],
      "payable": false,
      "stateMutability": "nonpayable",
      "type": "function"
    },
    {
      "constant": true,
      "inputs": [],
      "name": "owner",
      "outputs": [
        {
          "name": "",
          "type": "address"
        }
      ],
      "payable": false,
      "stateMutability": "view",
      "type": "function"
    },
    {
      "constant": true,
      "inputs": [],
      "name": "isOwner",
      "outputs": [
        {
          "name": "",
          "type": "bool"
        }
      ],
      "payable": false,
      "stateMutability": "view",
      "type": "function"
    },
    {
      "constant": false,
      "inputs": [],
      "name": "depositEther",
      "outputs": [],
      "payable": true,
      "stateMutability": "payable",
      "type": "function"
    },
    {
      "constant": false,
      "inputs": [
        {
          "name": "token",
          "type": "address"
        },
        {
          "name": "amount",
          "type": "uint256"
        }
      ],
      "name": "withdrawToken",
      "outputs": [
        {
          "name": "",
          "type": "uint256"
        }
      ],
      "payable": false,
      "stateMutability": "nonpayable",
      "type": "function"
    },
    {
      "constant": false,
      "inputs": [
        {
          "name": "newOwner",
          "type": "address"
        }
      ],
      "name": "transferOwnership",
      "outputs": [],
      "payable": false,
      "stateMutability": "nonpayable",
      "type": "function"
    },
    {
      "constant": false,
      "inputs": [
        {
          "name": "token",
          "type": "address"
        },
        {
          "name": "dutchAuctionIndex",
          "type": "uint256"
        }
      ],
      "name": "claimBuyerFunds",
      "outputs": [
        {
          "name": "",
          "type": "uint256"
        }
      ],
      "payable": false,
      "stateMutability": "nonpayable",
      "type": "function"
    },
    {
      "constant": true,
      "inputs": [],
      "name": "dutchXProxy",
      "outputs": [
        {
          "name": "",
          "type": "address"
        }
      ],
      "payable": false,
      "stateMutability": "view",
      "type": "function"
    },
    {
      "inputs": [
        {
          "name": "_uniFactory",
          "type": "address"
        },
        {
          "name": "_dutchXProxy",
          "type": "address"
        }
      ],
      "payable": false,
      "stateMutability": "nonpayable",
      "type": "constructor"
    },
    {
      "payable": true,
      "stateMutability": "payable",
      "type": "fallback"
    },
    {
      "anonymous": false,
      "inputs": [
        {
          "indexed": false,
          "name": "profit",
          "type": "uint256"
        },
        {
          "indexed": false,
          "name": "wasDutchOpportunity",
          "type": "bool"
        }
      ],
      "name": "Profit",
      "type": "event"
    },
    {
      "anonymous": false,
      "inputs": [
        {
          "indexed": true,
          "name": "previousOwner",
          "type": "address"
        },
        {
          "indexed": true,
          "name": "newOwner",
          "type": "address"
        }
      ],
      "name": "OwnershipTransferred",
      "type": "event"
    }
  ],
  "bytecode": "0x608060405234801561001057600080fd5b50604051604080613b9f8339810180604052604081101561003057600080fd5b810190808051906020019092919080519060200190929190505050336000806101000a81548173ffffffffffffffffffffffffffffffffffffffff021916908373ffffffffffffffffffffffffffffffffffffffff1602179055506000809054906101000a900473ffffffffffffffffffffffffffffffffffffffff1673ffffffffffffffffffffffffffffffffffffffff16600073ffffffffffffffffffffffffffffffffffffffff167f8be0079c531659141344cd1fd0a4f28419497f9722a3daafe3b4186f6b6457e060405160405180910390a381600160006101000a81548173ffffffffffffffffffffffffffffffffffffffff021916908373ffffffffffffffffffffffffffffffffffffffff16021790555080600260006101000a81548173ffffffffffffffffffffffffffffffffffffffff021916908373ffffffffffffffffffffffffffffffffffffffff1602179055505050613a058061019a6000396000f3fe608060405260043610610110576000357c01000000000000000000000000000000000000000000000000000000009004806389d12768116100a75780639e281a98116100765780639e281a981461042d578063f2fde38b1461049c578063fb350349146104ed578063ff0bd58b1461055c57610110565b806389d12768146103425780638da5cb5b1461039d5780638f32d59b146103f457806398ea5fca1461042357610110565b8063715018a6116100e3578063715018a61461025e57806373ffd5b71461027557806376771d4b146102b05780637b2682a31461030757610110565b80631072cbea14610112578063338b5dea1461016d5780633bed33ce146101c857806368a88b1114610203575b005b34801561011e57600080fd5b5061016b6004803603604081101561013557600080fd5b81019080803573ffffffffffffffffffffffffffffffffffffffff169060200190929190803590602001909291905050506105b3565b005b34801561017957600080fd5b506101c66004803603604081101561019057600080fd5b81019080803573ffffffffffffffffffffffffffffffffffffffff16906020019092919080359060200190929190505050610903565b005b3480156101d457600080fd5b50610201600480360360208110156101eb57600080fd5b8101908080359060200190929190505050610924565b005b34801561020f57600080fd5b5061025c6004803603604081101561022657600080fd5b81019080803573ffffffffffffffffffffffffffffffffffffffff16906020019092919080359060200190929190505050610943565b005b34801561026a57600080fd5b50610273611112565b005b34801561028157600080fd5b506102ae6004803603602081101561029857600080fd5b81019080803590602001909291905050506111e4565b005b3480156102bc57600080fd5b506102c561126e565b604051808273ffffffffffffffffffffffffffffffffffffffff1673ffffffffffffffffffffffffffffffffffffffff16815260200191505060405180910390f35b34801561031357600080fd5b506103406004803603602081101561032a57600080fd5b8101908080359060200190929190505050611294565b005b34801561034e57600080fd5b5061039b6004803603604081101561036557600080fd5b81019080803573ffffffffffffffffffffffffffffffffffffffff16906020019092919080359060200190929190505050611301565b005b3480156103a957600080fd5b506103b2611f6f565b604051808273ffffffffffffffffffffffffffffffffffffffff1673ffffffffffffffffffffffffffffffffffffffff16815260200191505060405180910390f35b34801561040057600080fd5b50610409611f98565b604051808215151515815260200191505060405180910390f35b61042b611fef565b005b34801561043957600080fd5b506104866004803603604081101561045057600080fd5b81019080803573ffffffffffffffffffffffffffffffffffffffff169060200190929190803590602001909291905050506129a1565b6040518082815260200191505060405180910390f35b3480156104a857600080fd5b506104eb600480360360208110156104bf57600080fd5b81019080803573ffffffffffffffffffffffffffffffffffffffff169060200190929190505050612abe565b005b3480156104f957600080fd5b506105466004803603604081101561051057600080fd5b81019080803573ffffffffffffffffffffffffffffffffffffffff16906020019092919080359060200190929190505050612add565b6040518082815260200191505060405180910390f35b34801561056857600080fd5b50610571612d36565b604051808273ffffffffffffffffffffffffffffffffffffffff1673ffffffffffffffffffffffffffffffffffffffff16815260200191505060405180910390f35b6105bb611f98565b15156105c657600080fd5b60606105d0611f6f565b82604051602401808373ffffffffffffffffffffffffffffffffffffffff1673ffffffffffffffffffffffffffffffffffffffff168152602001828152602001925050506040516020818303038152906040527fa9059cbb000000000000000000000000000000000000000000000000000000007bffffffffffffffffffffffffffffffffffffffffffffffffffffffff19166020820180517bffffffffffffffffffffffffffffffffffffffffffffffffffffffff83818316178352505050509050600060608473ffffffffffffffffffffffffffffffffffffffff16600062030d4090856040518082805190602001908083835b6020831015156106eb57805182526020820191506020810190506020830392506106c6565b6001836020036101000a038019825116818451168082178552505050505050905001915050600060405180830381858888f193505050503d806000811461074e576040519150601f19603f3d011682016040523d82523d6000602084013e610753565b606091505b50915091508115156107cd576040517f08c379a000000000000000000000000000000000000000000000000000000000815260040180806020018281038252601b8152602001807f5472616e7366657220746f6b656e206469646e277420776f726b2e000000000081525060200191505060405180910390fd5b600081511480610888575060208151148015610887575060007f01000000000000000000000000000000000000000000000000000000000000000281601f81518110151561081757fe5b9060200101517f010000000000000000000000000000000000000000000000000000000000000090047f0100000000000000000000000000000000000000000000000000000000000000027effffffffffffffffffffffffffffffffffffffffffffffffffffffffffffff191614155b5b15156108fc576040517f08c379a000000000000000000000000000000000000000000000000000000000815260040180806020018281038252601b8152602001807f5472616e7366657220746f6b656e2072657475726e20747275652e000000000081525060200191505060405180910390fd5b5050505050565b61090b611f98565b151561091657600080fd5b6109208282612d5c565b5050565b61092c611f98565b151561093757600080fd5b6109408161334f565b50565b61094b611f98565b151561095657600080fd5b61095f8161334f565b803073ffffffffffffffffffffffffffffffffffffffff1631101515156109d1576040517f08c379a00000000000000000000000000000000000000000000000000000000081526004018080602001828103825260248152602001806137c06024913960400191505060405180910390fd5b6000600160009054906101000a900473ffffffffffffffffffffffffffffffffffffffff1673ffffffffffffffffffffffffffffffffffffffff166306f2bf62846040518263ffffffff167c0100000000000000000000000000000000000000000000000000000000028152600401808273ffffffffffffffffffffffffffffffffffffffff1673ffffffffffffffffffffffffffffffffffffffff16815260200191505060206040518083038186803b158015610a8e57600080fd5b505afa158015610aa2573d6000803e3d6000fd5b505050506040513d6020811015610ab857600080fd5b810190808051906020019092919050505073ffffffffffffffffffffffffffffffffffffffff1663f39b5b9b836001426040518463ffffffff167c010000000000000000000000000000000000000000000000000000000002815260040180838152602001828152602001925050506020604051808303818588803b158015610b4057600080fd5b505af1158015610b54573d6000803e3d6000fd5b50505050506040513d6020811015610b6b57600080fd5b81019080805190602001909291905050509050610b888382612d5c565b6000600260009054906101000a900473ffffffffffffffffffffffffffffffffffffffff1673ffffffffffffffffffffffffffffffffffffffff16637bf1a6276040518163ffffffff167c010000000000000000000000000000000000000000000000000000000002815260040160206040518083038186803b158015610c0e57600080fd5b505afa158015610c22573d6000803e3d6000fd5b505050506040513d6020811015610c3857600080fd5b810190808051906020019092919050505090506000600260009054906101000a900473ffffffffffffffffffffffffffffffffffffffff1673ffffffffffffffffffffffffffffffffffffffff166314584a9d86846040518363ffffffff167c0100000000000000000000000000000000000000000000000000000000028152600401808373ffffffffffffffffffffffffffffffffffffffff1673ffffffffffffffffffffffffffffffffffffffff1681526020018273ffffffffffffffffffffffffffffffffffffffff1673ffffffffffffffffffffffffffffffffffffffff16815260200192505050602060405180830381600087803b158015610d3e57600080fd5b505af1158015610d52573d6000803e3d6000fd5b505050506040513d6020811015610d6857600080fd5b81019080805190602001909291905050509050600260009054906101000a900473ffffffffffffffffffffffffffffffffffffffff1673ffffffffffffffffffffffffffffffffffffffff16635e7f22c28387847fffffffffffffffffffffffffffffffffffffffffffffffffffffffffffffffff6040518563ffffffff167c0100000000000000000000000000000000000000000000000000000000028152600401808573ffffffffffffffffffffffffffffffffffffffff1673ffffffffffffffffffffffffffffffffffffffff1681526020018473ffffffffffffffffffffffffffffffffffffffff1673ffffffffffffffffffffffffffffffffffffffff168152602001838152602001828152602001945050505050602060405180830381600087803b158015610e9c57600080fd5b505af1158015610eb0573d6000803e3d6000fd5b505050506040513d6020811015610ec657600080fd5b8101908080519060200190929190505050506000600260009054906101000a900473ffffffffffffffffffffffffffffffffffffffff1673ffffffffffffffffffffffffffffffffffffffff1663b0293850848830866040518563ffffffff167c0100000000000000000000000000000000000000000000000000000000028152600401808573ffffffffffffffffffffffffffffffffffffffff1673ffffffffffffffffffffffffffffffffffffffff1681526020018473ffffffffffffffffffffffffffffffffffffffff1673ffffffffffffffffffffffffffffffffffffffff1681526020018373ffffffffffffffffffffffffffffffffffffffff1673ffffffffffffffffffffffffffffffffffffffff1681526020018281526020019450505050506040805180830381600087803b15801561100657600080fd5b505af115801561101a573d6000803e3d6000fd5b505050506040513d604081101561103057600080fd5b8101908080519060200190929190805190602001909291905050505090508481101515156110c6576040517f08c379a00000000000000000000000000000000000000000000000000000000081526004018080602001828103825260098152602001807f6e6f2070726f666974000000000000000000000000000000000000000000000081525060200191505060405180910390fd5b7fc90a3c8cce5a6fc905b1c03c24729cd1e75337254f405872e01b21df6a5a123c81600060405180838152602001821515151581526020019250505060405180910390a1505050505050565b61111a611f98565b151561112557600080fd5b600073ffffffffffffffffffffffffffffffffffffffff166000809054906101000a900473ffffffffffffffffffffffffffffffffffffffff1673ffffffffffffffffffffffffffffffffffffffff167f8be0079c531659141344cd1fd0a4f28419497f9722a3daafe3b4186f6b6457e060405160405180910390a360008060006101000a81548173ffffffffffffffffffffffffffffffffffffffff021916908373ffffffffffffffffffffffffffffffffffffffff160217905550565b6111ec611f98565b15156111f757600080fd5b6111ff611f6f565b73ffffffffffffffffffffffffffffffffffffffff166108fc60008314611226578261123f565b3073ffffffffffffffffffffffffffffffffffffffff16315b9081150290604051600060405180830381858888f1935050505015801561126a573d6000803e3d6000fd5b5050565b600160009054906101000a900473ffffffffffffffffffffffffffffffffffffffff1681565b61129c611f98565b15156112a757600080fd5b6112b08161334f565b6112b8611f6f565b73ffffffffffffffffffffffffffffffffffffffff166108fc829081150290604051600060405180830381858888f193505050501580156112fd573d6000803e3d6000fd5b5050565b611309611f98565b151561131457600080fd5b6000600260009054906101000a900473ffffffffffffffffffffffffffffffffffffffff1673ffffffffffffffffffffffffffffffffffffffff16637bf1a6276040518163ffffffff167c010000000000000000000000000000000000000000000000000000000002815260040160206040518083038186803b15801561139a57600080fd5b505afa1580156113ae573d6000803e3d6000fd5b505050506040513d60208110156113c457600080fd5b810190808051906020019092919050505090506000600260009054906101000a900473ffffffffffffffffffffffffffffffffffffffff1673ffffffffffffffffffffffffffffffffffffffff166314584a9d85846040518363ffffffff167c0100000000000000000000000000000000000000000000000000000000028152600401808373ffffffffffffffffffffffffffffffffffffffff1673ffffffffffffffffffffffffffffffffffffffff1681526020018273ffffffffffffffffffffffffffffffffffffffff1673ffffffffffffffffffffffffffffffffffffffff16815260200192505050602060405180830381600087803b1580156114ca57600080fd5b505af11580156114de573d6000803e3d6000fd5b505050506040513d60208110156114f457600080fd5b81019080805190602001909291905050509050600260009054906101000a900473ffffffffffffffffffffffffffffffffffffffff1673ffffffffffffffffffffffffffffffffffffffff16635e7f22c2858484876040518563ffffffff167c0100000000000000000000000000000000000000000000000000000000028152600401808573ffffffffffffffffffffffffffffffffffffffff1673ffffffffffffffffffffffffffffffffffffffff1681526020018473ffffffffffffffffffffffffffffffffffffffff1673ffffffffffffffffffffffffffffffffffffffff168152602001838152602001828152602001945050505050602060405180830381600087803b15801561160857600080fd5b505af115801561161c573d6000803e3d6000fd5b505050506040513d602081101561163257600080fd5b8101908080519060200190929190505050506000600260009054906101000a900473ffffffffffffffffffffffffffffffffffffffff1673ffffffffffffffffffffffffffffffffffffffff1663b0293850868530866040518563ffffffff167c0100000000000000000000000000000000000000000000000000000000028152600401808573ffffffffffffffffffffffffffffffffffffffff1673ffffffffffffffffffffffffffffffffffffffff1681526020018473ffffffffffffffffffffffffffffffffffffffff1673ffffffffffffffffffffffffffffffffffffffff1681526020018373ffffffffffffffffffffffffffffffffffffffff1673ffffffffffffffffffffffffffffffffffffffff1681526020018281526020019450505050506040805180830381600087803b15801561177257600080fd5b505af1158015611786573d6000803e3d6000fd5b505050506040513d604081101561179c57600080fd5b810190808051906020019092919080519060200190929190505050509050600260009054906101000a900473ffffffffffffffffffffffffffffffffffffffff1673ffffffffffffffffffffffffffffffffffffffff1663f3fef3a386836040518363ffffffff167c0100000000000000000000000000000000000000000000000000000000028152600401808373ffffffffffffffffffffffffffffffffffffffff1673ffffffffffffffffffffffffffffffffffffffff16815260200182815260200192505050602060405180830381600087803b15801561187f57600080fd5b505af1158015611893573d6000803e3d6000fd5b505050506040513d60208110156118a957600080fd5b8101908080519060200190929190505050506000600160009054906101000a900473ffffffffffffffffffffffffffffffffffffffff1673ffffffffffffffffffffffffffffffffffffffff166306f2bf62876040518263ffffffff167c0100000000000000000000000000000000000000000000000000000000028152600401808273ffffffffffffffffffffffffffffffffffffffff1673ffffffffffffffffffffffffffffffffffffffff16815260200191505060206040518083038186803b15801561197857600080fd5b505afa15801561198c573d6000803e3d6000fd5b505050506040513d60208110156119a257600080fd5b8101908080519060200190929190505050905060008673ffffffffffffffffffffffffffffffffffffffff1663dd62ed3e30846040518363ffffffff167c0100000000000000000000000000000000000000000000000000000000028152600401808373ffffffffffffffffffffffffffffffffffffffff1673ffffffffffffffffffffffffffffffffffffffff1681526020018273ffffffffffffffffffffffffffffffffffffffff1673ffffffffffffffffffffffffffffffffffffffff1681526020019250505060206040518083038186803b158015611a8457600080fd5b505afa158015611a98573d6000803e3d6000fd5b505050506040513d6020811015611aae57600080fd5b8101908080519060200190929190505050905082811015611de2576060827fffffffffffffffffffffffffffffffffffffffffffffffffffffffffffffffff604051602401808373ffffffffffffffffffffffffffffffffffffffff1673ffffffffffffffffffffffffffffffffffffffff168152602001828152602001925050506040516020818303038152906040527f095ea7b3000000000000000000000000000000000000000000000000000000007bffffffffffffffffffffffffffffffffffffffffffffffffffffffff19166020820180517bffffffffffffffffffffffffffffffffffffffffffffffffffffffff83818316178352505050509050600060608973ffffffffffffffffffffffffffffffffffffffff16600062030d4090856040518082805190602001908083835b602083101515611c075780518252602082019150602081019050602083039250611be2565b6001836020036101000a038019825116818451168082178552505050505050905001915050600060405180830381858888f193505050503d8060008114611c6a576040519150601f19603f3d011682016040523d82523d6000602084013e611c6f565b606091505b5091509150811515611ccc576040517f08c379a00000000000000000000000000000000000000000000000000000000081526004018080602001828103825260398152602001806139a16039913960400191505060405180910390fd5b600081511480611d87575060208151148015611d86575060007f01000000000000000000000000000000000000000000000000000000000000000281601f815181101515611d1657fe5b9060200101517f010000000000000000000000000000000000000000000000000000000000000090047f0100000000000000000000000000000000000000000000000000000000000000027effffffffffffffffffffffffffffffffffffffffffffffffffffffffffffff191614155b5b1515611dde576040517f08c379a000000000000000000000000000000000000000000000000000000000815260040180806020018281038252604081526020018061380d6040913960400191505060405180910390fd5b5050505b60008273ffffffffffffffffffffffffffffffffffffffff166395e3c50b856001426040518463ffffffff167c0100000000000000000000000000000000000000000000000000000000028152600401808481526020018381526020018281526020019350505050602060405180830381600087803b158015611e6457600080fd5b505af1158015611e78573d6000803e3d6000fd5b505050506040513d6020811015611e8e57600080fd5b81019080805190602001909291905050509050868110151515611f19576040517f08c379a00000000000000000000000000000000000000000000000000000000081526004018080602001828103825260098152602001807f6e6f2070726f666974000000000000000000000000000000000000000000000081525060200191505060405180910390fd5b7fc90a3c8cce5a6fc905b1c03c24729cd1e75337254f405872e01b21df6a5a123c81600160405180838152602001821515151581526020019250505060405180910390a1611f65611fef565b5050505050505050565b60008060009054906101000a900473ffffffffffffffffffffffffffffffffffffffff16905090565b60008060009054906101000a900473ffffffffffffffffffffffffffffffffffffffff1673ffffffffffffffffffffffffffffffffffffffff163373ffffffffffffffffffffffffffffffffffffffff1614905090565b611ff7611f98565b151561200257600080fd5b60003073ffffffffffffffffffffffffffffffffffffffff1631111515612074576040517f08c379a00000000000000000000000000000000000000000000000000000000081526004018080602001828103825260298152602001806137e46029913960400191505060405180910390fd5b60003073ffffffffffffffffffffffffffffffffffffffff163190506000600260009054906101000a900473ffffffffffffffffffffffffffffffffffffffff1673ffffffffffffffffffffffffffffffffffffffff16637bf1a6276040518163ffffffff167c010000000000000000000000000000000000000000000000000000000002815260040160206040518083038186803b15801561211657600080fd5b505afa15801561212a573d6000803e3d6000fd5b505050506040513d602081101561214057600080fd5b8101908080519060200190929190505050905060606040516024016040516020818303038152906040527fd0e30db0000000000000000000000000000000000000000000000000000000007bffffffffffffffffffffffffffffffffffffffffffffffffffffffff19166020820180517bffffffffffffffffffffffffffffffffffffffffffffffffffffffff8381831617835250505050905060008273ffffffffffffffffffffffffffffffffffffffff168462030d4090846040518082805190602001908083835b60208310151561222f578051825260208201915060208101905060208303925061220a565b6001836020036101000a038019825116818451168082178552505050505050905001915050600060405180830381858888f193505050503d8060008114612292576040519150601f19603f3d011682016040523d82523d6000602084013e612297565b606091505b505090508015156122f3576040517f08c379a00000000000000000000000000000000000000000000000000000000081526004018080602001828103825260258152602001806138e26025913960400191505060405180910390fd5b60008373ffffffffffffffffffffffffffffffffffffffff166370a08231306040518263ffffffff167c0100000000000000000000000000000000000000000000000000000000028152600401808273ffffffffffffffffffffffffffffffffffffffff1673ffffffffffffffffffffffffffffffffffffffff16815260200191505060206040518083038186803b15801561238e57600080fd5b505afa1580156123a2573d6000803e3d6000fd5b505050506040513d60208110156123b857600080fd5b8101908080519060200190929190505050905060008473ffffffffffffffffffffffffffffffffffffffff1663dd62ed3e30600260009054906101000a900473ffffffffffffffffffffffffffffffffffffffff166040518363ffffffff167c0100000000000000000000000000000000000000000000000000000000028152600401808373ffffffffffffffffffffffffffffffffffffffff1673ffffffffffffffffffffffffffffffffffffffff1681526020018273ffffffffffffffffffffffffffffffffffffffff1673ffffffffffffffffffffffffffffffffffffffff1681526020019250505060206040518083038186803b1580156124bc57600080fd5b505afa1580156124d0573d6000803e3d6000fd5b505050506040513d60208110156124e657600080fd5b810190808051906020019092919050505090508181101561283957600260009054906101000a900473ffffffffffffffffffffffffffffffffffffffff167fffffffffffffffffffffffffffffffffffffffffffffffffffffffffffffffff604051602401808373ffffffffffffffffffffffffffffffffffffffff1673ffffffffffffffffffffffffffffffffffffffff168152602001828152602001925050506040516020818303038152906040527f095ea7b3000000000000000000000000000000000000000000000000000000007bffffffffffffffffffffffffffffffffffffffffffffffffffffffff19166020820180517bffffffffffffffffffffffffffffffffffffffffffffffffffffffff83818316178352505050509350600060608673ffffffffffffffffffffffffffffffffffffffff16600062030d4090886040518082805190602001908083835b60208310151561265f578051825260208201915060208101905060208303925061263a565b6001836020036101000a038019825116818451168082178552505050505050905001915050600060405180830381858888f193505050503d80600081146126c2576040519150601f19603f3d011682016040523d82523d6000602084013e6126c7565b606091505b5091509150811515612724576040517f08c379a00000000000000000000000000000000000000000000000000000000081526004018080602001828103825260358152602001806139446035913960400191505060405180910390fd5b6000815114806127df5750602081511480156127de575060007f01000000000000000000000000000000000000000000000000000000000000000281601f81518110151561276e57fe5b9060200101517f010000000000000000000000000000000000000000000000000000000000000090047f0100000000000000000000000000000000000000000000000000000000000000027effffffffffffffffffffffffffffffffffffffffffffffffffffffffffffff191614155b5b1515612836576040517f08c379a000000000000000000000000000000000000000000000000000000000815260040180806020018281038252603c815260200180613883603c913960400191505060405180910390fd5b50505b6000600260009054906101000a900473ffffffffffffffffffffffffffffffffffffffff1673ffffffffffffffffffffffffffffffffffffffff166347e7ef2487896040518363ffffffff167c0100000000000000000000000000000000000000000000000000000000028152600401808373ffffffffffffffffffffffffffffffffffffffff1673ffffffffffffffffffffffffffffffffffffffff16815260200182815260200192505050602060405180830381600087803b15801561290057600080fd5b505af1158015612914573d6000803e3d6000fd5b505050506040513d602081101561292a57600080fd5b81019080805190602001909291905050509050868110151515612998576040517f08c379a00000000000000000000000000000000000000000000000000000000081526004018080602001828103825260238152602001806138bf6023913960400191505060405180910390fd5b50505050505050565b60006129ab611f98565b15156129b657600080fd5b600260009054906101000a900473ffffffffffffffffffffffffffffffffffffffff1673ffffffffffffffffffffffffffffffffffffffff1663f3fef3a384846040518363ffffffff167c0100000000000000000000000000000000000000000000000000000000028152600401808373ffffffffffffffffffffffffffffffffffffffff1673ffffffffffffffffffffffffffffffffffffffff16815260200182815260200192505050602060405180830381600087803b158015612a7b57600080fd5b505af1158015612a8f573d6000803e3d6000fd5b505050506040513d6020811015612aa557600080fd5b8101908080519060200190929190505050905092915050565b612ac6611f98565b1515612ad157600080fd5b612ada816136c5565b50565b6000612ae7611f98565b1515612af257600080fd5b6000600260009054906101000a900473ffffffffffffffffffffffffffffffffffffffff1673ffffffffffffffffffffffffffffffffffffffff16637bf1a6276040518163ffffffff167c010000000000000000000000000000000000000000000000000000000002815260040160206040518083038186803b158015612b7857600080fd5b505afa158015612b8c573d6000803e3d6000fd5b505050506040513d6020811015612ba257600080fd5b810190808051906020019092919050505090506000600260009054906101000a900473ffffffffffffffffffffffffffffffffffffffff1673ffffffffffffffffffffffffffffffffffffffff1663b0293850868430886040518563ffffffff167c0100000000000000000000000000000000000000000000000000000000028152600401808573ffffffffffffffffffffffffffffffffffffffff1673ffffffffffffffffffffffffffffffffffffffff1681526020018473ffffffffffffffffffffffffffffffffffffffff1673ffffffffffffffffffffffffffffffffffffffff1681526020018373ffffffffffffffffffffffffffffffffffffffff1673ffffffffffffffffffffffffffffffffffffffff1681526020018281526020019450505050506040805180830381600087803b158015612ce357600080fd5b505af1158015612cf7573d6000803e3d6000fd5b505050506040513d6040811015612d0d57600080fd5b810190808051906020019092919080519060200190929190505050509050809250505092915050565b600260009054906101000a900473ffffffffffffffffffffffffffffffffffffffff1681565b60008273ffffffffffffffffffffffffffffffffffffffff1663dd62ed3e30600260009054906101000a900473ffffffffffffffffffffffffffffffffffffffff166040518363ffffffff167c0100000000000000000000000000000000000000000000000000000000028152600401808373ffffffffffffffffffffffffffffffffffffffff1673ffffffffffffffffffffffffffffffffffffffff1681526020018273ffffffffffffffffffffffffffffffffffffffff1673ffffffffffffffffffffffffffffffffffffffff1681526020019250505060206040518083038186803b158015612e4d57600080fd5b505afa158015612e61573d6000803e3d6000fd5b505050506040513d6020811015612e7757600080fd5b81019080805190602001909291905050509050818110156131cd576060600260009054906101000a900473ffffffffffffffffffffffffffffffffffffffff167fffffffffffffffffffffffffffffffffffffffffffffffffffffffffffffffff604051602401808373ffffffffffffffffffffffffffffffffffffffff1673ffffffffffffffffffffffffffffffffffffffff168152602001828152602001925050506040516020818303038152906040527f095ea7b3000000000000000000000000000000000000000000000000000000007bffffffffffffffffffffffffffffffffffffffffffffffffffffffff19166020820180517bffffffffffffffffffffffffffffffffffffffffffffffffffffffff83818316178352505050509050600060608573ffffffffffffffffffffffffffffffffffffffff16600062030d4090856040518082805190602001908083835b602083101515612ff25780518252602082019150602081019050602083039250612fcd565b6001836020036101000a038019825116818451168082178552505050505050905001915050600060405180830381858888f193505050503d8060008114613055576040519150601f19603f3d011682016040523d82523d6000602084013e61305a565b606091505b50915091508115156130b7576040517f08c379a000000000000000000000000000000000000000000000000000000000815260040180806020018281038252603681526020018061384d6036913960400191505060405180910390fd5b600081511480613172575060208151148015613171575060007f01000000000000000000000000000000000000000000000000000000000000000281601f81518110151561310157fe5b9060200101517f010000000000000000000000000000000000000000000000000000000000000090047f0100000000000000000000000000000000000000000000000000000000000000027effffffffffffffffffffffffffffffffffffffffffffffffffffffffffffff191614155b5b15156131c9576040517f08c379a000000000000000000000000000000000000000000000000000000000815260040180806020018281038252603d815260200180613907603d913960400191505060405180910390fd5b5050505b6000600260009054906101000a900473ffffffffffffffffffffffffffffffffffffffff1673ffffffffffffffffffffffffffffffffffffffff166347e7ef2485856040518363ffffffff167c0100000000000000000000000000000000000000000000000000000000028152600401808373ffffffffffffffffffffffffffffffffffffffff1673ffffffffffffffffffffffffffffffffffffffff16815260200182815260200192505050602060405180830381600087803b15801561329457600080fd5b505af11580156132a8573d6000803e3d6000fd5b505050506040513d60208110156132be57600080fd5b81019080805190602001909291905050509050828110151515613349576040517f08c379a00000000000000000000000000000000000000000000000000000000081526004018080602001828103825260138152602001807f6465706f736974206469646e277420776f726b0000000000000000000000000081525060200191505060405180910390fd5b50505050565b6000600260009054906101000a900473ffffffffffffffffffffffffffffffffffffffff1673ffffffffffffffffffffffffffffffffffffffff16637bf1a6276040518163ffffffff167c010000000000000000000000000000000000000000000000000000000002815260040160206040518083038186803b1580156133d557600080fd5b505afa1580156133e9573d6000803e3d6000fd5b505050506040513d60208110156133ff57600080fd5b81019080805190602001909291905050509050600260009054906101000a900473ffffffffffffffffffffffffffffffffffffffff1673ffffffffffffffffffffffffffffffffffffffff1663f3fef3a382846040518363ffffffff167c0100000000000000000000000000000000000000000000000000000000028152600401808373ffffffffffffffffffffffffffffffffffffffff1673ffffffffffffffffffffffffffffffffffffffff16815260200182815260200192505050602060405180830381600087803b1580156134d757600080fd5b505af11580156134eb573d6000803e3d6000fd5b505050506040513d602081101561350157600080fd5b810190808051906020019092919050505050606082604051602401808281526020019150506040516020818303038152906040527f2e1a7d4d000000000000000000000000000000000000000000000000000000007bffffffffffffffffffffffffffffffffffffffffffffffffffffffff19166020820180517bffffffffffffffffffffffffffffffffffffffffffffffffffffffff8381831617835250505050905060008273ffffffffffffffffffffffffffffffffffffffff16600062030d4090846040518082805190602001908083835b6020831015156135fb57805182526020820191506020810190506020830392506135d6565b6001836020036101000a038019825116818451168082178552505050505050905001915050600060405180830381858888f193505050503d806000811461365e576040519150601f19603f3d011682016040523d82523d6000602084013e613663565b606091505b505090508015156136bf576040517f08c379a00000000000000000000000000000000000000000000000000000000081526004018080602001828103825260288152602001806139796028913960400191505060405180910390fd5b50505050565b600073ffffffffffffffffffffffffffffffffffffffff168173ffffffffffffffffffffffffffffffffffffffff161415151561370157600080fd5b8073ffffffffffffffffffffffffffffffffffffffff166000809054906101000a900473ffffffffffffffffffffffffffffffffffffffff1673ffffffffffffffffffffffffffffffffffffffff167f8be0079c531659141344cd1fd0a4f28419497f9722a3daafe3b4186f6b6457e060405160405180910390a3806000806101000a81548173ffffffffffffffffffffffffffffffffffffffff021916908373ffffffffffffffffffffffffffffffffffffffff1602179055505056fe627579696e672066726f6d20756e69737761702074616b6573207265616c20457468657242616c616e6365206d7573742062652067726561746572207468616e203020746f206465706f736974417070726f766520617262546f6b656e20746f206265207472616e7366657272656420627920556e6973776170206469646e27742072657475726e2074727565417070726f766520746f6b656e20746f206265207472616e7366657272656420627920447574636858206469646e277420776f726b2e417070726f7665205745544820746f206265207472616e7366657272656420627920447574636858206469646e27742072657475726e20747275652e4465706f736974205745544820746f20447574636858206469646e277420776f726b2e436f6e76657274696e6720457468657220746f2057455448206469646e277420776f726b2e417070726f766520746f6b656e20746f206265207472616e7366657272656420627920447574636858206469646e27742072657475726e20747275652e417070726f7665205745544820746f206265207472616e7366657272656420627920447574636858206469646e277420776f726b2e5769746864726177206f662045746865722066726f6d2057455448206469646e277420776f726b2e417070726f766520617262546f6b656e20746f206265207472616e7366657272656420627920556e6973776170206469646e277420776f726ba165627a7a72305820b4414b07d547d618dd292669ba9663d9ee722125e64e0f3dec32363887ce5a000029",
  "source": "pragma solidity ^0.5.0;\nimport \"./Arbitrage.sol\";\n/// @title Uniswap Arbitrage Module - Executes arbitrage transactions between Uniswap and DutchX.\n/// @author Billy Rennekamp - <billy@gnosis.pm>\ncontract ArbitrageLocal is Arbitrage {\n    /// @dev Constructor function sets initial storage of contract.\n    /// @param _uniFactory The uniswap factory deployed address.\n    /// @param _dutchXProxy The dutchX proxy deployed address.\n    constructor(IUniswapFactory _uniFactory, IDutchExchange _dutchXProxy) public {\n        uniFactory = _uniFactory;\n        dutchXProxy = _dutchXProxy;\n    }\n}",
  "sourcePath": "/Users/billy/gnosis/arbitrage/contracts/ArbitrageLocal.sol",
  "compiler": {
    "name": "solc",
    "version": "0.5.3+commit.10d17f24.Emscripten.clang"
  },
  "schemaVersion": "3.0.1",
  "updatedAt": "2019-02-26T11:34:28.364Z",
  "devdoc": {
    "author": "Billy Rennekamp - <billy@gnosis.pm>",
    "methods": {
      "claimBuyerFunds(address,uint256)": {
        "details": "Only owner can claim a token from an auction on the DutchX",
        "params": {
          "dutchAuctionIndex": "The auction index of the token to be claimed.",
          "token": "The token address that is being claimed."
        },
        "return": "Returns the amount actually claimed from the DutchX"
      },
      "constructor": {
        "details": "Constructor function sets initial storage of contract.",
        "params": {
          "_dutchXProxy": "The dutchX proxy deployed address.",
          "_uniFactory": "The uniswap factory deployed address."
        }
      },
      "depositEther()": {
        "details": "Only owner can deposit contract Ether into the DutchX as WETH"
      },
      "depositToken(address,uint256)": {
        "details": "Only owner can deposit token to the DutchX",
        "params": {
          "amount": "The amount of token to deposit.",
          "token": "The token address that is being deposited."
        }
      },
      "dutchOpportunity(address,uint256)": {
        "details": "Executes a trade opportunity on dutchX. Assumes that there is a balance of WETH already on the dutchX ",
        "params": {
          "amount": "Amount of Ether to use in arbitrage.",
          "arbToken": "Address of the token that should be arbitraged."
        },
        "return": "Returns if transaction can be executed."
      },
      "isOwner()": {
        "return": "true if `msg.sender` is the owner of the contract."
      },
      "owner()": {
        "return": "the address of the owner."
      },
      "renounceOwnership()": {
        "details": "Allows the current owner to relinquish control of the contract."
      },
      "transferEther(uint256)": {
        "details": "Only owner can transfer any Ether currently in the contract to the owner address.",
        "params": {
          "amount": "The amount of Ether to withdraw"
        }
      },
      "transferOwnership(address)": {
        "details": "Allows the current owner to transfer control of the contract to a newOwner.",
        "params": {
          "newOwner": "The address to transfer ownership to."
        }
      },
      "transferToken(address,uint256)": {
        "details": "Only owner can transfer tokens to the owner that belong to this contract",
        "params": {
          "amount": "The amount of token to transfer.",
          "token": "The token address that is being transferred."
        }
      },
      "uniswapOpportunity(address,uint256)": {
        "details": "Executes a trade opportunity on uniswap.",
        "params": {
          "amount": "Amount of Ether to use in arbitrage.",
          "arbToken": "Address of the token that should be arbitraged."
        },
        "return": "Returns if transaction can be executed."
      },
      "withdrawEther(uint256)": {
        "details": "Only owner function to withdraw WETH from the DutchX, convert it to Ether and keep it in contract",
        "params": {
          "amount": "The amount of WETH to withdraw and convert."
        }
      },
      "withdrawEtherThenTransfer(uint256)": {
        "details": "Only owner can withdraw WETH from DutchX, convert to Ether and transfer to owner",
        "params": {
          "amount": "The amount of Ether to withdraw"
        }
      },
      "withdrawToken(address,uint256)": {
        "details": "Only owner can withdraw a token from the DutchX",
        "params": {
          "amount": "The amount of token to withdraw. Can be larger than available balance and maximum will be withdrawn.",
          "token": "The token address that is being withdrawn."
        },
        "return": "Returns the amount actually withdrawn from the DutchX"
      }
    },
    "title": "Uniswap Arbitrage Module - Executes arbitrage transactions between Uniswap and DutchX."
  },
  "userdoc": {
    "methods": {
      "renounceOwnership()": {
        "notice": "Renouncing to ownership will leave the contract without an owner. It will not be possible to call the functions with the `onlyOwner` modifier anymore."
      }
    }
  }
}