{
  "contractName": "ArbitrageMainnet",
  "abi": [
    {
      "constant": false,
      "inputs": [
        {
          "name": "token",
          "type": "address"
        },
        {
          "name": "amount",
          "type": "uint256"
        }
      ],
      "name": "transferToken",
      "outputs": [],
      "payable": false,
      "stateMutability": "nonpayable",
      "type": "function"
    },
    {
      "constant": false,
      "inputs": [
        {
          "name": "token",
          "type": "address"
        },
        {
          "name": "amount",
          "type": "uint256"
        }
      ],
      "name": "depositToken",
      "outputs": [],
      "payable": false,
      "stateMutability": "nonpayable",
      "type": "function"
    },
    {
      "constant": false,
      "inputs": [
        {
          "name": "amount",
          "type": "uint256"
        }
      ],
      "name": "withdrawEther",
      "outputs": [],
      "payable": false,
      "stateMutability": "nonpayable",
      "type": "function"
    },
    {
      "constant": false,
      "inputs": [
        {
          "name": "arbToken",
          "type": "address"
        },
        {
          "name": "amount",
          "type": "uint256"
        }
      ],
      "name": "uniswapOpportunity",
      "outputs": [],
      "payable": false,
      "stateMutability": "nonpayable",
      "type": "function"
    },
    {
      "constant": false,
      "inputs": [],
      "name": "renounceOwnership",
      "outputs": [],
      "payable": false,
      "stateMutability": "nonpayable",
      "type": "function"
    },
    {
      "constant": false,
      "inputs": [
        {
          "name": "amount",
          "type": "uint256"
        }
      ],
      "name": "transferEther",
      "outputs": [],
      "payable": false,
      "stateMutability": "nonpayable",
      "type": "function"
    },
    {
      "constant": true,
      "inputs": [],
      "name": "uniFactory",
      "outputs": [
        {
          "name": "",
          "type": "address"
        }
      ],
      "payable": false,
      "stateMutability": "view",
      "type": "function"
    },
    {
      "constant": false,
      "inputs": [
        {
          "name": "amount",
          "type": "uint256"
        }
      ],
      "name": "withdrawEtherThenTransfer",
      "outputs": [],
      "payable": false,
      "stateMutability": "nonpayable",
      "type": "function"
    },
    {
      "constant": false,
      "inputs": [
        {
          "name": "arbToken",
          "type": "address"
        },
        {
          "name": "amount",
          "type": "uint256"
        }
      ],
      "name": "dutchOpportunity",
      "outputs": [],
      "payable": false,
      "stateMutability": "nonpayable",
      "type": "function"
    },
    {
      "constant": true,
      "inputs": [],
      "name": "owner",
      "outputs": [
        {
          "name": "",
          "type": "address"
        }
      ],
      "payable": false,
      "stateMutability": "view",
      "type": "function"
    },
    {
      "constant": true,
      "inputs": [],
      "name": "isOwner",
      "outputs": [
        {
          "name": "",
          "type": "bool"
        }
      ],
      "payable": false,
      "stateMutability": "view",
      "type": "function"
    },
    {
      "constant": false,
      "inputs": [],
      "name": "depositEther",
      "outputs": [],
      "payable": true,
      "stateMutability": "payable",
      "type": "function"
    },
    {
      "constant": false,
      "inputs": [
        {
          "name": "token",
          "type": "address"
        },
        {
          "name": "amount",
          "type": "uint256"
        }
      ],
      "name": "withdrawToken",
      "outputs": [
        {
          "name": "",
          "type": "uint256"
        }
      ],
      "payable": false,
      "stateMutability": "nonpayable",
      "type": "function"
    },
    {
      "constant": false,
      "inputs": [
        {
          "name": "newOwner",
          "type": "address"
        }
      ],
      "name": "transferOwnership",
      "outputs": [],
      "payable": false,
      "stateMutability": "nonpayable",
      "type": "function"
    },
    {
      "constant": true,
      "inputs": [],
      "name": "dutchXProxy",
      "outputs": [
        {
          "name": "",
          "type": "address"
        }
      ],
      "payable": false,
      "stateMutability": "view",
      "type": "function"
    },
    {
      "payable": true,
      "stateMutability": "payable",
      "type": "fallback"
    },
    {
      "anonymous": false,
      "inputs": [
        {
          "indexed": false,
          "name": "profit",
          "type": "uint256"
        },
        {
          "indexed": false,
          "name": "wasDutchOpportunity",
          "type": "bool"
        }
      ],
      "name": "Profit",
      "type": "event"
    },
    {
      "anonymous": false,
      "inputs": [
        {
          "indexed": true,
          "name": "previousOwner",
          "type": "address"
        },
        {
          "indexed": true,
          "name": "newOwner",
          "type": "address"
        }
      ],
      "name": "OwnershipTransferred",
      "type": "event"
    }
  ],
  "bytecode": "0x608060405273c0a47dfe034b400b47bdad5fecda2621de6c4d95600360006101000a81548173ffffffffffffffffffffffffffffffffffffffff021916908373ffffffffffffffffffffffffffffffffffffffff16021790555073af1745c0f8117384dfa5fff40f824057c70f2ed3600460006101000a81548173ffffffffffffffffffffffffffffffffffffffff021916908373ffffffffffffffffffffffffffffffffffffffff160217905550336000806101000a81548173ffffffffffffffffffffffffffffffffffffffff021916908373ffffffffffffffffffffffffffffffffffffffff1602179055506000809054906101000a900473ffffffffffffffffffffffffffffffffffffffff1673ffffffffffffffffffffffffffffffffffffffff16600073ffffffffffffffffffffffffffffffffffffffff167f8be0079c531659141344cd1fd0a4f28419497f9722a3daafe3b4186f6b6457e060405160405180910390a361370c806101796000396000f3fe608060405260043610610105576000357c0100000000000000000000000000000000000000000000000000000000900480637b2682a3116100a757806398ea5fca1161007657806398ea5fca146104185780639e281a9814610422578063f2fde38b14610491578063ff0bd58b146104e257610105565b80637b2682a3146102fc57806389d12768146103375780638da5cb5b146103925780638f32d59b146103e957610105565b806368a88b11116100e357806368a88b11146101f8578063715018a61461025357806373ffd5b71461026a57806376771d4b146102a557610105565b80631072cbea14610107578063338b5dea146101625780633bed33ce146101bd575b005b34801561011357600080fd5b506101606004803603604081101561012a57600080fd5b81019080803573ffffffffffffffffffffffffffffffffffffffff16906020019092919080359060200190929190505050610539565b005b34801561016e57600080fd5b506101bb6004803603604081101561018557600080fd5b81019080803573ffffffffffffffffffffffffffffffffffffffff16906020019092919080359060200190929190505050610889565b005b3480156101c957600080fd5b506101f6600480360360208110156101e057600080fd5b81019080803590602001909291905050506108aa565b005b34801561020457600080fd5b506102516004803603604081101561021b57600080fd5b81019080803573ffffffffffffffffffffffffffffffffffffffff169060200190929190803590602001909291905050506108c9565b005b34801561025f57600080fd5b50610268611085565b005b34801561027657600080fd5b506102a36004803603602081101561028d57600080fd5b8101908080359060200190929190505050611157565b005b3480156102b157600080fd5b506102ba6111e1565b604051808273ffffffffffffffffffffffffffffffffffffffff1673ffffffffffffffffffffffffffffffffffffffff16815260200191505060405180910390f35b34801561030857600080fd5b506103356004803603602081101561031f57600080fd5b8101908080359060200190929190505050611207565b005b34801561034357600080fd5b506103906004803603604081101561035a57600080fd5b81019080803573ffffffffffffffffffffffffffffffffffffffff16906020019092919080359060200190929190505050611274565b005b34801561039e57600080fd5b506103a7611ecf565b604051808273ffffffffffffffffffffffffffffffffffffffff1673ffffffffffffffffffffffffffffffffffffffff16815260200191505060405180910390f35b3480156103f557600080fd5b506103fe611ef8565b604051808215151515815260200191505060405180910390f35b610420611f4f565b005b34801561042e57600080fd5b5061047b6004803603604081101561044557600080fd5b81019080803573ffffffffffffffffffffffffffffffffffffffff16906020019092919080359060200190929190505050612901565b6040518082815260200191505060405180910390f35b34801561049d57600080fd5b506104e0600480360360208110156104b457600080fd5b81019080803573ffffffffffffffffffffffffffffffffffffffff169060200190929190505050612a1e565b005b3480156104ee57600080fd5b506104f7612a3d565b604051808273ffffffffffffffffffffffffffffffffffffffff1673ffffffffffffffffffffffffffffffffffffffff16815260200191505060405180910390f35b610541611ef8565b151561054c57600080fd5b6060610556611ecf565b82604051602401808373ffffffffffffffffffffffffffffffffffffffff1673ffffffffffffffffffffffffffffffffffffffff168152602001828152602001925050506040516020818303038152906040527fa9059cbb000000000000000000000000000000000000000000000000000000007bffffffffffffffffffffffffffffffffffffffffffffffffffffffff19166020820180517bffffffffffffffffffffffffffffffffffffffffffffffffffffffff83818316178352505050509050600060608473ffffffffffffffffffffffffffffffffffffffff16600062030d4090856040518082805190602001908083835b602083101515610671578051825260208201915060208101905060208303925061064c565b6001836020036101000a038019825116818451168082178552505050505050905001915050600060405180830381858888f193505050503d80600081146106d4576040519150601f19603f3d011682016040523d82523d6000602084013e6106d9565b606091505b5091509150811515610753576040517f08c379a000000000000000000000000000000000000000000000000000000000815260040180806020018281038252601b8152602001807f5472616e7366657220746f6b656e206469646e277420776f726b2e000000000081525060200191505060405180910390fd5b60008151148061080e57506020815114801561080d575060007f01000000000000000000000000000000000000000000000000000000000000000281601f81518110151561079d57fe5b9060200101517f010000000000000000000000000000000000000000000000000000000000000090047f0100000000000000000000000000000000000000000000000000000000000000027effffffffffffffffffffffffffffffffffffffffffffffffffffffffffffff191614155b5b1515610882576040517f08c379a000000000000000000000000000000000000000000000000000000000815260040180806020018281038252601b8152602001807f5472616e7366657220746f6b656e2072657475726e20747275652e000000000081525060200191505060405180910390fd5b5050505050565b610891611ef8565b151561089c57600080fd5b6108a68282612a63565b5050565b6108b2611ef8565b15156108bd57600080fd5b6108c681613056565b50565b6108d281613056565b803073ffffffffffffffffffffffffffffffffffffffff163110151515610944576040517f08c379a00000000000000000000000000000000000000000000000000000000081526004018080602001828103825260248152602001806134c76024913960400191505060405180910390fd5b6000600160009054906101000a900473ffffffffffffffffffffffffffffffffffffffff1673ffffffffffffffffffffffffffffffffffffffff166306f2bf62846040518263ffffffff167c0100000000000000000000000000000000000000000000000000000000028152600401808273ffffffffffffffffffffffffffffffffffffffff1673ffffffffffffffffffffffffffffffffffffffff16815260200191505060206040518083038186803b158015610a0157600080fd5b505afa158015610a15573d6000803e3d6000fd5b505050506040513d6020811015610a2b57600080fd5b810190808051906020019092919050505073ffffffffffffffffffffffffffffffffffffffff1663f39b5b9b836001426040518463ffffffff167c010000000000000000000000000000000000000000000000000000000002815260040180838152602001828152602001925050506020604051808303818588803b158015610ab357600080fd5b505af1158015610ac7573d6000803e3d6000fd5b50505050506040513d6020811015610ade57600080fd5b81019080805190602001909291905050509050610afb8382612a63565b6000600260009054906101000a900473ffffffffffffffffffffffffffffffffffffffff1673ffffffffffffffffffffffffffffffffffffffff16637bf1a6276040518163ffffffff167c010000000000000000000000000000000000000000000000000000000002815260040160206040518083038186803b158015610b8157600080fd5b505afa158015610b95573d6000803e3d6000fd5b505050506040513d6020811015610bab57600080fd5b810190808051906020019092919050505090506000600260009054906101000a900473ffffffffffffffffffffffffffffffffffffffff1673ffffffffffffffffffffffffffffffffffffffff166314584a9d86846040518363ffffffff167c0100000000000000000000000000000000000000000000000000000000028152600401808373ffffffffffffffffffffffffffffffffffffffff1673ffffffffffffffffffffffffffffffffffffffff1681526020018273ffffffffffffffffffffffffffffffffffffffff1673ffffffffffffffffffffffffffffffffffffffff16815260200192505050602060405180830381600087803b158015610cb157600080fd5b505af1158015610cc5573d6000803e3d6000fd5b505050506040513d6020811015610cdb57600080fd5b81019080805190602001909291905050509050600260009054906101000a900473ffffffffffffffffffffffffffffffffffffffff1673ffffffffffffffffffffffffffffffffffffffff16635e7f22c28387847fffffffffffffffffffffffffffffffffffffffffffffffffffffffffffffffff6040518563ffffffff167c0100000000000000000000000000000000000000000000000000000000028152600401808573ffffffffffffffffffffffffffffffffffffffff1673ffffffffffffffffffffffffffffffffffffffff1681526020018473ffffffffffffffffffffffffffffffffffffffff1673ffffffffffffffffffffffffffffffffffffffff168152602001838152602001828152602001945050505050602060405180830381600087803b158015610e0f57600080fd5b505af1158015610e23573d6000803e3d6000fd5b505050506040513d6020811015610e3957600080fd5b8101908080519060200190929190505050506000600260009054906101000a900473ffffffffffffffffffffffffffffffffffffffff1673ffffffffffffffffffffffffffffffffffffffff1663b0293850848830866040518563ffffffff167c0100000000000000000000000000000000000000000000000000000000028152600401808573ffffffffffffffffffffffffffffffffffffffff1673ffffffffffffffffffffffffffffffffffffffff1681526020018473ffffffffffffffffffffffffffffffffffffffff1673ffffffffffffffffffffffffffffffffffffffff1681526020018373ffffffffffffffffffffffffffffffffffffffff1673ffffffffffffffffffffffffffffffffffffffff1681526020018281526020019450505050506040805180830381600087803b158015610f7957600080fd5b505af1158015610f8d573d6000803e3d6000fd5b505050506040513d6040811015610fa357600080fd5b810190808051906020019092919080519060200190929190505050509050848110151515611039576040517f08c379a00000000000000000000000000000000000000000000000000000000081526004018080602001828103825260098152602001807f6e6f2070726f666974000000000000000000000000000000000000000000000081525060200191505060405180910390fd5b7fc90a3c8cce5a6fc905b1c03c24729cd1e75337254f405872e01b21df6a5a123c81600060405180838152602001821515151581526020019250505060405180910390a1505050505050565b61108d611ef8565b151561109857600080fd5b600073ffffffffffffffffffffffffffffffffffffffff166000809054906101000a900473ffffffffffffffffffffffffffffffffffffffff1673ffffffffffffffffffffffffffffffffffffffff167f8be0079c531659141344cd1fd0a4f28419497f9722a3daafe3b4186f6b6457e060405160405180910390a360008060006101000a81548173ffffffffffffffffffffffffffffffffffffffff021916908373ffffffffffffffffffffffffffffffffffffffff160217905550565b61115f611ef8565b151561116a57600080fd5b611172611ecf565b73ffffffffffffffffffffffffffffffffffffffff166108fc6000831461119957826111b2565b3073ffffffffffffffffffffffffffffffffffffffff16315b9081150290604051600060405180830381858888f193505050501580156111dd573d6000803e3d6000fd5b5050565b600160009054906101000a900473ffffffffffffffffffffffffffffffffffffffff1681565b61120f611ef8565b151561121a57600080fd5b61122381613056565b61122b611ecf565b73ffffffffffffffffffffffffffffffffffffffff166108fc829081150290604051600060405180830381858888f19350505050158015611270573d6000803e3d6000fd5b5050565b6000600260009054906101000a900473ffffffffffffffffffffffffffffffffffffffff1673ffffffffffffffffffffffffffffffffffffffff16637bf1a6276040518163ffffffff167c010000000000000000000000000000000000000000000000000000000002815260040160206040518083038186803b1580156112fa57600080fd5b505afa15801561130e573d6000803e3d6000fd5b505050506040513d602081101561132457600080fd5b810190808051906020019092919050505090506000600260009054906101000a900473ffffffffffffffffffffffffffffffffffffffff1673ffffffffffffffffffffffffffffffffffffffff166314584a9d85846040518363ffffffff167c0100000000000000000000000000000000000000000000000000000000028152600401808373ffffffffffffffffffffffffffffffffffffffff1673ffffffffffffffffffffffffffffffffffffffff1681526020018273ffffffffffffffffffffffffffffffffffffffff1673ffffffffffffffffffffffffffffffffffffffff16815260200192505050602060405180830381600087803b15801561142a57600080fd5b505af115801561143e573d6000803e3d6000fd5b505050506040513d602081101561145457600080fd5b81019080805190602001909291905050509050600260009054906101000a900473ffffffffffffffffffffffffffffffffffffffff1673ffffffffffffffffffffffffffffffffffffffff16635e7f22c2858484876040518563ffffffff167c0100000000000000000000000000000000000000000000000000000000028152600401808573ffffffffffffffffffffffffffffffffffffffff1673ffffffffffffffffffffffffffffffffffffffff1681526020018473ffffffffffffffffffffffffffffffffffffffff1673ffffffffffffffffffffffffffffffffffffffff168152602001838152602001828152602001945050505050602060405180830381600087803b15801561156857600080fd5b505af115801561157c573d6000803e3d6000fd5b505050506040513d602081101561159257600080fd5b8101908080519060200190929190505050506000600260009054906101000a900473ffffffffffffffffffffffffffffffffffffffff1673ffffffffffffffffffffffffffffffffffffffff1663b0293850868530866040518563ffffffff167c0100000000000000000000000000000000000000000000000000000000028152600401808573ffffffffffffffffffffffffffffffffffffffff1673ffffffffffffffffffffffffffffffffffffffff1681526020018473ffffffffffffffffffffffffffffffffffffffff1673ffffffffffffffffffffffffffffffffffffffff1681526020018373ffffffffffffffffffffffffffffffffffffffff1673ffffffffffffffffffffffffffffffffffffffff1681526020018281526020019450505050506040805180830381600087803b1580156116d257600080fd5b505af11580156116e6573d6000803e3d6000fd5b505050506040513d60408110156116fc57600080fd5b810190808051906020019092919080519060200190929190505050509050600260009054906101000a900473ffffffffffffffffffffffffffffffffffffffff1673ffffffffffffffffffffffffffffffffffffffff1663f3fef3a386836040518363ffffffff167c0100000000000000000000000000000000000000000000000000000000028152600401808373ffffffffffffffffffffffffffffffffffffffff1673ffffffffffffffffffffffffffffffffffffffff16815260200182815260200192505050602060405180830381600087803b1580156117df57600080fd5b505af11580156117f3573d6000803e3d6000fd5b505050506040513d602081101561180957600080fd5b8101908080519060200190929190505050506000600160009054906101000a900473ffffffffffffffffffffffffffffffffffffffff1673ffffffffffffffffffffffffffffffffffffffff166306f2bf62876040518263ffffffff167c0100000000000000000000000000000000000000000000000000000000028152600401808273ffffffffffffffffffffffffffffffffffffffff1673ffffffffffffffffffffffffffffffffffffffff16815260200191505060206040518083038186803b1580156118d857600080fd5b505afa1580156118ec573d6000803e3d6000fd5b505050506040513d602081101561190257600080fd5b8101908080519060200190929190505050905060008673ffffffffffffffffffffffffffffffffffffffff1663dd62ed3e30846040518363ffffffff167c0100000000000000000000000000000000000000000000000000000000028152600401808373ffffffffffffffffffffffffffffffffffffffff1673ffffffffffffffffffffffffffffffffffffffff1681526020018273ffffffffffffffffffffffffffffffffffffffff1673ffffffffffffffffffffffffffffffffffffffff1681526020019250505060206040518083038186803b1580156119e457600080fd5b505afa1580156119f8573d6000803e3d6000fd5b505050506040513d6020811015611a0e57600080fd5b8101908080519060200190929190505050905082811015611d42576060827fffffffffffffffffffffffffffffffffffffffffffffffffffffffffffffffff604051602401808373ffffffffffffffffffffffffffffffffffffffff1673ffffffffffffffffffffffffffffffffffffffff168152602001828152602001925050506040516020818303038152906040527f095ea7b3000000000000000000000000000000000000000000000000000000007bffffffffffffffffffffffffffffffffffffffffffffffffffffffff19166020820180517bffffffffffffffffffffffffffffffffffffffffffffffffffffffff83818316178352505050509050600060608973ffffffffffffffffffffffffffffffffffffffff16600062030d4090856040518082805190602001908083835b602083101515611b675780518252602082019150602081019050602083039250611b42565b6001836020036101000a038019825116818451168082178552505050505050905001915050600060405180830381858888f193505050503d8060008114611bca576040519150601f19603f3d011682016040523d82523d6000602084013e611bcf565b606091505b5091509150811515611c2c576040517f08c379a00000000000000000000000000000000000000000000000000000000081526004018080602001828103825260398152602001806136a86039913960400191505060405180910390fd5b600081511480611ce7575060208151148015611ce6575060007f01000000000000000000000000000000000000000000000000000000000000000281601f815181101515611c7657fe5b9060200101517f010000000000000000000000000000000000000000000000000000000000000090047f0100000000000000000000000000000000000000000000000000000000000000027effffffffffffffffffffffffffffffffffffffffffffffffffffffffffffff191614155b5b1515611d3e576040517f08c379a00000000000000000000000000000000000000000000000000000000081526004018080602001828103825260408152602001806135146040913960400191505060405180910390fd5b5050505b60008273ffffffffffffffffffffffffffffffffffffffff166395e3c50b856001426040518463ffffffff167c0100000000000000000000000000000000000000000000000000000000028152600401808481526020018381526020018281526020019350505050602060405180830381600087803b158015611dc457600080fd5b505af1158015611dd8573d6000803e3d6000fd5b505050506040513d6020811015611dee57600080fd5b81019080805190602001909291905050509050868110151515611e79576040517f08c379a00000000000000000000000000000000000000000000000000000000081526004018080602001828103825260098152602001807f6e6f2070726f666974000000000000000000000000000000000000000000000081525060200191505060405180910390fd5b7fc90a3c8cce5a6fc905b1c03c24729cd1e75337254f405872e01b21df6a5a123c81600160405180838152602001821515151581526020019250505060405180910390a1611ec5611f4f565b5050505050505050565b60008060009054906101000a900473ffffffffffffffffffffffffffffffffffffffff16905090565b60008060009054906101000a900473ffffffffffffffffffffffffffffffffffffffff1673ffffffffffffffffffffffffffffffffffffffff163373ffffffffffffffffffffffffffffffffffffffff1614905090565b611f57611ef8565b1515611f6257600080fd5b60003073ffffffffffffffffffffffffffffffffffffffff1631111515611fd4576040517f08c379a00000000000000000000000000000000000000000000000000000000081526004018080602001828103825260298152602001806134eb6029913960400191505060405180910390fd5b60003073ffffffffffffffffffffffffffffffffffffffff163190506000600260009054906101000a900473ffffffffffffffffffffffffffffffffffffffff1673ffffffffffffffffffffffffffffffffffffffff16637bf1a6276040518163ffffffff167c010000000000000000000000000000000000000000000000000000000002815260040160206040518083038186803b15801561207657600080fd5b505afa15801561208a573d6000803e3d6000fd5b505050506040513d60208110156120a057600080fd5b8101908080519060200190929190505050905060606040516024016040516020818303038152906040527fd0e30db0000000000000000000000000000000000000000000000000000000007bffffffffffffffffffffffffffffffffffffffffffffffffffffffff19166020820180517bffffffffffffffffffffffffffffffffffffffffffffffffffffffff8381831617835250505050905060008273ffffffffffffffffffffffffffffffffffffffff168462030d4090846040518082805190602001908083835b60208310151561218f578051825260208201915060208101905060208303925061216a565b6001836020036101000a038019825116818451168082178552505050505050905001915050600060405180830381858888f193505050503d80600081146121f2576040519150601f19603f3d011682016040523d82523d6000602084013e6121f7565b606091505b50509050801515612253576040517f08c379a00000000000000000000000000000000000000000000000000000000081526004018080602001828103825260258152602001806135e96025913960400191505060405180910390fd5b60008373ffffffffffffffffffffffffffffffffffffffff166370a08231306040518263ffffffff167c0100000000000000000000000000000000000000000000000000000000028152600401808273ffffffffffffffffffffffffffffffffffffffff1673ffffffffffffffffffffffffffffffffffffffff16815260200191505060206040518083038186803b1580156122ee57600080fd5b505afa158015612302573d6000803e3d6000fd5b505050506040513d602081101561231857600080fd5b8101908080519060200190929190505050905060008473ffffffffffffffffffffffffffffffffffffffff1663dd62ed3e30600260009054906101000a900473ffffffffffffffffffffffffffffffffffffffff166040518363ffffffff167c0100000000000000000000000000000000000000000000000000000000028152600401808373ffffffffffffffffffffffffffffffffffffffff1673ffffffffffffffffffffffffffffffffffffffff1681526020018273ffffffffffffffffffffffffffffffffffffffff1673ffffffffffffffffffffffffffffffffffffffff1681526020019250505060206040518083038186803b15801561241c57600080fd5b505afa158015612430573d6000803e3d6000fd5b505050506040513d602081101561244657600080fd5b810190808051906020019092919050505090508082111561279957600260009054906101000a900473ffffffffffffffffffffffffffffffffffffffff167fffffffffffffffffffffffffffffffffffffffffffffffffffffffffffffffff604051602401808373ffffffffffffffffffffffffffffffffffffffff1673ffffffffffffffffffffffffffffffffffffffff168152602001828152602001925050506040516020818303038152906040527f095ea7b3000000000000000000000000000000000000000000000000000000007bffffffffffffffffffffffffffffffffffffffffffffffffffffffff19166020820180517bffffffffffffffffffffffffffffffffffffffffffffffffffffffff83818316178352505050509350600060608673ffffffffffffffffffffffffffffffffffffffff16600062030d4090886040518082805190602001908083835b6020831015156125bf578051825260208201915060208101905060208303925061259a565b6001836020036101000a038019825116818451168082178552505050505050905001915050600060405180830381858888f193505050503d8060008114612622576040519150601f19603f3d011682016040523d82523d6000602084013e612627565b606091505b5091509150811515612684576040517f08c379a000000000000000000000000000000000000000000000000000000000815260040180806020018281038252603581526020018061364b6035913960400191505060405180910390fd5b60008151148061273f57506020815114801561273e575060007f01000000000000000000000000000000000000000000000000000000000000000281601f8151811015156126ce57fe5b9060200101517f010000000000000000000000000000000000000000000000000000000000000090047f0100000000000000000000000000000000000000000000000000000000000000027effffffffffffffffffffffffffffffffffffffffffffffffffffffffffffff191614155b5b1515612796576040517f08c379a000000000000000000000000000000000000000000000000000000000815260040180806020018281038252603c81526020018061358a603c913960400191505060405180910390fd5b50505b6000600260009054906101000a900473ffffffffffffffffffffffffffffffffffffffff1673ffffffffffffffffffffffffffffffffffffffff166347e7ef2487896040518363ffffffff167c0100000000000000000000000000000000000000000000000000000000028152600401808373ffffffffffffffffffffffffffffffffffffffff1673ffffffffffffffffffffffffffffffffffffffff16815260200182815260200192505050602060405180830381600087803b15801561286057600080fd5b505af1158015612874573d6000803e3d6000fd5b505050506040513d602081101561288a57600080fd5b810190808051906020019092919050505090508681101515156128f8576040517f08c379a00000000000000000000000000000000000000000000000000000000081526004018080602001828103825260238152602001806135c66023913960400191505060405180910390fd5b50505050505050565b600061290b611ef8565b151561291657600080fd5b600260009054906101000a900473ffffffffffffffffffffffffffffffffffffffff1673ffffffffffffffffffffffffffffffffffffffff1663f3fef3a384846040518363ffffffff167c0100000000000000000000000000000000000000000000000000000000028152600401808373ffffffffffffffffffffffffffffffffffffffff1673ffffffffffffffffffffffffffffffffffffffff16815260200182815260200192505050602060405180830381600087803b1580156129db57600080fd5b505af11580156129ef573d6000803e3d6000fd5b505050506040513d6020811015612a0557600080fd5b8101908080519060200190929190505050905092915050565b612a26611ef8565b1515612a3157600080fd5b612a3a816133cc565b50565b600260009054906101000a900473ffffffffffffffffffffffffffffffffffffffff1681565b60008273ffffffffffffffffffffffffffffffffffffffff1663dd62ed3e30600260009054906101000a900473ffffffffffffffffffffffffffffffffffffffff166040518363ffffffff167c0100000000000000000000000000000000000000000000000000000000028152600401808373ffffffffffffffffffffffffffffffffffffffff1673ffffffffffffffffffffffffffffffffffffffff1681526020018273ffffffffffffffffffffffffffffffffffffffff1673ffffffffffffffffffffffffffffffffffffffff1681526020019250505060206040518083038186803b158015612b5457600080fd5b505afa158015612b68573d6000803e3d6000fd5b505050506040513d6020811015612b7e57600080fd5b8101908080519060200190929190505050905081811015612ed4576060600260009054906101000a900473ffffffffffffffffffffffffffffffffffffffff167fffffffffffffffffffffffffffffffffffffffffffffffffffffffffffffffff604051602401808373ffffffffffffffffffffffffffffffffffffffff1673ffffffffffffffffffffffffffffffffffffffff168152602001828152602001925050506040516020818303038152906040527f095ea7b3000000000000000000000000000000000000000000000000000000007bffffffffffffffffffffffffffffffffffffffffffffffffffffffff19166020820180517bffffffffffffffffffffffffffffffffffffffffffffffffffffffff83818316178352505050509050600060608573ffffffffffffffffffffffffffffffffffffffff16600062030d4090856040518082805190602001908083835b602083101515612cf95780518252602082019150602081019050602083039250612cd4565b6001836020036101000a038019825116818451168082178552505050505050905001915050600060405180830381858888f193505050503d8060008114612d5c576040519150601f19603f3d011682016040523d82523d6000602084013e612d61565b606091505b5091509150811515612dbe576040517f08c379a00000000000000000000000000000000000000000000000000000000081526004018080602001828103825260368152602001806135546036913960400191505060405180910390fd5b600081511480612e79575060208151148015612e78575060007f01000000000000000000000000000000000000000000000000000000000000000281601f815181101515612e0857fe5b9060200101517f010000000000000000000000000000000000000000000000000000000000000090047f0100000000000000000000000000000000000000000000000000000000000000027effffffffffffffffffffffffffffffffffffffffffffffffffffffffffffff191614155b5b1515612ed0576040517f08c379a000000000000000000000000000000000000000000000000000000000815260040180806020018281038252603d81526020018061360e603d913960400191505060405180910390fd5b5050505b6000600260009054906101000a900473ffffffffffffffffffffffffffffffffffffffff1673ffffffffffffffffffffffffffffffffffffffff166347e7ef2485856040518363ffffffff167c0100000000000000000000000000000000000000000000000000000000028152600401808373ffffffffffffffffffffffffffffffffffffffff1673ffffffffffffffffffffffffffffffffffffffff16815260200182815260200192505050602060405180830381600087803b158015612f9b57600080fd5b505af1158015612faf573d6000803e3d6000fd5b505050506040513d6020811015612fc557600080fd5b81019080805190602001909291905050509050828110151515613050576040517f08c379a00000000000000000000000000000000000000000000000000000000081526004018080602001828103825260138152602001807f6465706f736974206469646e277420776f726b0000000000000000000000000081525060200191505060405180910390fd5b50505050565b6000600260009054906101000a900473ffffffffffffffffffffffffffffffffffffffff1673ffffffffffffffffffffffffffffffffffffffff16637bf1a6276040518163ffffffff167c010000000000000000000000000000000000000000000000000000000002815260040160206040518083038186803b1580156130dc57600080fd5b505afa1580156130f0573d6000803e3d6000fd5b505050506040513d602081101561310657600080fd5b81019080805190602001909291905050509050600260009054906101000a900473ffffffffffffffffffffffffffffffffffffffff1673ffffffffffffffffffffffffffffffffffffffff1663f3fef3a382846040518363ffffffff167c0100000000000000000000000000000000000000000000000000000000028152600401808373ffffffffffffffffffffffffffffffffffffffff1673ffffffffffffffffffffffffffffffffffffffff16815260200182815260200192505050602060405180830381600087803b1580156131de57600080fd5b505af11580156131f2573d6000803e3d6000fd5b505050506040513d602081101561320857600080fd5b810190808051906020019092919050505050606082604051602401808281526020019150506040516020818303038152906040527f2e1a7d4d000000000000000000000000000000000000000000000000000000007bffffffffffffffffffffffffffffffffffffffffffffffffffffffff19166020820180517bffffffffffffffffffffffffffffffffffffffffffffffffffffffff8381831617835250505050905060008273ffffffffffffffffffffffffffffffffffffffff16600062030d4090846040518082805190602001908083835b60208310151561330257805182526020820191506020810190506020830392506132dd565b6001836020036101000a038019825116818451168082178552505050505050905001915050600060405180830381858888f193505050503d8060008114613365576040519150601f19603f3d011682016040523d82523d6000602084013e61336a565b606091505b505090508015156133c6576040517f08c379a00000000000000000000000000000000000000000000000000000000081526004018080602001828103825260288152602001806136806028913960400191505060405180910390fd5b50505050565b600073ffffffffffffffffffffffffffffffffffffffff168173ffffffffffffffffffffffffffffffffffffffff161415151561340857600080fd5b8073ffffffffffffffffffffffffffffffffffffffff166000809054906101000a900473ffffffffffffffffffffffffffffffffffffffff1673ffffffffffffffffffffffffffffffffffffffff167f8be0079c531659141344cd1fd0a4f28419497f9722a3daafe3b4186f6b6457e060405160405180910390a3806000806101000a81548173ffffffffffffffffffffffffffffffffffffffff021916908373ffffffffffffffffffffffffffffffffffffffff1602179055505056fe627579696e672066726f6d20756e69737761702074616b6573207265616c20457468657242616c616e6365206d7573742062652067726561746572207468616e203020746f206465706f736974417070726f766520617262546f6b656e20746f206265207472616e7366657272656420627920556e6973776170206469646e27742072657475726e2074727565417070726f766520746f6b656e20746f206265207472616e7366657272656420627920447574636858206469646e277420776f726b2e417070726f7665205745544820746f206265207472616e7366657272656420627920447574636858206469646e27742072657475726e20747275652e4465706f736974205745544820746f20447574636858206469646e277420776f726b2e436f6e76657274696e6720457468657220746f2057455448206469646e277420776f726b2e417070726f766520746f6b656e20746f206265207472616e7366657272656420627920447574636858206469646e27742072657475726e20747275652e417070726f7665205745544820746f206265207472616e7366657272656420627920447574636858206469646e277420776f726b2e5769746864726177206f662045746865722066726f6d2057455448206469646e277420776f726b2e417070726f766520617262546f6b656e20746f206265207472616e7366657272656420627920556e6973776170206469646e277420776f726ba165627a7a723058206f814a9ee15da6227e569d09f93562d0dc293aa02dd229fcd0681a3a36a5f3610029",
  "source": "pragma solidity ^0.5.0;\nimport \"./Arbitrage.sol\";\n/// @title Uniswap Arbitrage Module - Executes arbitrage transactions between Uniswap and DutchX.\n/// @author Billy Rennekamp - <billy@gnosis.pm>\ncontract ArbitrageMainnet is Arbitrage {\n    IUniswapFactory uniFactory = IUniswapFactory(0xc0a47dFe034B400B47bDaD5FecDa2621de6c4d95); \n    IDutchExchange dutchXProxy = IDutchExchange(0xaf1745c0f8117384Dfa5FFf40f824057c70F2ed3);\n}",
  "sourcePath": "/Users/billy/gnosis/arbitrage/contracts/ArbitrageMainnet.sol",
  "compiler": {
    "name": "solc",
    "version": "0.5.3+commit.10d17f24.Emscripten.clang"
  },
  "schemaVersion": "3.0.1",
  "updatedAt": "2019-02-21T21:13:32.531Z",
  "devdoc": {
    "author": "Billy Rennekamp - <billy@gnosis.pm>",
    "methods": {
      "depositEther()": {
        "details": "Only owner can deposit contract Ether into the DutchX as WETH"
      },
      "depositToken(address,uint256)": {
        "details": "Only owner can deposit token to the DutchX",
        "params": {
          "amount": "The amount of token to deposit.",
          "token": "The token address that is being deposited."
        }
      },
      "dutchOpportunity(address,uint256)": {
        "details": "Executes a trade opportunity on dutchX. Assumes that there is a balance of WETH already on the dutchX ",
        "params": {
          "amount": "Amount of Ether to use in arbitrage.",
          "arbToken": "Address of the token that should be arbitraged."
        },
        "return": "Returns if transaction can be executed."
      },
      "isOwner()": {
        "return": "true if `msg.sender` is the owner of the contract."
      },
      "owner()": {
        "return": "the address of the owner."
      },
      "renounceOwnership()": {
        "details": "Allows the current owner to relinquish control of the contract."
      },
      "transferEther(uint256)": {
        "details": "Only owner can transfer any Ether currently in the contract to the owner address.",
        "params": {
          "amount": "The amount of Ether to withdraw"
        }
      },
      "transferOwnership(address)": {
        "details": "Allows the current owner to transfer control of the contract to a newOwner.",
        "params": {
          "newOwner": "The address to transfer ownership to."
        }
      },
      "transferToken(address,uint256)": {
        "details": "Only owner can transfer tokens to the owner that belong to this contract",
        "params": {
          "amount": "The amount of token to transfer.",
          "token": "The token address that is being transferred."
        }
      },
      "uniswapOpportunity(address,uint256)": {
        "details": "Executes a trade opportunity on uniswap.",
        "params": {
          "amount": "Amount of Ether to use in arbitrage.",
          "arbToken": "Address of the token that should be arbitraged."
        },
        "return": "Returns if transaction can be executed."
      },
      "withdrawEther(uint256)": {
        "details": "Only owner function to withdraw WETH from the DutchX, convert it to Ether and keep it in contract",
        "params": {
          "amount": "The amount of WETH to withdraw and convert."
        }
      },
      "withdrawEtherThenTransfer(uint256)": {
        "details": "Only owner can withdraw WETH from DutchX, convert to Ether and transfer to owner",
        "params": {
          "amount": "The amount of Ether to withdraw"
        }
      },
      "withdrawToken(address,uint256)": {
        "details": "Only owner can withdraw a token from the DutchX",
        "params": {
          "amount": "The amount of token to withdraw. Can be larger than available balance and maximum will be withdrawn.",
          "token": "The token address that is being withdrawn."
        },
        "return": "Returns the amount actually withdrawn from the DutchX"
      }
    },
    "title": "Uniswap Arbitrage Module - Executes arbitrage transactions between Uniswap and DutchX."
  },
  "userdoc": {
    "methods": {
      "renounceOwnership()": {
        "notice": "Renouncing to ownership will leave the contract without an owner. It will not be possible to call the functions with the `onlyOwner` modifier anymore."
      }
    }
  }
}