{
  "contractName": "AuctioneerManaged",
  "abi": [
    {
      "constant": true,
      "inputs": [],
      "name": "auctioneer",
      "outputs": [
        {
          "name": "",
          "type": "address"
        }
      ],
      "payable": false,
      "stateMutability": "view",
      "type": "function"
    },
    {
      "constant": false,
      "inputs": [
        {
          "name": "_auctioneer",
          "type": "address"
        }
      ],
      "name": "updateAuctioneer",
      "outputs": [],
      "payable": false,
      "stateMutability": "nonpayable",
      "type": "function"
    }
  ],
  "bytecode": "0x608060405234801561001057600080fd5b506102f9806100206000396000f3fe608060405234801561001057600080fd5b5060043610610053576000357c0100000000000000000000000000000000000000000000000000000000900480635ec2c7bf14610058578063796a8076146100a2575b600080fd5b6100606100e6565b604051808273ffffffffffffffffffffffffffffffffffffffff1673ffffffffffffffffffffffffffffffffffffffff16815260200191505060405180910390f35b6100e4600480360360208110156100b857600080fd5b81019080803573ffffffffffffffffffffffffffffffffffffffff16906020019092919050505061010b565b005b6000809054906101000a900473ffffffffffffffffffffffffffffffffffffffff1681565b6000809054906101000a900473ffffffffffffffffffffffffffffffffffffffff1673ffffffffffffffffffffffffffffffffffffffff163373ffffffffffffffffffffffffffffffffffffffff161415156101b2576040517f08c379a000000000000000000000000000000000000000000000000000000000815260040180806020018281038252602a8152602001806102a4602a913960400191505060405180910390fd5b600073ffffffffffffffffffffffffffffffffffffffff168173ffffffffffffffffffffffffffffffffffffffff161415151561023a576040517f08c379a000000000000000000000000000000000000000000000000000000000815260040180806020018281038252602681526020018061027e6026913960400191505060405180910390fd5b806000806101000a81548173ffffffffffffffffffffffffffffffffffffffff021916908373ffffffffffffffffffffffffffffffffffffffff1602179055505056fe5468652061756374696f6e656572206d75737420626520612076616c696420616464726573734f6e6c79207468652061756374696f6e6565722063616e206e6f6d696e6174652061206e6577206f6e65a165627a7a723058208d324b9dc07bfd81462104c30981e32df06666356daca707c3b10be61989320f0029",
  "source": "pragma solidity ^0.5.2;\n\n\ncontract AuctioneerManaged {\n    // auctioneer has the power to manage some variables\n    address public auctioneer;\n\n    function updateAuctioneer(address _auctioneer) public onlyAuctioneer {\n        require(_auctioneer != address(0), \"The auctioneer must be a valid address\");\n        auctioneer = _auctioneer;\n    }\n\n    // > Modifiers\n    modifier onlyAuctioneer() {\n        // Only allows auctioneer to proceed\n        // R1\n        // require(msg.sender == auctioneer, \"Only auctioneer can perform this operation\");\n        require(msg.sender == auctioneer, \"Only the auctioneer can nominate a new one\");\n        _;\n    }\n}\n",
  "sourcePath": "/Users/billy/sol/arbitrage/node_modules/@gnosis.pm/dx-contracts/contracts/base/AuctioneerManaged.sol",
  "compiler": {
    "name": "solc",
    "version": "0.5.2+commit.1df8f40c.Emscripten.clang"
  },
  "schemaVersion": "3.0.1",
  "updatedAt": "2019-01-21T21:38:20.757Z",
  "devdoc": {
    "methods": {}
  },
  "userdoc": {
    "methods": {}
  }
}