{
  "contractName": "DSValue",
  "abi": [
    {
      "constant": false,
      "inputs": [
        {
          "name": "owner_",
          "type": "address"
        }
      ],
      "name": "setOwner",
      "outputs": [],
      "payable": false,
      "stateMutability": "nonpayable",
      "type": "function"
    },
    {
      "constant": false,
      "inputs": [
        {
          "name": "authority_",
          "type": "address"
        }
      ],
      "name": "setAuthority",
      "outputs": [],
      "payable": false,
      "stateMutability": "nonpayable",
      "type": "function"
    },
    {
      "constant": true,
      "inputs": [],
      "name": "owner",
      "outputs": [
        {
          "name": "",
          "type": "address"
        }
      ],
      "payable": false,
      "stateMutability": "view",
      "type": "function"
    },
    {
      "constant": true,
      "inputs": [],
      "name": "authority",
      "outputs": [
        {
          "name": "",
          "type": "address"
        }
      ],
      "payable": false,
      "stateMutability": "view",
      "type": "function"
    },
    {
      "anonymous": false,
      "inputs": [
        {
          "indexed": true,
          "name": "sig",
          "type": "bytes4"
        },
        {
          "indexed": true,
          "name": "guy",
          "type": "address"
        },
        {
          "indexed": true,
          "name": "foo",
          "type": "bytes32"
        },
        {
          "indexed": false,
          "name": "bar",
          "type": "bytes32"
        },
        {
          "indexed": false,
          "name": "wad",
          "type": "uint256"
        },
        {
          "indexed": false,
          "name": "fax",
          "type": "bytes"
        }
      ],
      "name": "LogNote",
      "type": "event"
    },
    {
      "anonymous": false,
      "inputs": [
        {
          "indexed": true,
          "name": "authority",
          "type": "address"
        }
      ],
      "name": "LogSetAuthority",
      "type": "event"
    },
    {
      "anonymous": false,
      "inputs": [
        {
          "indexed": true,
          "name": "owner",
          "type": "address"
        }
      ],
      "name": "LogSetOwner",
      "type": "event"
    },
    {
      "constant": true,
      "inputs": [],
      "name": "peek",
      "outputs": [
        {
          "name": "",
          "type": "bytes32"
        },
        {
          "name": "",
          "type": "bool"
        }
      ],
      "payable": false,
      "stateMutability": "view",
      "type": "function"
    },
    {
      "constant": true,
      "inputs": [],
      "name": "read",
      "outputs": [
        {
          "name": "",
          "type": "bytes32"
        }
      ],
      "payable": false,
      "stateMutability": "view",
      "type": "function"
    },
    {
      "constant": false,
      "inputs": [
        {
          "name": "wut",
          "type": "bytes32"
        }
      ],
      "name": "poke",
      "outputs": [],
      "payable": true,
      "stateMutability": "payable",
      "type": "function"
    },
    {
      "constant": false,
      "inputs": [],
      "name": "void",
      "outputs": [],
      "payable": true,
      "stateMutability": "payable",
      "type": "function"
    }
  ],
  "bytecode": "0x608060405233600160006101000a81548173ffffffffffffffffffffffffffffffffffffffff021916908373ffffffffffffffffffffffffffffffffffffffff1602179055503373ffffffffffffffffffffffffffffffffffffffff167fce241d7ca1f669fee44b6fc00b8eba2df3bb514eed0f6f668f8f89096e81ed9460405160405180910390a2610b89806100976000396000f3fe608060405260043610610098576000357c0100000000000000000000000000000000000000000000000000000000900480637a9e5e4b1161006b5780637a9e5e4b1461017d5780638da5cb5b146101ce578063ac4c25b214610225578063bf7e214f1461022f57610098565b806313af40351461009d5780631504460f146100ee57806357de26a41461011c57806359e02dd714610147575b600080fd5b3480156100a957600080fd5b506100ec600480360360208110156100c057600080fd5b81019080803573ffffffffffffffffffffffffffffffffffffffff169060200190929190505050610286565b005b61011a6004803603602081101561010457600080fd5b81019080803590602001909291905050506103d1565b005b34801561012857600080fd5b50610131610576565b6040518082815260200191505060405180910390f35b34801561015357600080fd5b5061015c610598565b60405180838152602001821515151581526020019250505060405180910390f35b34801561018957600080fd5b506101cc600480360360208110156101a057600080fd5b81019080803573ffffffffffffffffffffffffffffffffffffffff1690602001909291905050506105b6565b005b3480156101da57600080fd5b506101e36106ff565b604051808273ffffffffffffffffffffffffffffffffffffffff1673ffffffffffffffffffffffffffffffffffffffff16815260200191505060405180910390f35b61022d610725565b005b34801561023b57600080fd5b506102446108c3565b604051808273ffffffffffffffffffffffffffffffffffffffff1673ffffffffffffffffffffffffffffffffffffffff16815260200191505060405180910390f35b6102b4336000357fffffffff00000000000000000000000000000000000000000000000000000000166108e8565b1515610328576040517f08c379a000000000000000000000000000000000000000000000000000000000815260040180806020018281038252601d8152602001807f4974206d75737420626520616e20617574686f72697a65642063616c6c00000081525060200191505060405180910390fd5b80600160006101000a81548173ffffffffffffffffffffffffffffffffffffffff021916908373ffffffffffffffffffffffffffffffffffffffff160217905550600160009054906101000a900473ffffffffffffffffffffffffffffffffffffffff1673ffffffffffffffffffffffffffffffffffffffff167fce241d7ca1f669fee44b6fc00b8eba2df3bb514eed0f6f668f8f89096e81ed9460405160405180910390a250565b60008060043591506024359050813373ffffffffffffffffffffffffffffffffffffffff166000357fffffffff00000000000000000000000000000000000000000000000000000000167bffffffffffffffffffffffffffffffffffffffffffffffffffffffff19167f644843f351d3fba4abcd60109eaff9f54bac8fb8ccf0bab941009c21df21cf31843460003660405180858152602001848152602001806020018281038252848482818152602001925080828437600081840152601f19601f8201169050808301925050509550505050505060405180910390a46104dc336000357fffffffff00000000000000000000000000000000000000000000000000000000166108e8565b1515610550576040517f08c379a000000000000000000000000000000000000000000000000000000000815260040180806020018281038252601d8152602001807f4974206d75737420626520616e20617574686f72697a65642063616c6c00000081525060200191505060405180910390fd5b8260028190555060018060146101000a81548160ff021916908315150217905550505050565b6000806000610583610598565b9150915080151561059057fe5b819250505090565b600080600254600160149054906101000a900460ff16915091509091565b6105e4336000357fffffffff00000000000000000000000000000000000000000000000000000000166108e8565b1515610658576040517f08c379a000000000000000000000000000000000000000000000000000000000815260040180806020018281038252601d8152602001807f4974206d75737420626520616e20617574686f72697a65642063616c6c00000081525060200191505060405180910390fd5b806000806101000a81548173ffffffffffffffffffffffffffffffffffffffff021916908373ffffffffffffffffffffffffffffffffffffffff1602179055506000809054906101000a900473ffffffffffffffffffffffffffffffffffffffff1673ffffffffffffffffffffffffffffffffffffffff167f1abebea81bfa2637f28358c371278fb15ede7ea8dd28d2e03b112ff6d936ada460405160405180910390a250565b600160009054906101000a900473ffffffffffffffffffffffffffffffffffffffff1681565b60008060043591506024359050813373ffffffffffffffffffffffffffffffffffffffff166000357fffffffff00000000000000000000000000000000000000000000000000000000167bffffffffffffffffffffffffffffffffffffffffffffffffffffffff19167f644843f351d3fba4abcd60109eaff9f54bac8fb8ccf0bab941009c21df21cf31843460003660405180858152602001848152602001806020018281038252848482818152602001925080828437600081840152601f19601f8201169050808301925050509550505050505060405180910390a4610830336000357fffffffff00000000000000000000000000000000000000000000000000000000166108e8565b15156108a4576040517f08c379a000000000000000000000000000000000000000000000000000000000815260040180806020018281038252601d8152602001807f4974206d75737420626520616e20617574686f72697a65642063616c6c00000081525060200191505060405180910390fd5b6000600160146101000a81548160ff0219169083151502179055505050565b6000809054906101000a900473ffffffffffffffffffffffffffffffffffffffff1681565b60003073ffffffffffffffffffffffffffffffffffffffff168373ffffffffffffffffffffffffffffffffffffffff1614156109275760019050610b57565b600160009054906101000a900473ffffffffffffffffffffffffffffffffffffffff1673ffffffffffffffffffffffffffffffffffffffff168373ffffffffffffffffffffffffffffffffffffffff1614156109865760019050610b57565b600073ffffffffffffffffffffffffffffffffffffffff166000809054906101000a900473ffffffffffffffffffffffffffffffffffffffff1673ffffffffffffffffffffffffffffffffffffffff1614156109e55760009050610b57565b6000809054906101000a900473ffffffffffffffffffffffffffffffffffffffff1673ffffffffffffffffffffffffffffffffffffffff1663b70096138430856040518463ffffffff167c0100000000000000000000000000000000000000000000000000000000028152600401808473ffffffffffffffffffffffffffffffffffffffff1673ffffffffffffffffffffffffffffffffffffffff1681526020018373ffffffffffffffffffffffffffffffffffffffff1673ffffffffffffffffffffffffffffffffffffffff168152602001827bffffffffffffffffffffffffffffffffffffffffffffffffffffffff19167bffffffffffffffffffffffffffffffffffffffffffffffffffffffff19168152602001935050505060206040518083038186803b158015610b1957600080fd5b505afa158015610b2d573d6000803e3d6000fd5b505050506040513d6020811015610b4357600080fd5b810190808051906020019092919050505090505b9291505056fea165627a7a72305820caf66b9dea9f5e5aa2df4dd9c47f870a057139d9553b64b3b73280e614d13eca0029",
  "source": "pragma solidity ^0.5.2;\n\nimport \"../Oracle/DSThing.sol\";\n\n\ncontract DSValue is DSThing {\n    bool has;\n    bytes32 val;\n    function peek() public view returns (bytes32, bool) {\n        return (val, has);\n    }\n\n    function read() public view returns (bytes32) {\n        (bytes32 wut, bool _has) = peek();\n        assert(_has);\n        return wut;\n    }\n\n    function poke(bytes32 wut) public payable note auth {\n        val = wut;\n        has = true;\n    }\n\n    function void() public payable note auth {\n        // unset the value\n        has = false;\n    }\n}\n",
  "sourcePath": "/Users/billy/sol/arbitrage/node_modules/@gnosis.pm/dx-contracts/contracts/Oracle/DSValue.sol",
  "compiler": {
    "name": "solc",
    "version": "0.5.2+commit.1df8f40c.Emscripten.clang"
  },
  "schemaVersion": "3.0.1",
  "updatedAt": "2019-01-21T21:38:20.737Z",
  "devdoc": {
    "methods": {}
  },
  "userdoc": {
    "methods": {}
  }
}