{
  "contractName": "DxMath",
  "abi": [
    {
      "constant": true,
      "inputs": [
        {
          "name": "a",
          "type": "uint256"
        },
        {
          "name": "b",
          "type": "uint256"
        }
      ],
      "name": "min",
      "outputs": [
        {
          "name": "",
          "type": "uint256"
        }
      ],
      "payable": false,
      "stateMutability": "pure",
      "type": "function"
    },
    {
      "constant": true,
      "inputs": [
        {
          "name": "a",
          "type": "int256"
        }
      ],
      "name": "atleastZero",
      "outputs": [
        {
          "name": "",
          "type": "uint256"
        }
      ],
      "payable": false,
      "stateMutability": "pure",
      "type": "function"
    },
    {
      "constant": true,
      "inputs": [
        {
          "name": "a",
          "type": "uint256"
        },
        {
          "name": "b",
          "type": "uint256"
        }
      ],
      "name": "safeToAdd",
      "outputs": [
        {
          "name": "",
          "type": "bool"
        }
      ],
      "payable": false,
      "stateMutability": "pure",
      "type": "function"
    },
    {
      "constant": true,
      "inputs": [
        {
          "name": "a",
          "type": "uint256"
        },
        {
          "name": "b",
          "type": "uint256"
        }
      ],
      "name": "safeToSub",
      "outputs": [
        {
          "name": "",
          "type": "bool"
        }
      ],
      "payable": false,
      "stateMutability": "pure",
      "type": "function"
    },
    {
      "constant": true,
      "inputs": [
        {
          "name": "a",
          "type": "uint256"
        },
        {
          "name": "b",
          "type": "uint256"
        }
      ],
      "name": "safeToMul",
      "outputs": [
        {
          "name": "",
          "type": "bool"
        }
      ],
      "payable": false,
      "stateMutability": "pure",
      "type": "function"
    },
    {
      "constant": true,
      "inputs": [
        {
          "name": "a",
          "type": "uint256"
        },
        {
          "name": "b",
          "type": "uint256"
        }
      ],
      "name": "add",
      "outputs": [
        {
          "name": "",
          "type": "uint256"
        }
      ],
      "payable": false,
      "stateMutability": "pure",
      "type": "function"
    },
    {
      "constant": true,
      "inputs": [
        {
          "name": "a",
          "type": "uint256"
        },
        {
          "name": "b",
          "type": "uint256"
        }
      ],
      "name": "sub",
      "outputs": [
        {
          "name": "",
          "type": "uint256"
        }
      ],
      "payable": false,
      "stateMutability": "pure",
      "type": "function"
    },
    {
      "constant": true,
      "inputs": [
        {
          "name": "a",
          "type": "uint256"
        },
        {
          "name": "b",
          "type": "uint256"
        }
      ],
      "name": "mul",
      "outputs": [
        {
          "name": "",
          "type": "uint256"
        }
      ],
      "payable": false,
      "stateMutability": "pure",
      "type": "function"
    }
  ],
  "bytecode": "0x608060405234801561001057600080fd5b50610418806100206000396000f3fe608060405234801561001057600080fd5b50600436106100a5576000357c010000000000000000000000000000000000000000000000000000000090048063b67d77c511610078578063b67d77c5146101d4578063c8a4ac9c14610220578063cb10fa761461026c578063e31c71c4146102bc576100a5565b806330690468146100aa5780634e30a66c146100ec578063771602f71461013c5780637ae2b5c714610188575b600080fd5b6100d6600480360360208110156100c057600080fd5b810190808035906020019092919050505061030c565b6040518082815260200191505060405180910390f35b6101226004803603604081101561010257600080fd5b810190808035906020019092919080359060200190929190505050610328565b604051808215151515815260200191505060405180910390f35b6101726004803603604081101561015257600080fd5b810190808035906020019092919080359060200190929190505050610338565b6040518082815260200191505060405180910390f35b6101be6004803603604081101561019e57600080fd5b81019080803590602001909291908035906020019092919050505061035a565b6040518082815260200191505060405180910390f35b61020a600480360360408110156101ea57600080fd5b810190808035906020019092919080359060200190929190505050610376565b6040518082815260200191505060405180910390f35b6102566004803603604081101561023657600080fd5b810190808035906020019092919080359060200190929190505050610398565b6040518082815260200191505060405180910390f35b6102a26004803603604081101561028257600080fd5b8101908080359060200190929190803590602001909291905050506103ba565b604051808215151515815260200191505060405180910390f35b6102f2600480360360408110156102d257600080fd5b8101908080359060200190929190803590602001909291905050506103de565b604051808215151515815260200191505060405180910390f35b60008082121561031f5760009050610323565b8190505b919050565b6000828284011015905092915050565b60006103448383610328565b151561034f57600080fd5b818301905092915050565b60008183101561036c57829050610370565b8190505b92915050565b600061038283836103de565b151561038d57600080fd5b818303905092915050565b60006103a483836103ba565b15156103af57600080fd5b818302905092915050565b6000808214806103d6575082828385028115156103d357fe5b04145b905092915050565b60008183101590509291505056fea165627a7a7230582024c776d55a2293f5e1c9f4f23f715ecf8d209338668ceede91facd3dd3a7c2100029",
  "source": "pragma solidity ^0.5.2;\n\n\ncontract DxMath {\n    // > Math fns\n    function min(uint a, uint b) public pure returns (uint) {\n        if (a < b) {\n            return a;\n        } else {\n            return b;\n        }\n    }\n\n    function atleastZero(int a) public pure returns (uint) {\n        if (a < 0) {\n            return 0;\n        } else {\n            return uint(a);\n        }\n    }\n    \n    /// @dev Returns whether an add operation causes an overflow\n    /// @param a First addend\n    /// @param b Second addend\n    /// @return Did no overflow occur?\n    function safeToAdd(uint a, uint b) public pure returns (bool) {\n        return a + b >= a;\n    }\n\n    /// @dev Returns whether a subtraction operation causes an underflow\n    /// @param a Minuend\n    /// @param b Subtrahend\n    /// @return Did no underflow occur?\n    function safeToSub(uint a, uint b) public pure returns (bool) {\n        return a >= b;\n    }\n\n    /// @dev Returns whether a multiply operation causes an overflow\n    /// @param a First factor\n    /// @param b Second factor\n    /// @return Did no overflow occur?\n    function safeToMul(uint a, uint b) public pure returns (bool) {\n        return b == 0 || a * b / b == a;\n    }\n\n    /// @dev Returns sum if no overflow occurred\n    /// @param a First addend\n    /// @param b Second addend\n    /// @return Sum\n    function add(uint a, uint b) public pure returns (uint) {\n        require(safeToAdd(a, b));\n        return a + b;\n    }\n\n    /// @dev Returns difference if no overflow occurred\n    /// @param a Minuend\n    /// @param b Subtrahend\n    /// @return Difference\n    function sub(uint a, uint b) public pure returns (uint) {\n        require(safeToSub(a, b));\n        return a - b;\n    }\n\n    /// @dev Returns product if no overflow occurred\n    /// @param a First factor\n    /// @param b Second factor\n    /// @return Product\n    function mul(uint a, uint b) public pure returns (uint) {\n        require(safeToMul(a, b));\n        return a * b;\n    }\n}\n",
  "sourcePath": "/Users/billy/sol/arbitrage/node_modules/@gnosis.pm/dx-contracts/contracts/base/DxMath.sol",
  "compiler": {
    "name": "solc",
    "version": "0.5.2+commit.1df8f40c.Emscripten.clang"
  },
  "schemaVersion": "3.0.1",
  "updatedAt": "2019-01-21T21:38:20.757Z",
  "devdoc": {
    "methods": {
      "add(uint256,uint256)": {
        "details": "Returns sum if no overflow occurred",
        "params": {
          "a": "First addend",
          "b": "Second addend"
        },
        "return": "Sum"
      },
      "mul(uint256,uint256)": {
        "details": "Returns product if no overflow occurred",
        "params": {
          "a": "First factor",
          "b": "Second factor"
        },
        "return": "Product"
      },
      "safeToAdd(uint256,uint256)": {
        "details": "Returns whether an add operation causes an overflow",
        "params": {
          "a": "First addend",
          "b": "Second addend"
        },
        "return": "Did no overflow occur?"
      },
      "safeToMul(uint256,uint256)": {
        "details": "Returns whether a multiply operation causes an overflow",
        "params": {
          "a": "First factor",
          "b": "Second factor"
        },
        "return": "Did no overflow occur?"
      },
      "safeToSub(uint256,uint256)": {
        "details": "Returns whether a subtraction operation causes an underflow",
        "params": {
          "a": "Minuend",
          "b": "Subtrahend"
        },
        "return": "Did no underflow occur?"
      },
      "sub(uint256,uint256)": {
        "details": "Returns difference if no overflow occurred",
        "params": {
          "a": "Minuend",
          "b": "Subtrahend"
        },
        "return": "Difference"
      }
    }
  },
  "userdoc": {
    "methods": {}
  }
}