{
  "contractName": "DxUpgrade",
  "abi": [
    {
      "constant": true,
      "inputs": [],
      "name": "masterCopyCountdown",
      "outputs": [
        {
          "name": "",
          "type": "uint256"
        }
      ],
      "payable": false,
      "stateMutability": "view",
      "type": "function"
    },
    {
      "constant": true,
      "inputs": [
        {
          "name": "a",
          "type": "int256"
        }
      ],
      "name": "atleastZero",
      "outputs": [
        {
          "name": "",
          "type": "uint256"
        }
      ],
      "payable": false,
      "stateMutability": "pure",
      "type": "function"
    },
    {
      "constant": true,
      "inputs": [
        {
          "name": "a",
          "type": "uint256"
        },
        {
          "name": "b",
          "type": "uint256"
        }
      ],
      "name": "safeToAdd",
      "outputs": [
        {
          "name": "",
          "type": "bool"
        }
      ],
      "payable": false,
      "stateMutability": "pure",
      "type": "function"
    },
    {
      "constant": true,
      "inputs": [],
      "name": "auctioneer",
      "outputs": [
        {
          "name": "",
          "type": "address"
        }
      ],
      "payable": false,
      "stateMutability": "view",
      "type": "function"
    },
    {
      "constant": true,
      "inputs": [],
      "name": "newMasterCopy",
      "outputs": [
        {
          "name": "",
          "type": "address"
        }
      ],
      "payable": false,
      "stateMutability": "view",
      "type": "function"
    },
    {
      "constant": true,
      "inputs": [
        {
          "name": "a",
          "type": "uint256"
        },
        {
          "name": "b",
          "type": "uint256"
        }
      ],
      "name": "add",
      "outputs": [
        {
          "name": "",
          "type": "uint256"
        }
      ],
      "payable": false,
      "stateMutability": "pure",
      "type": "function"
    },
    {
      "constant": false,
      "inputs": [
        {
          "name": "_auctioneer",
          "type": "address"
        }
      ],
      "name": "updateAuctioneer",
      "outputs": [],
      "payable": false,
      "stateMutability": "nonpayable",
      "type": "function"
    },
    {
      "constant": true,
      "inputs": [
        {
          "name": "a",
          "type": "uint256"
        },
        {
          "name": "b",
          "type": "uint256"
        }
      ],
      "name": "min",
      "outputs": [
        {
          "name": "",
          "type": "uint256"
        }
      ],
      "payable": false,
      "stateMutability": "pure",
      "type": "function"
    },
    {
      "constant": true,
      "inputs": [],
      "name": "masterCopy",
      "outputs": [
        {
          "name": "",
          "type": "address"
        }
      ],
      "payable": false,
      "stateMutability": "view",
      "type": "function"
    },
    {
      "constant": true,
      "inputs": [
        {
          "name": "a",
          "type": "uint256"
        },
        {
          "name": "b",
          "type": "uint256"
        }
      ],
      "name": "sub",
      "outputs": [
        {
          "name": "",
          "type": "uint256"
        }
      ],
      "payable": false,
      "stateMutability": "pure",
      "type": "function"
    },
    {
      "constant": true,
      "inputs": [
        {
          "name": "a",
          "type": "uint256"
        },
        {
          "name": "b",
          "type": "uint256"
        }
      ],
      "name": "mul",
      "outputs": [
        {
          "name": "",
          "type": "uint256"
        }
      ],
      "payable": false,
      "stateMutability": "pure",
      "type": "function"
    },
    {
      "constant": true,
      "inputs": [
        {
          "name": "a",
          "type": "uint256"
        },
        {
          "name": "b",
          "type": "uint256"
        }
      ],
      "name": "safeToMul",
      "outputs": [
        {
          "name": "",
          "type": "bool"
        }
      ],
      "payable": false,
      "stateMutability": "pure",
      "type": "function"
    },
    {
      "constant": true,
      "inputs": [
        {
          "name": "a",
          "type": "uint256"
        },
        {
          "name": "b",
          "type": "uint256"
        }
      ],
      "name": "safeToSub",
      "outputs": [
        {
          "name": "",
          "type": "bool"
        }
      ],
      "payable": false,
      "stateMutability": "pure",
      "type": "function"
    },
    {
      "anonymous": false,
      "inputs": [
        {
          "indexed": false,
          "name": "newMasterCopy",
          "type": "address"
        }
      ],
      "name": "NewMasterCopyProposal",
      "type": "event"
    },
    {
      "constant": false,
      "inputs": [
        {
          "name": "_masterCopy",
          "type": "address"
        }
      ],
      "name": "startMasterCopyCountdown",
      "outputs": [],
      "payable": false,
      "stateMutability": "nonpayable",
      "type": "function"
    },
    {
      "constant": false,
      "inputs": [],
      "name": "updateMasterCopy",
      "outputs": [],
      "payable": false,
      "stateMutability": "nonpayable",
      "type": "function"
    }
  ],
  "bytecode": "0x608060405234801561001057600080fd5b50610c49806100206000396000f3fe608060405234801561001057600080fd5b5060043610610112576000357c010000000000000000000000000000000000000000000000000000000090048063796a8076116100b4578063c8a4ac9c11610083578063c8a4ac9c146103d7578063cb10fa7614610423578063e31c71c414610473578063f625ee28146104c357610112565b8063796a8076146102b15780637ae2b5c7146102f5578063a619486e14610341578063b67d77c51461038b57610112565b80634e30a66c116100f05780634e30a66c146101815780635ec2c7bf146101d15780636ea683601461021b578063771602f71461026557610112565b80630e7c0f80146101175780632cef4dac14610135578063306904681461013f575b600080fd5b61011f610507565b6040518082815260200191505060405180910390f35b61013d61050d565b005b61016b6004803603602081101561015557600080fd5b81019080803590602001909291905050506106ba565b6040518082815260200191505060405180910390f35b6101b76004803603604081101561019757600080fd5b8101908080359060200190929190803590602001909291905050506106d6565b604051808215151515815260200191505060405180910390f35b6101d96106e6565b604051808273ffffffffffffffffffffffffffffffffffffffff1673ffffffffffffffffffffffffffffffffffffffff16815260200191505060405180910390f35b61022361070c565b604051808273ffffffffffffffffffffffffffffffffffffffff1673ffffffffffffffffffffffffffffffffffffffff16815260200191505060405180910390f35b61029b6004803603604081101561027b57600080fd5b810190808035906020019092919080359060200190929190505050610732565b6040518082815260200191505060405180910390f35b6102f3600480360360208110156102c757600080fd5b81019080803573ffffffffffffffffffffffffffffffffffffffff169060200190929190505050610754565b005b61032b6004803603604081101561030b57600080fd5b8101908080359060200190929190803590602001909291905050506108c8565b6040518082815260200191505060405180910390f35b6103496108e4565b604051808273ffffffffffffffffffffffffffffffffffffffff1673ffffffffffffffffffffffffffffffffffffffff16815260200191505060405180910390f35b6103c1600480360360408110156103a157600080fd5b810190808035906020019092919080359060200190929190505050610909565b6040518082815260200191505060405180910390f35b61040d600480360360408110156103ed57600080fd5b81019080803590602001909291908035906020019092919050505061092b565b6040518082815260200191505060405180910390f35b6104596004803603604081101561043957600080fd5b81019080803590602001909291908035906020019092919050505061094d565b604051808215151515815260200191505060405180910390f35b6104a96004803603604081101561048957600080fd5b810190808035906020019092919080359060200190929190505050610971565b604051808215151515815260200191505060405180910390f35b610505600480360360208110156104d957600080fd5b81019080803573ffffffffffffffffffffffffffffffffffffffff16906020019092919050505061097f565b005b60035481565b600073ffffffffffffffffffffffffffffffffffffffff16600260009054906101000a900473ffffffffffffffffffffffffffffffffffffffff1673ffffffffffffffffffffffffffffffffffffffff16141515156105b7576040517f08c379a000000000000000000000000000000000000000000000000000000000815260040180806020018281038252602b815260200180610bf3602b913960400191505060405180910390fd5b6003544210151515610614576040517f08c379a0000000000000000000000000000000000000000000000000000000008152600401808060200182810382526039815260200180610b906039913960400191505060405180910390fd5b600260009054906101000a900473ffffffffffffffffffffffffffffffffffffffff166000806101000a81548173ffffffffffffffffffffffffffffffffffffffff021916908373ffffffffffffffffffffffffffffffffffffffff1602179055506000600260006101000a81548173ffffffffffffffffffffffffffffffffffffffff021916908373ffffffffffffffffffffffffffffffffffffffff160217905550565b6000808212156106cd57600090506106d1565b8190505b919050565b6000828284011015905092915050565b600160009054906101000a900473ffffffffffffffffffffffffffffffffffffffff1681565b600260009054906101000a900473ffffffffffffffffffffffffffffffffffffffff1681565b600061073e83836106d6565b151561074957600080fd5b818301905092915050565b600160009054906101000a900473ffffffffffffffffffffffffffffffffffffffff1673ffffffffffffffffffffffffffffffffffffffff163373ffffffffffffffffffffffffffffffffffffffff161415156107fc576040517f08c379a000000000000000000000000000000000000000000000000000000000815260040180806020018281038252602a815260200180610bc9602a913960400191505060405180910390fd5b600073ffffffffffffffffffffffffffffffffffffffff168173ffffffffffffffffffffffffffffffffffffffff1614151515610884576040517f08c379a0000000000000000000000000000000000000000000000000000000008152600401808060200182810382526026815260200180610b6a6026913960400191505060405180910390fd5b80600160006101000a81548173ffffffffffffffffffffffffffffffffffffffff021916908373ffffffffffffffffffffffffffffffffffffffff16021790555050565b6000818310156108da578290506108de565b8190505b92915050565b6000809054906101000a900473ffffffffffffffffffffffffffffffffffffffff1681565b60006109158383610971565b151561092057600080fd5b818303905092915050565b6000610937838361094d565b151561094257600080fd5b818302905092915050565b6000808214806109695750828283850281151561096657fe5b04145b905092915050565b600081831015905092915050565b600160009054906101000a900473ffffffffffffffffffffffffffffffffffffffff1673ffffffffffffffffffffffffffffffffffffffff163373ffffffffffffffffffffffffffffffffffffffff16141515610a27576040517f08c379a000000000000000000000000000000000000000000000000000000000815260040180806020018281038252602a815260200180610bc9602a913960400191505060405180910390fd5b600073ffffffffffffffffffffffffffffffffffffffff168173ffffffffffffffffffffffffffffffffffffffff1614151515610aaf576040517f08c379a000000000000000000000000000000000000000000000000000000000815260040180806020018281038252602b815260200180610bf3602b913960400191505060405180910390fd5b80600260006101000a81548173ffffffffffffffffffffffffffffffffffffffff021916908373ffffffffffffffffffffffffffffffffffffffff160217905550610afd4262278d00610732565b6003819055507f36dceb79f427eda3edba9ac3c1d4db7a6e4d0b8637d97320847d93fa8e2f7a0481604051808273ffffffffffffffffffffffffffffffffffffffff1673ffffffffffffffffffffffffffffffffffffffff16815260200191505060405180910390a15056fe5468652061756374696f6e656572206d75737420626520612076616c69642061646472657373546865206d617374657220636f6e74726163742063616e6e6f74206265207570646174656420696e20612077616974696e6720706572696f644f6e6c79207468652061756374696f6e6565722063616e206e6f6d696e6174652061206e6577206f6e65546865206e6577206d617374657220636f7079206d75737420626520612076616c69642061646472657373a165627a7a72305820a31c20dfa8d1901b33e5214b8aa9c790ab1cdbffc1bd20285debbfa18978befc0029",
  "source": "pragma solidity ^0.5.2;\n\nimport \"./DxMath.sol\";\nimport \"./AuctioneerManaged.sol\";\nimport \"@gnosis.pm/util-contracts/contracts/Proxy.sol\";\n\n\ncontract DxUpgrade is Proxied, AuctioneerManaged, DxMath {\n    uint constant WAITING_PERIOD_CHANGE_MASTERCOPY = 30 days;\n\n    address public newMasterCopy;\n    // Time when new masterCopy is updatabale\n    uint public masterCopyCountdown;\n\n    event NewMasterCopyProposal(address newMasterCopy);\n\n    function startMasterCopyCountdown(address _masterCopy) public onlyAuctioneer {\n        require(_masterCopy != address(0), \"The new master copy must be a valid address\");\n\n        // Update masterCopyCountdown\n        newMasterCopy = _masterCopy;\n        masterCopyCountdown = add(block.timestamp, WAITING_PERIOD_CHANGE_MASTERCOPY);\n        emit NewMasterCopyProposal(_masterCopy);\n    }\n\n    function updateMasterCopy() public {\n        require(newMasterCopy != address(0), \"The new master copy must be a valid address\");\n        require(block.timestamp >= masterCopyCountdown, \"The master contract cannot be updated in a waiting period\");\n\n        // Update masterCopy\n        masterCopy = newMasterCopy;\n        newMasterCopy = address(0);\n    }\n\n}\n",
  "sourcePath": "/Users/billy/sol/arbitrage/node_modules/@gnosis.pm/dx-contracts/contracts/base/DxUpgrade.sol",
  "compiler": {
    "name": "solc",
    "version": "0.5.2+commit.1df8f40c.Emscripten.clang"
  },
  "schemaVersion": "3.0.1",
  "updatedAt": "2019-01-21T21:38:20.758Z",
  "devdoc": {
    "methods": {
      "add(uint256,uint256)": {
        "details": "Returns sum if no overflow occurred",
        "params": {
          "a": "First addend",
          "b": "Second addend"
        },
        "return": "Sum"
      },
      "mul(uint256,uint256)": {
        "details": "Returns product if no overflow occurred",
        "params": {
          "a": "First factor",
          "b": "Second factor"
        },
        "return": "Product"
      },
      "safeToAdd(uint256,uint256)": {
        "details": "Returns whether an add operation causes an overflow",
        "params": {
          "a": "First addend",
          "b": "Second addend"
        },
        "return": "Did no overflow occur?"
      },
      "safeToMul(uint256,uint256)": {
        "details": "Returns whether a multiply operation causes an overflow",
        "params": {
          "a": "First factor",
          "b": "Second factor"
        },
        "return": "Did no overflow occur?"
      },
      "safeToSub(uint256,uint256)": {
        "details": "Returns whether a subtraction operation causes an underflow",
        "params": {
          "a": "Minuend",
          "b": "Subtrahend"
        },
        "return": "Did no underflow occur?"
      },
      "sub(uint256,uint256)": {
        "details": "Returns difference if no overflow occurred",
        "params": {
          "a": "Minuend",
          "b": "Subtrahend"
        },
        "return": "Difference"
      }
    }
  },
  "userdoc": {
    "methods": {}
  }
}