{
  "contractName": "EthOracle",
  "abi": [
    {
      "constant": true,
      "inputs": [
        {
          "name": "a",
          "type": "int256"
        }
      ],
      "name": "atleastZero",
      "outputs": [
        {
          "name": "",
          "type": "uint256"
        }
      ],
      "payable": false,
      "stateMutability": "pure",
      "type": "function"
    },
    {
      "constant": true,
      "inputs": [
        {
          "name": "a",
          "type": "uint256"
        },
        {
          "name": "b",
          "type": "uint256"
        }
      ],
      "name": "safeToAdd",
      "outputs": [
        {
          "name": "",
          "type": "bool"
        }
      ],
      "payable": false,
      "stateMutability": "pure",
      "type": "function"
    },
    {
      "constant": true,
      "inputs": [],
      "name": "auctioneer",
      "outputs": [
        {
          "name": "",
          "type": "address"
        }
      ],
      "payable": false,
      "stateMutability": "view",
      "type": "function"
    },
    {
      "constant": true,
      "inputs": [],
      "name": "ethUSDOracle",
      "outputs": [
        {
          "name": "",
          "type": "address"
        }
      ],
      "payable": false,
      "stateMutability": "view",
      "type": "function"
    },
    {
      "constant": true,
      "inputs": [
        {
          "name": "a",
          "type": "uint256"
        },
        {
          "name": "b",
          "type": "uint256"
        }
      ],
      "name": "add",
      "outputs": [
        {
          "name": "",
          "type": "uint256"
        }
      ],
      "payable": false,
      "stateMutability": "pure",
      "type": "function"
    },
    {
      "constant": false,
      "inputs": [
        {
          "name": "_auctioneer",
          "type": "address"
        }
      ],
      "name": "updateAuctioneer",
      "outputs": [],
      "payable": false,
      "stateMutability": "nonpayable",
      "type": "function"
    },
    {
      "constant": true,
      "inputs": [
        {
          "name": "a",
          "type": "uint256"
        },
        {
          "name": "b",
          "type": "uint256"
        }
      ],
      "name": "min",
      "outputs": [
        {
          "name": "",
          "type": "uint256"
        }
      ],
      "payable": false,
      "stateMutability": "pure",
      "type": "function"
    },
    {
      "constant": true,
      "inputs": [],
      "name": "oracleInterfaceCountdown",
      "outputs": [
        {
          "name": "",
          "type": "uint256"
        }
      ],
      "payable": false,
      "stateMutability": "view",
      "type": "function"
    },
    {
      "constant": true,
      "inputs": [
        {
          "name": "a",
          "type": "uint256"
        },
        {
          "name": "b",
          "type": "uint256"
        }
      ],
      "name": "sub",
      "outputs": [
        {
          "name": "",
          "type": "uint256"
        }
      ],
      "payable": false,
      "stateMutability": "pure",
      "type": "function"
    },
    {
      "constant": true,
      "inputs": [
        {
          "name": "a",
          "type": "uint256"
        },
        {
          "name": "b",
          "type": "uint256"
        }
      ],
      "name": "mul",
      "outputs": [
        {
          "name": "",
          "type": "uint256"
        }
      ],
      "payable": false,
      "stateMutability": "pure",
      "type": "function"
    },
    {
      "constant": true,
      "inputs": [
        {
          "name": "a",
          "type": "uint256"
        },
        {
          "name": "b",
          "type": "uint256"
        }
      ],
      "name": "safeToMul",
      "outputs": [
        {
          "name": "",
          "type": "bool"
        }
      ],
      "payable": false,
      "stateMutability": "pure",
      "type": "function"
    },
    {
      "constant": true,
      "inputs": [],
      "name": "newProposalEthUSDOracle",
      "outputs": [
        {
          "name": "",
          "type": "address"
        }
      ],
      "payable": false,
      "stateMutability": "view",
      "type": "function"
    },
    {
      "constant": true,
      "inputs": [
        {
          "name": "a",
          "type": "uint256"
        },
        {
          "name": "b",
          "type": "uint256"
        }
      ],
      "name": "safeToSub",
      "outputs": [
        {
          "name": "",
          "type": "bool"
        }
      ],
      "payable": false,
      "stateMutability": "pure",
      "type": "function"
    },
    {
      "anonymous": false,
      "inputs": [
        {
          "indexed": false,
          "name": "priceOracleInterface",
          "type": "address"
        }
      ],
      "name": "NewOracleProposal",
      "type": "event"
    },
    {
      "constant": false,
      "inputs": [
        {
          "name": "_ethUSDOracle",
          "type": "address"
        }
      ],
      "name": "initiateEthUsdOracleUpdate",
      "outputs": [],
      "payable": false,
      "stateMutability": "nonpayable",
      "type": "function"
    },
    {
      "constant": false,
      "inputs": [],
      "name": "updateEthUSDOracle",
      "outputs": [],
      "payable": false,
      "stateMutability": "nonpayable",
      "type": "function"
    }
  ],
  "bytecode": "0x608060405234801561001057600080fd5b50610c66806100206000396000f3fe608060405234801561001057600080fd5b5060043610610112576000357c0100000000000000000000000000000000000000000000000000000000900480637ae2b5c7116100b4578063cb10fa7611610083578063cb10fa7614610413578063cd04ccfc14610463578063e31c71c4146104ad578063f4279d1f146104fd57610112565b80637ae2b5c714610311578063a48cef4a1461035d578063b67d77c51461037b578063c8a4ac9c146103c757610112565b80635ec2c7bf116100f05780635ec2c7bf146101ed578063706eb3ab14610237578063771602f714610281578063796a8076146102cd57610112565b80633069046814610117578063403fbf54146101595780634e30a66c1461019d575b600080fd5b6101436004803603602081101561012d57600080fd5b8101908080359060200190929190505050610507565b6040518082815260200191505060405180910390f35b61019b6004803603602081101561016f57600080fd5b81019080803573ffffffffffffffffffffffffffffffffffffffff169060200190929190505050610523565b005b6101d3600480360360408110156101b357600080fd5b810190808035906020019092919080359060200190929190505050610729565b604051808215151515815260200191505060405180910390f35b6101f5610739565b604051808273ffffffffffffffffffffffffffffffffffffffff1673ffffffffffffffffffffffffffffffffffffffff16815260200191505060405180910390f35b61023f61075e565b604051808273ffffffffffffffffffffffffffffffffffffffff1673ffffffffffffffffffffffffffffffffffffffff16815260200191505060405180910390f35b6102b76004803603604081101561029757600080fd5b810190808035906020019092919080359060200190929190505050610784565b6040518082815260200191505060405180910390f35b61030f600480360360208110156102e357600080fd5b81019080803573ffffffffffffffffffffffffffffffffffffffff1690602001909291905050506107a6565b005b6103476004803603604081101561032757600080fd5b810190808035906020019092919080359060200190929190505050610918565b6040518082815260200191505060405180910390f35b610365610934565b6040518082815260200191505060405180910390f35b6103b16004803603604081101561039157600080fd5b81019080803590602001909291908035906020019092919050505061093a565b6040518082815260200191505060405180910390f35b6103fd600480360360408110156103dd57600080fd5b81019080803590602001909291908035906020019092919050505061095c565b6040518082815260200191505060405180910390f35b6104496004803603604081101561042957600080fd5b81019080803590602001909291908035906020019092919050505061097e565b604051808215151515815260200191505060405180910390f35b61046b6109a2565b604051808273ffffffffffffffffffffffffffffffffffffffff1673ffffffffffffffffffffffffffffffffffffffff16815260200191505060405180910390f35b6104e3600480360360408110156104c357600080fd5b8101908080359060200190929190803590602001909291905050506109c8565b604051808215151515815260200191505060405180910390f35b6105056109d6565b005b60008082121561051a576000905061051e565b8190505b919050565b6000809054906101000a900473ffffffffffffffffffffffffffffffffffffffff1673ffffffffffffffffffffffffffffffffffffffff163373ffffffffffffffffffffffffffffffffffffffff161415156105ca576040517f08c379a000000000000000000000000000000000000000000000000000000000815260040180806020018281038252602a815260200180610bd1602a913960400191505060405180910390fd5b600073ffffffffffffffffffffffffffffffffffffffff168173ffffffffffffffffffffffffffffffffffffffff161415151561066f576040517f08c379a00000000000000000000000000000000000000000000000000000000081526004018080602001828103825260208152602001807f546865206f7261636c652061646472657373206d7573742062652076616c696481525060200191505060405180910390fd5b80600260006101000a81548173ffffffffffffffffffffffffffffffffffffffff021916908373ffffffffffffffffffffffffffffffffffffffff1602179055506106bd4262278d00610784565b6003819055507f3f174cfd713408ca6e4620d1efcc241b23fc39aa7d4694bd98610d3384dc001c81604051808273ffffffffffffffffffffffffffffffffffffffff1673ffffffffffffffffffffffffffffffffffffffff16815260200191505060405180910390a150565b6000828284011015905092915050565b6000809054906101000a900473ffffffffffffffffffffffffffffffffffffffff1681565b600160009054906101000a900473ffffffffffffffffffffffffffffffffffffffff1681565b60006107908383610729565b151561079b57600080fd5b818301905092915050565b6000809054906101000a900473ffffffffffffffffffffffffffffffffffffffff1673ffffffffffffffffffffffffffffffffffffffff163373ffffffffffffffffffffffffffffffffffffffff1614151561084d576040517f08c379a000000000000000000000000000000000000000000000000000000000815260040180806020018281038252602a815260200180610bd1602a913960400191505060405180910390fd5b600073ffffffffffffffffffffffffffffffffffffffff168173ffffffffffffffffffffffffffffffffffffffff16141515156108d5576040517f08c379a0000000000000000000000000000000000000000000000000000000008152600401808060200182810382526026815260200180610bab6026913960400191505060405180910390fd5b806000806101000a81548173ffffffffffffffffffffffffffffffffffffffff021916908373ffffffffffffffffffffffffffffffffffffffff16021790555050565b60008183101561092a5782905061092e565b8190505b92915050565b60035481565b600061094683836109c8565b151561095157600080fd5b818303905092915050565b6000610968838361097e565b151561097357600080fd5b818302905092915050565b60008082148061099a5750828283850281151561099757fe5b04145b905092915050565b600260009054906101000a900473ffffffffffffffffffffffffffffffffffffffff1681565b600081831015905092915050565b600073ffffffffffffffffffffffffffffffffffffffff16600260009054906101000a900473ffffffffffffffffffffffffffffffffffffffff1673ffffffffffffffffffffffffffffffffffffffff1614151515610a80576040517f08c379a0000000000000000000000000000000000000000000000000000000008152600401808060200182810382526027815260200180610b846027913960400191505060405180910390fd5b42600354101515610adc576040517f08c379a0000000000000000000000000000000000000000000000000000000008152600401808060200182810382526040815260200180610bfb6040913960400191505060405180910390fd5b600260009054906101000a900473ffffffffffffffffffffffffffffffffffffffff16600160006101000a81548173ffffffffffffffffffffffffffffffffffffffff021916908373ffffffffffffffffffffffffffffffffffffffff1602179055506000600260006101000a81548173ffffffffffffffffffffffffffffffffffffffff021916908373ffffffffffffffffffffffffffffffffffffffff16021790555056fe546865206e65772070726f706f73616c206d75737420626520612076616c6964206164647265735468652061756374696f6e656572206d75737420626520612076616c696420616464726573734f6e6c79207468652061756374696f6e6565722063616e206e6f6d696e6174652061206e6577206f6e6549742773206e6f7420706f737369626c6520746f2075706461746520746865206f7261636c6520647572696e67207468652077616974696e6720706572696f64a165627a7a723058207bb2e6c0f7786724599b46246c1c39459733c4a29aa77afdb898c544e3867a010029",
  "source": "pragma solidity ^0.5.2;\n\nimport \"../Oracle/PriceOracleInterface.sol\";\nimport \"./AuctioneerManaged.sol\";\nimport \"./DxMath.sol\";\n\n\ncontract EthOracle is AuctioneerManaged, DxMath {\n    uint constant WAITING_PERIOD_CHANGE_ORACLE = 30 days;\n\n    // Price Oracle interface\n    PriceOracleInterface public ethUSDOracle;\n    // Price Oracle interface proposals during update process\n    PriceOracleInterface public newProposalEthUSDOracle;\n\n    uint public oracleInterfaceCountdown;\n\n    event NewOracleProposal(PriceOracleInterface priceOracleInterface);\n\n    function initiateEthUsdOracleUpdate(PriceOracleInterface _ethUSDOracle) public onlyAuctioneer {\n        require(address(_ethUSDOracle) != address(0), \"The oracle address must be valid\");\n        newProposalEthUSDOracle = _ethUSDOracle;\n        oracleInterfaceCountdown = add(block.timestamp, WAITING_PERIOD_CHANGE_ORACLE);\n        emit NewOracleProposal(_ethUSDOracle);\n    }\n\n    function updateEthUSDOracle() public {\n        require(address(newProposalEthUSDOracle) != address(0), \"The new proposal must be a valid addres\");\n        require(\n            oracleInterfaceCountdown < block.timestamp,\n            \"It's not possible to update the oracle during the waiting period\"\n        );\n        ethUSDOracle = newProposalEthUSDOracle;\n        newProposalEthUSDOracle = PriceOracleInterface(0);\n    }\n}\n",
  "sourcePath": "/Users/billy/sol/arbitrage/node_modules/@gnosis.pm/dx-contracts/contracts/base/EthOracle.sol",
  "compiler": {
    "name": "solc",
    "version": "0.5.2+commit.1df8f40c.Emscripten.clang"
  },
  "schemaVersion": "3.0.1",
  "updatedAt": "2019-01-21T21:38:20.758Z",
  "devdoc": {
    "methods": {
      "add(uint256,uint256)": {
        "details": "Returns sum if no overflow occurred",
        "params": {
          "a": "First addend",
          "b": "Second addend"
        },
        "return": "Sum"
      },
      "mul(uint256,uint256)": {
        "details": "Returns product if no overflow occurred",
        "params": {
          "a": "First factor",
          "b": "Second factor"
        },
        "return": "Product"
      },
      "safeToAdd(uint256,uint256)": {
        "details": "Returns whether an add operation causes an overflow",
        "params": {
          "a": "First addend",
          "b": "Second addend"
        },
        "return": "Did no overflow occur?"
      },
      "safeToMul(uint256,uint256)": {
        "details": "Returns whether a multiply operation causes an overflow",
        "params": {
          "a": "First factor",
          "b": "Second factor"
        },
        "return": "Did no overflow occur?"
      },
      "safeToSub(uint256,uint256)": {
        "details": "Returns whether a subtraction operation causes an underflow",
        "params": {
          "a": "Minuend",
          "b": "Subtrahend"
        },
        "return": "Did no underflow occur?"
      },
      "sub(uint256,uint256)": {
        "details": "Returns difference if no overflow occurred",
        "params": {
          "a": "Minuend",
          "b": "Subtrahend"
        },
        "return": "Difference"
      }
    }
  },
  "userdoc": {
    "methods": {}
  }
}