{
  "contractName": "GnosisMath",
  "abi": [
    {
      "constant": true,
      "inputs": [],
      "name": "LN2",
      "outputs": [
        {
          "name": "",
          "type": "uint256"
        }
      ],
      "payable": false,
      "stateMutability": "view",
      "type": "function"
    },
    {
      "constant": true,
      "inputs": [],
      "name": "LOG2_E",
      "outputs": [
        {
          "name": "",
          "type": "uint256"
        }
      ],
      "payable": false,
      "stateMutability": "view",
      "type": "function"
    },
    {
      "constant": true,
      "inputs": [],
      "name": "ONE",
      "outputs": [
        {
          "name": "",
          "type": "uint256"
        }
      ],
      "payable": false,
      "stateMutability": "view",
      "type": "function"
    },
    {
      "constant": true,
      "inputs": [
        {
          "name": "x",
          "type": "int256"
        }
      ],
      "name": "exp",
      "outputs": [
        {
          "name": "",
          "type": "uint256"
        }
      ],
      "payable": false,
      "stateMutability": "pure",
      "type": "function"
    },
    {
      "constant": true,
      "inputs": [
        {
          "name": "x",
          "type": "uint256"
        }
      ],
      "name": "ln",
      "outputs": [
        {
          "name": "",
          "type": "int256"
        }
      ],
      "payable": false,
      "stateMutability": "pure",
      "type": "function"
    },
    {
      "constant": true,
      "inputs": [
        {
          "name": "x",
          "type": "uint256"
        }
      ],
      "name": "floorLog2",
      "outputs": [
        {
          "name": "lo",
          "type": "int256"
        }
      ],
      "payable": false,
      "stateMutability": "pure",
      "type": "function"
    },
    {
      "constant": true,
      "inputs": [
        {
          "name": "nums",
          "type": "int256[]"
        }
      ],
      "name": "max",
      "outputs": [
        {
          "name": "maxNum",
          "type": "int256"
        }
      ],
      "payable": false,
      "stateMutability": "pure",
      "type": "function"
    }
  ],
  "bytecode": "0x610d0d610030600b82828239805160001a6073146000811461002057610022565bfe5b5030600052607381538281f3fe730000000000000000000000000000000000000000301460806040526004361061009a576000357c0100000000000000000000000000000000000000000000000000000000900463ffffffff168063027806771461009f57806324902e24146100bd57806324d4e90a146100db57806345b8bafc1461011d578063c2ee3a081461015f578063ccc138141461017d578063e46751e314610249575b600080fd5b6100a761028b565b6040518082815260200191505060405180910390f35b6100c5610297565b6040518082815260200191505060405180910390f35b610107600480360360208110156100f157600080fd5b81019080803590602001909291905050506102a4565b6040518082815260200191505060405180910390f35b6101496004803603602081101561013357600080fd5b810190808035906020019092919050505061064d565b6040518082815260200191505060405180910390f35b610167610729565b6040518082815260200191505060405180910390f35b6102336004803603602081101561019357600080fd5b81019080803590602001906401000000008111156101b057600080fd5b8201836020820111156101c257600080fd5b803590602001918460208302840111640100000000831117156101e457600080fd5b919080806020026020016040519081016040528093929190818152602001838360200280828437600081840152601f19601f820116905080830192505050505050509192919290505050610736565b6040518082815260200191505060405180910390f35b6102756004803603602081101561025f57600080fd5b81019080803590602001909291905050506107c6565b6040518082815260200191505060405180910390f35b67b17217f7d1cf79ac81565b680171547652b82fe17781565b600080821115156102b457600080fd5b60006102bf8361064d565b90506000808212156102dc5781600003849060020a0290506102eb565b8184908060020a820491505090505b6000680100000000000000008201680100000000000000008084030281151561031057fe5b0590506000819050600068010000000000000000836801000000000000000085860281151561033b57fe5b050281151561034657fe5b05905060038181151561035557fe5b058201915068010000000000000000836801000000000000000085840281151561037b57fe5b050281151561038657fe5b05905060058181151561039557fe5b05820191506801000000000000000083680100000000000000008584028115156103bb57fe5b05028115156103c657fe5b0590506007818115156103d557fe5b05820191506801000000000000000083680100000000000000008584028115156103fb57fe5b050281151561040657fe5b05905060098181151561041557fe5b058201915068010000000000000000836801000000000000000085840281151561043b57fe5b050281151561044657fe5b059050600b8181151561045557fe5b058201915068010000000000000000836801000000000000000085840281151561047b57fe5b050281151561048657fe5b059050600d8181151561049557fe5b05820191506801000000000000000083680100000000000000008584028115156104bb57fe5b05028115156104c657fe5b059050600f818115156104d557fe5b05820191506801000000000000000083680100000000000000008584028115156104fb57fe5b050281151561050657fe5b05905060118181151561051557fe5b058201915068010000000000000000836801000000000000000085840281151561053b57fe5b050281151561054657fe5b05905060138181151561055557fe5b058201915068010000000000000000836801000000000000000085840281151561057b57fe5b050281151561058657fe5b05905060158181151561059557fe5b05820191506801000000000000000083680100000000000000008584028115156105bb57fe5b05028115156105c657fe5b0590506017818115156105d557fe5b05820191506801000000000000000083680100000000000000008584028115156105fb57fe5b050281151561060657fe5b05905060198181151561061557fe5b058201915081600202680171547652b82fe177680100000000000000008088020281151561063f57fe5b050195505050505050919050565b60007fffffffffffffffffffffffffffffffffffffffffffffffffffffffffffffffc09050600060c19050600060018383019060008212600003808260020a82851804189250505090505b81600184011215610722576000811280156106c457506801000000000000000081600003859060020a02105b806106ef5750600081121580156106ee5750680100000000000000008185908060020a8204915050105b5b156106fc57809150610700565b8092505b60018383019060008212600003808260020a8285180418925050509050610698565b5050919050565b6801000000000000000081565b600080825111151561074757600080fd5b7f8000000000000000000000000000000000000000000000000000000000000000905060008090505b82518110156107c05781838281518110151561078857fe5b9060200190602002015113156107b35782818151811015156107a657fe5b9060200190602002015191505b8080600101915050610770565b50919050565b600068851591f9dd5b9b40d782131515156107e057600080fd5b7fffffffffffffffffffffffffffffffffffffffffffffffd3a37a020b8c21950d8212156108115760009050610cdc565b67b17217f7d1cf79ac68010000000000000000830281151561082f57fe5b05915060008060008412151561087257680100000000000000008481151561085357fe5b059150680100000000000000008481151561086a57fe5b0790506108b2565b6001680100000000000000008581151561088857fe5b0503915068010000000000000000846000038115156108a357fe5b07680100000000000000000390505b60008190506000680100000000000000009050680100000000000000008267b17217f7d1cf79ab028115156108e357fe5b0481019050680100000000000000008383028115156108fe57fe5b0491506801000000000000000082673d7f7bff058b1d500281151561091f57fe5b04810190506801000000000000000083830281151561093a57fe5b0491506801000000000000000082670e35846b82505fc50281151561095b57fe5b04810190506801000000000000000083830281151561097657fe5b0491506801000000000000000082670276556df749cee50281151561099757fe5b0481019050680100000000000000008383028115156109b257fe5b0491506801000000000000000082665761ff9e299cc4028115156109d257fe5b0481019050680100000000000000008383028115156109ed57fe5b0491506801000000000000000082660a184897c363c302811515610a0d57fe5b048101905068010000000000000000838302811515610a2857fe5b049150680100000000000000008265ffe5fe2c458602811515610a4757fe5b048101905068010000000000000000838302811515610a6257fe5b049150680100000000000000008265162c0223a5c802811515610a8157fe5b048101905068010000000000000000838302811515610a9c57fe5b04915068010000000000000000826501b5253d395e02811515610abb57fe5b048101905068010000000000000000838302811515610ad657fe5b0491506801000000000000000082641e4cf5158b02811515610af457fe5b048101905068010000000000000000838302811515610b0f57fe5b04915068010000000000000000826401e8cac73502811515610b2d57fe5b048101905068010000000000000000838302811515610b4857fe5b0491506801000000000000000082631c3bd65002811515610b6557fe5b048101905068010000000000000000838302811515610b8057fe5b0491506801000000000000000082630181619302811515610b9d57fe5b048101905068010000000000000000838302811515610bb857fe5b04915068010000000000000000826213149602811515610bd457fe5b048101905068010000000000000000838302811515610bef57fe5b049150680100000000000000008261e1b702811515610c0a57fe5b048101905068010000000000000000838302811515610c2557fe5b04915068010000000000000000826109c702811515610c4057fe5b0481019050600084121515610cbb5760008461010003826000821215610c6257fe5b908060020a82049150501115610c9e577fffffffffffffffffffffffffffffffffffffffffffffffffffffffffffffffff945050505050610cdc565b83816000821215610cab57fe5b9060020a02945050505050610cdc565b83600003816000821215610ccb57fe5b908060020a82049150509450505050505b91905056fea165627a7a72305820d315e120825894931150d1bb53d6a396c670facad1ef3c599848c8b35ebd90140029",
  "source": "pragma solidity ^0.5.0;\n\n/// @title Math library - Allows calculation of logarithmic and exponential functions\n/// @author Alan Lu - <alan.lu@gnosis.pm>\n/// @author Stefan George - <stefan@gnosis.pm>\nlibrary GnosisMath {\n    /*\n     *  Constants\n     */\n    // This is equal to 1 in our calculations\n    uint public constant ONE = 0x10000000000000000;\n    uint public constant LN2 = 0xb17217f7d1cf79ac;\n    uint public constant LOG2_E = 0x171547652b82fe177;\n\n    /*\n     *  Public functions\n     */\n    /// @dev Returns natural exponential function value of given x\n    /// @param x x\n    /// @return e**x\n    function exp(int x) public pure returns (uint) {\n        // revert if x is > MAX_POWER, where\n        // MAX_POWER = int(mp.floor(mp.log(mpf(2**256 - 1) / ONE) * ONE))\n        require(x <= 2454971259878909886679);\n        // return 0 if exp(x) is tiny, using\n        // MIN_POWER = int(mp.floor(mp.log(mpf(1) / ONE) * ONE))\n        if (x < -818323753292969962227) return 0;\n        // Transform so that e^x -> 2^x\n        x = x * int(ONE) / int(LN2);\n        // 2^x = 2^whole(x) * 2^frac(x)\n        //       ^^^^^^^^^^ is a bit shift\n        // so Taylor expand on z = frac(x)\n        int shift;\n        uint z;\n        if (x >= 0) {\n            shift = x / int(ONE);\n            z = uint(x % int(ONE));\n        } else {\n            shift = x / int(ONE) - 1;\n            z = ONE - uint(-x % int(ONE));\n        }\n        // 2^x = 1 + (ln 2) x + (ln 2)^2/2! x^2 + ...\n        //\n        // Can generate the z coefficients using mpmath and the following lines\n        // >>> from mpmath import mp\n        // >>> mp.dps = 100\n        // >>> ONE =  0x10000000000000000\n        // >>> print('\\n'.join(hex(int(mp.log(2)**i / mp.factorial(i) * ONE)) for i in range(1, 7)))\n        // 0xb17217f7d1cf79ab\n        // 0x3d7f7bff058b1d50\n        // 0xe35846b82505fc5\n        // 0x276556df749cee5\n        // 0x5761ff9e299cc4\n        // 0xa184897c363c3\n        uint zpow = z;\n        uint result = ONE;\n        result += 0xb17217f7d1cf79ab * zpow / ONE;\n        zpow = zpow * z / ONE;\n        result += 0x3d7f7bff058b1d50 * zpow / ONE;\n        zpow = zpow * z / ONE;\n        result += 0xe35846b82505fc5 * zpow / ONE;\n        zpow = zpow * z / ONE;\n        result += 0x276556df749cee5 * zpow / ONE;\n        zpow = zpow * z / ONE;\n        result += 0x5761ff9e299cc4 * zpow / ONE;\n        zpow = zpow * z / ONE;\n        result += 0xa184897c363c3 * zpow / ONE;\n        zpow = zpow * z / ONE;\n        result += 0xffe5fe2c4586 * zpow / ONE;\n        zpow = zpow * z / ONE;\n        result += 0x162c0223a5c8 * zpow / ONE;\n        zpow = zpow * z / ONE;\n        result += 0x1b5253d395e * zpow / ONE;\n        zpow = zpow * z / ONE;\n        result += 0x1e4cf5158b * zpow / ONE;\n        zpow = zpow * z / ONE;\n        result += 0x1e8cac735 * zpow / ONE;\n        zpow = zpow * z / ONE;\n        result += 0x1c3bd650 * zpow / ONE;\n        zpow = zpow * z / ONE;\n        result += 0x1816193 * zpow / ONE;\n        zpow = zpow * z / ONE;\n        result += 0x131496 * zpow / ONE;\n        zpow = zpow * z / ONE;\n        result += 0xe1b7 * zpow / ONE;\n        zpow = zpow * z / ONE;\n        result += 0x9c7 * zpow / ONE;\n        if (shift >= 0) {\n            if (result >> (256 - shift) > 0) return (2 ** 256 - 1);\n            return result << shift;\n        } else return result >> (-shift);\n    }\n\n    /// @dev Returns natural logarithm value of given x\n    /// @param x x\n    /// @return ln(x)\n    function ln(uint x) public pure returns (int) {\n        require(x > 0);\n        // binary search for floor(log2(x))\n        int ilog2 = floorLog2(x);\n        int z;\n        if (ilog2 < 0) z = int(x << uint(-ilog2));\n        else z = int(x >> uint(ilog2));\n        // z = x * 2^-⌊log₂x⌋\n        // so 1 <= z < 2\n        // and ln z = ln x - ⌊log₂x⌋/log₂e\n        // so just compute ln z using artanh series\n        // and calculate ln x from that\n        int term = (z - int(ONE)) * int(ONE) / (z + int(ONE));\n        int halflnz = term;\n        int termpow = term * term / int(ONE) * term / int(ONE);\n        halflnz += termpow / 3;\n        termpow = termpow * term / int(ONE) * term / int(ONE);\n        halflnz += termpow / 5;\n        termpow = termpow * term / int(ONE) * term / int(ONE);\n        halflnz += termpow / 7;\n        termpow = termpow * term / int(ONE) * term / int(ONE);\n        halflnz += termpow / 9;\n        termpow = termpow * term / int(ONE) * term / int(ONE);\n        halflnz += termpow / 11;\n        termpow = termpow * term / int(ONE) * term / int(ONE);\n        halflnz += termpow / 13;\n        termpow = termpow * term / int(ONE) * term / int(ONE);\n        halflnz += termpow / 15;\n        termpow = termpow * term / int(ONE) * term / int(ONE);\n        halflnz += termpow / 17;\n        termpow = termpow * term / int(ONE) * term / int(ONE);\n        halflnz += termpow / 19;\n        termpow = termpow * term / int(ONE) * term / int(ONE);\n        halflnz += termpow / 21;\n        termpow = termpow * term / int(ONE) * term / int(ONE);\n        halflnz += termpow / 23;\n        termpow = termpow * term / int(ONE) * term / int(ONE);\n        halflnz += termpow / 25;\n        return (ilog2 * int(ONE)) * int(ONE) / int(LOG2_E) + 2 * halflnz;\n    }\n\n    /// @dev Returns base 2 logarithm value of given x\n    /// @param x x\n    /// @return logarithmic value\n    function floorLog2(uint x) public pure returns (int lo) {\n        lo = -64;\n        int hi = 193;\n        // I use a shift here instead of / 2 because it floors instead of rounding towards 0\n        int mid = (hi + lo) >> 1;\n        while ((lo + 1) < hi) {\n            if (mid < 0 && x << uint(-mid) < ONE || mid >= 0 && x >> uint(mid) < ONE) hi = mid;\n            else lo = mid;\n            mid = (hi + lo) >> 1;\n        }\n    }\n\n    /// @dev Returns maximum of an array\n    /// @param nums Numbers to look through\n    /// @return Maximum number\n    function max(int[] memory nums) public pure returns (int maxNum) {\n        require(nums.length > 0);\n        maxNum = -2 ** 255;\n        for (uint i = 0; i < nums.length; i++) if (nums[i] > maxNum) maxNum = nums[i];\n    }\n\n    /// @dev Returns whether an add operation causes an overflow\n    /// @param a First addend\n    /// @param b Second addend\n    /// @return Did no overflow occur?\n    function safeToAdd(uint a, uint b) internal pure returns (bool) {\n        return a + b >= a;\n    }\n\n    /// @dev Returns whether a subtraction operation causes an underflow\n    /// @param a Minuend\n    /// @param b Subtrahend\n    /// @return Did no underflow occur?\n    function safeToSub(uint a, uint b) internal pure returns (bool) {\n        return a >= b;\n    }\n\n    /// @dev Returns whether a multiply operation causes an overflow\n    /// @param a First factor\n    /// @param b Second factor\n    /// @return Did no overflow occur?\n    function safeToMul(uint a, uint b) internal pure returns (bool) {\n        return b == 0 || a * b / b == a;\n    }\n\n    /// @dev Returns sum if no overflow occurred\n    /// @param a First addend\n    /// @param b Second addend\n    /// @return Sum\n    function add(uint a, uint b) internal pure returns (uint) {\n        require(safeToAdd(a, b));\n        return a + b;\n    }\n\n    /// @dev Returns difference if no overflow occurred\n    /// @param a Minuend\n    /// @param b Subtrahend\n    /// @return Difference\n    function sub(uint a, uint b) internal pure returns (uint) {\n        require(safeToSub(a, b));\n        return a - b;\n    }\n\n    /// @dev Returns product if no overflow occurred\n    /// @param a First factor\n    /// @param b Second factor\n    /// @return Product\n    function mul(uint a, uint b) internal pure returns (uint) {\n        require(safeToMul(a, b));\n        return a * b;\n    }\n\n    /// @dev Returns whether an add operation causes an overflow\n    /// @param a First addend\n    /// @param b Second addend\n    /// @return Did no overflow occur?\n    function safeToAdd(int a, int b) internal pure returns (bool) {\n        return (b >= 0 && a + b >= a) || (b < 0 && a + b < a);\n    }\n\n    /// @dev Returns whether a subtraction operation causes an underflow\n    /// @param a Minuend\n    /// @param b Subtrahend\n    /// @return Did no underflow occur?\n    function safeToSub(int a, int b) internal pure returns (bool) {\n        return (b >= 0 && a - b <= a) || (b < 0 && a - b > a);\n    }\n\n    /// @dev Returns whether a multiply operation causes an overflow\n    /// @param a First factor\n    /// @param b Second factor\n    /// @return Did no overflow occur?\n    function safeToMul(int a, int b) internal pure returns (bool) {\n        return (b == 0) || (a * b / b == a);\n    }\n\n    /// @dev Returns sum if no overflow occurred\n    /// @param a First addend\n    /// @param b Second addend\n    /// @return Sum\n    function add(int a, int b) internal pure returns (int) {\n        require(safeToAdd(a, b));\n        return a + b;\n    }\n\n    /// @dev Returns difference if no overflow occurred\n    /// @param a Minuend\n    /// @param b Subtrahend\n    /// @return Difference\n    function sub(int a, int b) internal pure returns (int) {\n        require(safeToSub(a, b));\n        return a - b;\n    }\n\n    /// @dev Returns product if no overflow occurred\n    /// @param a First factor\n    /// @param b Second factor\n    /// @return Product\n    function mul(int a, int b) internal pure returns (int) {\n        require(safeToMul(a, b));\n        return a * b;\n    }\n}\n",
  "sourcePath": "/Users/billy/gnosis/arbitrage/node_modules/@gnosis.pm/util-contracts/contracts/Math.sol",
  "compiler": {
    "name": "solc",
    "version": "0.5.0+commit.1d4f565a.Emscripten.clang"
  },
  "schemaVersion": "3.0.1",
  "updatedAt": "2019-02-08T15:30:47.253Z",
  "devdoc": {
    "author": "Alan Lu - <alan.lu@gnosis.pm>Stefan George - <stefan@gnosis.pm>",
    "methods": {
      "exp(int256)": {
        "details": "Returns natural exponential function value of given x",
        "params": {
          "x": "x"
        },
        "return": "e**x"
      },
      "floorLog2(uint256)": {
        "details": "Returns base 2 logarithm value of given x",
        "params": {
          "x": "x"
        },
        "return": "logarithmic value"
      },
      "ln(uint256)": {
        "details": "Returns natural logarithm value of given x",
        "params": {
          "x": "x"
        },
        "return": "ln(x)"
      },
      "max(int256[])": {
        "details": "Returns maximum of an array",
        "params": {
          "nums": "Numbers to look through"
        },
        "return": "Maximum number"
      }
    },
    "title": "Math library - Allows calculation of logarithmic and exponential functions"
  },
  "userdoc": {
    "methods": {}
  }
}