{
  "contractName": "Medianizer",
  "abi": [
    {
      "constant": false,
      "inputs": [
        {
          "name": "owner_",
          "type": "address"
        }
      ],
      "name": "setOwner",
      "outputs": [],
      "payable": false,
      "stateMutability": "nonpayable",
      "type": "function"
    },
    {
      "constant": true,
      "inputs": [
        {
          "name": "",
          "type": "address"
        }
      ],
      "name": "indexes",
      "outputs": [
        {
          "name": "",
          "type": "bytes12"
        }
      ],
      "payable": false,
      "stateMutability": "view",
      "type": "function"
    },
    {
      "constant": true,
      "inputs": [],
      "name": "next",
      "outputs": [
        {
          "name": "",
          "type": "bytes12"
        }
      ],
      "payable": false,
      "stateMutability": "view",
      "type": "function"
    },
    {
      "constant": true,
      "inputs": [],
      "name": "read",
      "outputs": [
        {
          "name": "",
          "type": "bytes32"
        }
      ],
      "payable": false,
      "stateMutability": "view",
      "type": "function"
    },
    {
      "constant": true,
      "inputs": [],
      "name": "peek",
      "outputs": [
        {
          "name": "",
          "type": "bytes32"
        },
        {
          "name": "",
          "type": "bool"
        }
      ],
      "payable": false,
      "stateMutability": "view",
      "type": "function"
    },
    {
      "constant": true,
      "inputs": [
        {
          "name": "",
          "type": "bytes12"
        }
      ],
      "name": "values",
      "outputs": [
        {
          "name": "",
          "type": "address"
        }
      ],
      "payable": false,
      "stateMutability": "view",
      "type": "function"
    },
    {
      "constant": false,
      "inputs": [
        {
          "name": "authority_",
          "type": "address"
        }
      ],
      "name": "setAuthority",
      "outputs": [],
      "payable": false,
      "stateMutability": "nonpayable",
      "type": "function"
    },
    {
      "constant": true,
      "inputs": [],
      "name": "owner",
      "outputs": [
        {
          "name": "",
          "type": "address"
        }
      ],
      "payable": false,
      "stateMutability": "view",
      "type": "function"
    },
    {
      "constant": false,
      "inputs": [],
      "name": "void",
      "outputs": [],
      "payable": true,
      "stateMutability": "payable",
      "type": "function"
    },
    {
      "constant": true,
      "inputs": [],
      "name": "minimun",
      "outputs": [
        {
          "name": "",
          "type": "uint96"
        }
      ],
      "payable": false,
      "stateMutability": "view",
      "type": "function"
    },
    {
      "constant": true,
      "inputs": [],
      "name": "authority",
      "outputs": [
        {
          "name": "",
          "type": "address"
        }
      ],
      "payable": false,
      "stateMutability": "view",
      "type": "function"
    },
    {
      "anonymous": false,
      "inputs": [
        {
          "indexed": true,
          "name": "sig",
          "type": "bytes4"
        },
        {
          "indexed": true,
          "name": "guy",
          "type": "address"
        },
        {
          "indexed": true,
          "name": "foo",
          "type": "bytes32"
        },
        {
          "indexed": false,
          "name": "bar",
          "type": "bytes32"
        },
        {
          "indexed": false,
          "name": "wad",
          "type": "uint256"
        },
        {
          "indexed": false,
          "name": "fax",
          "type": "bytes"
        }
      ],
      "name": "LogNote",
      "type": "event"
    },
    {
      "anonymous": false,
      "inputs": [
        {
          "indexed": true,
          "name": "authority",
          "type": "address"
        }
      ],
      "name": "LogSetAuthority",
      "type": "event"
    },
    {
      "anonymous": false,
      "inputs": [
        {
          "indexed": true,
          "name": "owner",
          "type": "address"
        }
      ],
      "name": "LogSetOwner",
      "type": "event"
    },
    {
      "constant": false,
      "inputs": [
        {
          "name": "wat",
          "type": "address"
        }
      ],
      "name": "set",
      "outputs": [],
      "payable": false,
      "stateMutability": "nonpayable",
      "type": "function"
    },
    {
      "constant": false,
      "inputs": [
        {
          "name": "pos",
          "type": "bytes12"
        },
        {
          "name": "wat",
          "type": "address"
        }
      ],
      "name": "set",
      "outputs": [],
      "payable": true,
      "stateMutability": "payable",
      "type": "function"
    },
    {
      "constant": false,
      "inputs": [
        {
          "name": "min_",
          "type": "uint96"
        }
      ],
      "name": "setMin",
      "outputs": [],
      "payable": true,
      "stateMutability": "payable",
      "type": "function"
    },
    {
      "constant": false,
      "inputs": [
        {
          "name": "next_",
          "type": "bytes12"
        }
      ],
      "name": "setNext",
      "outputs": [],
      "payable": true,
      "stateMutability": "payable",
      "type": "function"
    },
    {
      "constant": false,
      "inputs": [
        {
          "name": "wat",
          "type": "address"
        }
      ],
      "name": "unset",
      "outputs": [],
      "payable": false,
      "stateMutability": "nonpayable",
      "type": "function"
    },
    {
      "constant": false,
      "inputs": [
        {
          "name": "pos",
          "type": "bytes12"
        }
      ],
      "name": "unset",
      "outputs": [],
      "payable": false,
      "stateMutability": "nonpayable",
      "type": "function"
    },
    {
      "constant": false,
      "inputs": [
        {
          "name": "",
          "type": "bytes32"
        }
      ],
      "name": "poke",
      "outputs": [],
      "payable": true,
      "stateMutability": "payable",
      "type": "function"
    },
    {
      "constant": false,
      "inputs": [],
      "name": "poke",
      "outputs": [],
      "payable": false,
      "stateMutability": "nonpayable",
      "type": "function"
    },
    {
      "constant": true,
      "inputs": [],
      "name": "compute",
      "outputs": [
        {
          "name": "",
          "type": "bytes32"
        },
        {
          "name": "",
          "type": "bool"
        }
      ],
      "payable": false,
      "stateMutability": "view",
      "type": "function"
    }
  ],
  "bytecode": "0x608060405260017401000000000000000000000000000000000000000002600560006101000a8154816bffffffffffffffffffffffff0219169083740100000000000000000000000000000000000000009004021790555060016005600c6101000a8154816bffffffffffffffffffffffff02191690836bffffffffffffffffffffffff16021790555033600160006101000a81548173ffffffffffffffffffffffffffffffffffffffff021916908373ffffffffffffffffffffffffffffffffffffffff1602179055503373ffffffffffffffffffffffffffffffffffffffff167fce241d7ca1f669fee44b6fc00b8eba2df3bb514eed0f6f668f8f89096e81ed9460405160405180910390a261237c8061011c6000396000f3fe60806040526004361061013c576000357c010000000000000000000000000000000000000000000000000000000090048063651dd0de116100bd578063b069b60311610081578063b069b6031461057c578063beb38b43146105c3578063bf7e214f14610628578063e0a1fdad1461067f578063f2c5925d146106d15761013c565b8063651dd0de146103fc5780636ba5ef0d1461048e5780637a9e5e4b146104ca5780638da5cb5b1461051b578063ac4c25b2146105725761013c565b80632966d1b9116101045780632966d1b91461025e5780632db78d93146102af5780634c8fe5261461034257806357de26a41461039b57806359e02dd7146103c65761013c565b806313af4035146101415780631504460f1461019257806318178358146101c05780631a43c338146101d75780632801617e1461020d575b600080fd5b34801561014d57600080fd5b506101906004803603602081101561016457600080fd5b81019080803573ffffffffffffffffffffffffffffffffffffffff169060200190929190505050610716565b005b6101be600480360360208110156101a857600080fd5b8101908080359060200190929190505050610861565b005b3480156101cc57600080fd5b506101d5610972565b005b3480156101e357600080fd5b506101ec610981565b60405180838152602001821515151581526020019250505060405180910390f35b34801561021957600080fd5b5061025c6004803603602081101561023057600080fd5b81019080803573ffffffffffffffffffffffffffffffffffffffff169060200190929190505050610f77565b005b34801561026a57600080fd5b506102ad6004803603602081101561028157600080fd5b81019080803573ffffffffffffffffffffffffffffffffffffffff16906020019092919050505061111a565b005b3480156102bb57600080fd5b506102fe600480360360208110156102d257600080fd5b81019080803573ffffffffffffffffffffffffffffffffffffffff169060200190929190505050611188565b604051808273ffffffffffffffffffffffffffffffffffffffff191673ffffffffffffffffffffffffffffffffffffffff1916815260200191505060405180910390f35b34801561034e57600080fd5b506103576111bc565b604051808273ffffffffffffffffffffffffffffffffffffffff191673ffffffffffffffffffffffffffffffffffffffff1916815260200191505060405180910390f35b3480156103a757600080fd5b506103b06111e3565b6040518082815260200191505060405180910390f35b3480156103d257600080fd5b506103db611205565b60405180838152602001821515151581526020019250505060405180910390f35b34801561040857600080fd5b5061044c6004803603602081101561041f57600080fd5b81019080803573ffffffffffffffffffffffffffffffffffffffff19169060200190929190505050611223565b604051808273ffffffffffffffffffffffffffffffffffffffff1673ffffffffffffffffffffffffffffffffffffffff16815260200191505060405180910390f35b6104c8600480360360208110156104a457600080fd5b8101908080356bffffffffffffffffffffffff169060200190929190505050611256565b005b3480156104d657600080fd5b50610519600480360360208110156104ed57600080fd5b81019080803573ffffffffffffffffffffffffffffffffffffffff169060200190929190505050611492565b005b34801561052757600080fd5b506105306115db565b604051808273ffffffffffffffffffffffffffffffffffffffff1673ffffffffffffffffffffffffffffffffffffffff16815260200191505060405180910390f35b61057a611601565b005b34801561058857600080fd5b5061059161179f565b60405180826bffffffffffffffffffffffff166bffffffffffffffffffffffff16815260200191505060405180910390f35b610626600480360360408110156105d957600080fd5b81019080803573ffffffffffffffffffffffffffffffffffffffff19169060200190929190803573ffffffffffffffffffffffffffffffffffffffff1690602001909291905050506117bd565b005b34801561063457600080fd5b5061063d611d29565b604051808273ffffffffffffffffffffffffffffffffffffffff1673ffffffffffffffffffffffffffffffffffffffff16815260200191505060405180910390f35b34801561068b57600080fd5b506106cf600480360360208110156106a257600080fd5b81019080803573ffffffffffffffffffffffffffffffffffffffff19169060200190929190505050611d4e565b005b610714600480360360208110156106e757600080fd5b81019080803573ffffffffffffffffffffffffffffffffffffffff19169060200190929190505050611d5c565b005b610744336000357fffffffff0000000000000000000000000000000000000000000000000000000016611fc2565b15156107b8576040517f08c379a000000000000000000000000000000000000000000000000000000000815260040180806020018281038252601d8152602001807f4974206d75737420626520616e20617574686f72697a65642063616c6c00000081525060200191505060405180910390fd5b80600160006101000a81548173ffffffffffffffffffffffffffffffffffffffff021916908373ffffffffffffffffffffffffffffffffffffffff160217905550600160009054906101000a900473ffffffffffffffffffffffffffffffffffffffff1673ffffffffffffffffffffffffffffffffffffffff167fce241d7ca1f669fee44b6fc00b8eba2df3bb514eed0f6f668f8f89096e81ed9460405160405180910390a250565b60008060043591506024359050813373ffffffffffffffffffffffffffffffffffffffff166000357fffffffff00000000000000000000000000000000000000000000000000000000167bffffffffffffffffffffffffffffffffffffffffffffffffffffffff19167f644843f351d3fba4abcd60109eaff9f54bac8fb8ccf0bab941009c21df21cf31843460003660405180858152602001848152602001806020018281038252848482818152602001925080828437600081840152601f19601f8201169050808301925050509550505050505060405180910390a4610946610981565b60026000600160148491906101000a81548160ff02191690831515021790555083919050555050505050565b61097f6000600102610861565b565b60008060606001600560009054906101000a90047401000000000000000000000000000000000000000002740100000000000000000000000000000000000000009004036bffffffffffffffffffffffff16604051908082528060200260200182016040528015610a015781602001602082028038833980820191505090505b50905060008090506000600190505b600560009054906101000a900474010000000000000000000000000000000000000000027401000000000000000000000000000000000000000090046bffffffffffffffffffffffff16816bffffffffffffffffffffffff161015610dd557600073ffffffffffffffffffffffffffffffffffffffff166003600083740100000000000000000000000000000000000000000273ffffffffffffffffffffffffffffffffffffffff191673ffffffffffffffffffffffffffffffffffffffff1916815260200190815260200160002060009054906101000a900473ffffffffffffffffffffffffffffffffffffffff1673ffffffffffffffffffffffffffffffffffffffff16141515610dc8576000806003600084740100000000000000000000000000000000000000000273ffffffffffffffffffffffffffffffffffffffff191673ffffffffffffffffffffffffffffffffffffffff1916815260200190815260200160002060009054906101000a900473ffffffffffffffffffffffffffffffffffffffff1673ffffffffffffffffffffffffffffffffffffffff166359e02dd76040518163ffffffff167c0100000000000000000000000000000000000000000000000000000000028152600401604080518083038186803b158015610bf957600080fd5b505afa158015610c0d573d6000803e3d6000fd5b505050506040513d6040811015610c2357600080fd5b810190808051906020019092919080519060200190929190505050915091508015610dc5576000846bffffffffffffffffffffffff161480610c8d575084600185036bffffffffffffffffffffffff16815181101515610c7f57fe5b906020019060200201518210155b15610cc2578185856bffffffffffffffffffffffff16815181101515610caf57fe5b9060200190602002018181525050610dbc565b60008090505b85816bffffffffffffffffffffffff16815181101515610ce457fe5b9060200190602002015183101515610d03578080600101915050610cc8565b60008590505b816bffffffffffffffffffffffff16816bffffffffffffffffffffffff161115610d8e5786600182036bffffffffffffffffffffffff16815181101515610d4c57fe5b9060200190602002015187826bffffffffffffffffffffffff16815181101515610d7257fe5b9060200190602002018181525050808060019003915050610d09565b508286826bffffffffffffffffffffffff16815181101515610dac57fe5b9060200190602002018181525050505b83806001019450505b50505b8080600101915050610a10565b506005600c9054906101000a90046bffffffffffffffffffffffff166bffffffffffffffffffffffff16816bffffffffffffffffffffffff161015610e24576002546000935093505050610f73565b6000806002836bffffffffffffffffffffffff16811515610e4157fe5b066bffffffffffffffffffffffff161415610f225760008360016002856bffffffffffffffffffffffff16811515610e7557fe5b04036bffffffffffffffffffffffff16815181101515610e9157fe5b906020019060200201516001900490506000846002856bffffffffffffffffffffffff16811515610ebe57fe5b046bffffffffffffffffffffffff16815181101515610ed957fe5b90602001906020020151600190049050610f04610ef68383612237565b671bc16d674ec80000612274565b6fffffffffffffffffffffffffffffffff1660010292505050610f68565b826002600184036bffffffffffffffffffffffff16811515610f4057fe5b046bffffffffffffffffffffffff16815181101515610f5b57fe5b9060200190602002015190505b806001945094505050505b9091565b610fa5336000357fffffffff0000000000000000000000000000000000000000000000000000000016611fc2565b1515611019576040517f08c379a000000000000000000000000000000000000000000000000000000000815260040180806020018281038252601d8152602001807f4974206d75737420626520616e20617574686f72697a65642063616c6c00000081525060200191505060405180910390fd5b60006001600560009054906101000a900474010000000000000000000000000000000000000000027401000000000000000000000000000000000000000090040174010000000000000000000000000000000000000000029050600074010000000000000000000000000000000000000000028173ffffffffffffffffffffffffffffffffffffffff1916141515156110ae57fe5b6110db600560009054906101000a90047401000000000000000000000000000000000000000002836117bd565b80600560006101000a8154816bffffffffffffffffffffffff021916908374010000000000000000000000000000000000000000900402179055505050565b611185600460008373ffffffffffffffffffffffffffffffffffffffff1673ffffffffffffffffffffffffffffffffffffffff16815260200190815260200160002060009054906101000a9004740100000000000000000000000000000000000000000260006117bd565b50565b60046020528060005260406000206000915054906101000a9004740100000000000000000000000000000000000000000281565b600560009054906101000a9004740100000000000000000000000000000000000000000281565b60008060006111f0611205565b915091508015156111fd57fe5b819250505090565b600080600254600160149054906101000a900460ff16915091509091565b60036020528060005260406000206000915054906101000a900473ffffffffffffffffffffffffffffffffffffffff1681565b60008060043591506024359050813373ffffffffffffffffffffffffffffffffffffffff166000357fffffffff00000000000000000000000000000000000000000000000000000000167bffffffffffffffffffffffffffffffffffffffffffffffffffffffff19167f644843f351d3fba4abcd60109eaff9f54bac8fb8ccf0bab941009c21df21cf31843460003660405180858152602001848152602001806020018281038252848482818152602001925080828437600081840152601f19601f8201169050808301925050509550505050505060405180910390a4611361336000357fffffffff0000000000000000000000000000000000000000000000000000000016611fc2565b15156113d5576040517f08c379a000000000000000000000000000000000000000000000000000000000815260040180806020018281038252601d8152602001807f4974206d75737420626520616e20617574686f72697a65642063616c6c00000081525060200191505060405180910390fd5b6000836bffffffffffffffffffffffff161415151561145c576040517f08c379a00000000000000000000000000000000000000000000000000000000081526004018080602001828103825260118152602001807f6d696e2063616e6e6f742062652030783000000000000000000000000000000081525060200191505060405180910390fd5b826005600c6101000a8154816bffffffffffffffffffffffff02191690836bffffffffffffffffffffffff160217905550505050565b6114c0336000357fffffffff0000000000000000000000000000000000000000000000000000000016611fc2565b1515611534576040517f08c379a000000000000000000000000000000000000000000000000000000000815260040180806020018281038252601d8152602001807f4974206d75737420626520616e20617574686f72697a65642063616c6c00000081525060200191505060405180910390fd5b806000806101000a81548173ffffffffffffffffffffffffffffffffffffffff021916908373ffffffffffffffffffffffffffffffffffffffff1602179055506000809054906101000a900473ffffffffffffffffffffffffffffffffffffffff1673ffffffffffffffffffffffffffffffffffffffff167f1abebea81bfa2637f28358c371278fb15ede7ea8dd28d2e03b112ff6d936ada460405160405180910390a250565b600160009054906101000a900473ffffffffffffffffffffffffffffffffffffffff1681565b60008060043591506024359050813373ffffffffffffffffffffffffffffffffffffffff166000357fffffffff00000000000000000000000000000000000000000000000000000000167bffffffffffffffffffffffffffffffffffffffffffffffffffffffff19167f644843f351d3fba4abcd60109eaff9f54bac8fb8ccf0bab941009c21df21cf31843460003660405180858152602001848152602001806020018281038252848482818152602001925080828437600081840152601f19601f8201169050808301925050509550505050505060405180910390a461170c336000357fffffffff0000000000000000000000000000000000000000000000000000000016611fc2565b1515611780576040517f08c379a000000000000000000000000000000000000000000000000000000000815260040180806020018281038252601d8152602001807f4974206d75737420626520616e20617574686f72697a65642063616c6c00000081525060200191505060405180910390fd5b6000600160146101000a81548160ff0219169083151502179055505050565b6005600c9054906101000a90046bffffffffffffffffffffffff1681565b60008060043591506024359050813373ffffffffffffffffffffffffffffffffffffffff166000357fffffffff00000000000000000000000000000000000000000000000000000000167bffffffffffffffffffffffffffffffffffffffffffffffffffffffff19167f644843f351d3fba4abcd60109eaff9f54bac8fb8ccf0bab941009c21df21cf31843460003660405180858152602001848152602001806020018281038252848482818152602001925080828437600081840152601f19601f8201169050808301925050509550505050505060405180910390a46118c8336000357fffffffff0000000000000000000000000000000000000000000000000000000016611fc2565b151561193c576040517f08c379a000000000000000000000000000000000000000000000000000000000815260040180806020018281038252601d8152602001807f4974206d75737420626520616e20617574686f72697a65642063616c6c00000081525060200191505060405180910390fd5b600074010000000000000000000000000000000000000000028473ffffffffffffffffffffffffffffffffffffffff1916141515156119e3576040517f08c379a00000000000000000000000000000000000000000000000000000000081526004018080602001828103825260118152602001807f706f732063616e6e6f742062652030783000000000000000000000000000000081525060200191505060405180910390fd5b600073ffffffffffffffffffffffffffffffffffffffff168373ffffffffffffffffffffffffffffffffffffffff161480611aac575060007401000000000000000000000000000000000000000002600460008573ffffffffffffffffffffffffffffffffffffffff1673ffffffffffffffffffffffffffffffffffffffff16815260200190815260200160002060009054906101000a9004740100000000000000000000000000000000000000000273ffffffffffffffffffffffffffffffffffffffff1916145b1515611b03576040517f08c379a000000000000000000000000000000000000000000000000000000000815260040180806020018281038252602581526020018061232c6025913960400191505060405180910390fd5b6000740100000000000000000000000000000000000000000260046000600360008873ffffffffffffffffffffffffffffffffffffffff191673ffffffffffffffffffffffffffffffffffffffff1916815260200190815260200160002060009054906101000a900473ffffffffffffffffffffffffffffffffffffffff1673ffffffffffffffffffffffffffffffffffffffff1673ffffffffffffffffffffffffffffffffffffffff16815260200190815260200160002060006101000a8154816bffffffffffffffffffffffff02191690837401000000000000000000000000000000000000000090040217905550600073ffffffffffffffffffffffffffffffffffffffff168373ffffffffffffffffffffffffffffffffffffffff16141515611ca35783600460008573ffffffffffffffffffffffffffffffffffffffff1673ffffffffffffffffffffffffffffffffffffffff16815260200190815260200160002060006101000a8154816bffffffffffffffffffffffff021916908374010000000000000000000000000000000000000000900402179055505b82600360008673ffffffffffffffffffffffffffffffffffffffff191673ffffffffffffffffffffffffffffffffffffffff1916815260200190815260200160002060006101000a81548173ffffffffffffffffffffffffffffffffffffffff021916908373ffffffffffffffffffffffffffffffffffffffff16021790555050505050565b6000809054906101000a900473ffffffffffffffffffffffffffffffffffffffff1681565b611d598160006117bd565b50565b60008060043591506024359050813373ffffffffffffffffffffffffffffffffffffffff166000357fffffffff00000000000000000000000000000000000000000000000000000000167bffffffffffffffffffffffffffffffffffffffffffffffffffffffff19167f644843f351d3fba4abcd60109eaff9f54bac8fb8ccf0bab941009c21df21cf31843460003660405180858152602001848152602001806020018281038252848482818152602001925080828437600081840152601f19601f8201169050808301925050509550505050505060405180910390a4611e67336000357fffffffff0000000000000000000000000000000000000000000000000000000016611fc2565b1515611edb576040517f08c379a000000000000000000000000000000000000000000000000000000000815260040180806020018281038252601d8152602001807f4974206d75737420626520616e20617574686f72697a65642063616c6c00000081525060200191505060405180910390fd5b600074010000000000000000000000000000000000000000028373ffffffffffffffffffffffffffffffffffffffff191614151515611f82576040517f08c379a00000000000000000000000000000000000000000000000000000000081526004018080602001828103825260128152602001807f6e6578742063616e6e6f7420626520307830000000000000000000000000000081525060200191505060405180910390fd5b82600560006101000a8154816bffffffffffffffffffffffff02191690837401000000000000000000000000000000000000000090040217905550505050565b60003073ffffffffffffffffffffffffffffffffffffffff168373ffffffffffffffffffffffffffffffffffffffff1614156120015760019050612231565b600160009054906101000a900473ffffffffffffffffffffffffffffffffffffffff1673ffffffffffffffffffffffffffffffffffffffff168373ffffffffffffffffffffffffffffffffffffffff1614156120605760019050612231565b600073ffffffffffffffffffffffffffffffffffffffff166000809054906101000a900473ffffffffffffffffffffffffffffffffffffffff1673ffffffffffffffffffffffffffffffffffffffff1614156120bf5760009050612231565b6000809054906101000a900473ffffffffffffffffffffffffffffffffffffffff1673ffffffffffffffffffffffffffffffffffffffff1663b70096138430856040518463ffffffff167c0100000000000000000000000000000000000000000000000000000000028152600401808473ffffffffffffffffffffffffffffffffffffffff1673ffffffffffffffffffffffffffffffffffffffff1681526020018373ffffffffffffffffffffffffffffffffffffffff1673ffffffffffffffffffffffffffffffffffffffff168152602001827bffffffffffffffffffffffffffffffffffffffffffffffffffffffff19167bffffffffffffffffffffffffffffffffffffffffffffffffffffffff19168152602001935050505060206040518083038186803b1580156121f357600080fd5b505afa158015612207573d6000803e3d6000fd5b505050506040513d602081101561221d57600080fd5b810190808051906020019092919050505090505b92915050565b6000826fffffffffffffffffffffffffffffffff168284019150816fffffffffffffffffffffffffffffffff161015151561226e57fe5b92915050565b60006122fc826fffffffffffffffffffffffffffffffff166002846fffffffffffffffffffffffffffffffff168115156122aa57fe5b046fffffffffffffffffffffffffffffffff16670de0b6b3a76400006fffffffffffffffffffffffffffffffff16866fffffffffffffffffffffffffffffffff1602018115156122f657fe5b04612304565b905092915050565b600081829150816fffffffffffffffffffffffffffffffff1614151561232657fe5b91905056fe776174206973206e6f7420646566696e6564206f722069742068617320616e20696e646578a165627a7a72305820f0ee4e062f02a1c608ac9c19138be1d97d964fdd6071393094877b60546843c10029",
  "source": "pragma solidity ^0.5.2;\n\nimport \"./DSValue.sol\";\n\n\ncontract Medianizer is DSValue {\n    mapping(bytes12 => address) public values;\n    mapping(address => bytes12) public indexes;\n    bytes12 public next = bytes12(uint96(1));\n    uint96 public minimun = 0x1;\n\n    function set(address wat) public auth {\n        bytes12 nextId = bytes12(uint96(next) + 1);\n        assert(nextId != 0x0);\n        set(next, wat);\n        next = nextId;\n    }\n\n    function set(bytes12 pos, address wat) public payable note auth {\n        require(pos != 0x0, \"pos cannot be 0x0\");\n        require(wat == address(0) || indexes[wat] == 0, \"wat is not defined or it has an index\");\n\n        indexes[values[pos]] = bytes12(0); // Making sure to remove a possible existing address in that position\n\n        if (wat != address(0)) {\n            indexes[wat] = pos;\n        }\n\n        values[pos] = wat;\n    }\n\n    function setMin(uint96 min_) public payable note auth {\n        require(min_ != 0x0, \"min cannot be 0x0\");\n        minimun = min_;\n    }\n\n    function setNext(bytes12 next_) public payable note auth {\n        require(next_ != 0x0, \"next cannot be 0x0\");\n        next = next_;\n    }\n\n    function unset(bytes12 pos) public {\n        set(pos, address(0));\n    }\n\n    function unset(address wat) public {\n        set(indexes[wat], address(0));\n    }\n\n    function poke() public {\n        poke(0);\n    }\n\n    function poke(bytes32) public payable note {\n        (val, has) = compute();\n    }\n\n    function compute() public view returns (bytes32, bool) {\n        bytes32[] memory wuts = new bytes32[](uint96(next) - 1);\n        uint96 ctr = 0;\n        for (uint96 i = 1; i < uint96(next); i++) {\n            if (values[bytes12(i)] != address(0)) {\n                (bytes32 wut, bool wuz) = DSValue(values[bytes12(i)]).peek();\n                if (wuz) {\n                    if (ctr == 0 || wut >= wuts[ctr - 1]) {\n                        wuts[ctr] = wut;\n                    } else {\n                        uint96 j = 0;\n                        while (wut >= wuts[j]) {\n                            j++;\n                        }\n                        for (uint96 k = ctr; k > j; k--) {\n                            wuts[k] = wuts[k - 1];\n                        }\n                        wuts[j] = wut;\n                    }\n                    ctr++;\n                }\n            }\n        }\n\n        if (ctr < minimun)\n            return (val, false);\n\n        bytes32 value;\n        if (ctr % 2 == 0) {\n            uint128 val1 = uint128(uint(wuts[(ctr / 2) - 1]));\n            uint128 val2 = uint128(uint(wuts[ctr / 2]));\n            value = bytes32(uint256(wdiv(hadd(val1, val2), 2 ether)));\n        } else {\n            value = wuts[(ctr - 1) / 2];\n        }\n\n        return (value, true);\n    }\n}\n",
  "sourcePath": "/Users/billy/sol/arbitrage/node_modules/@gnosis.pm/dx-contracts/contracts/Oracle/Medianizer.sol",
  "compiler": {
    "name": "solc",
    "version": "0.5.2+commit.1df8f40c.Emscripten.clang"
  },
  "schemaVersion": "3.0.1",
  "updatedAt": "2019-01-21T21:38:20.737Z",
  "devdoc": {
    "methods": {}
  },
  "userdoc": {
    "methods": {}
  }
}