{
  "contractName": "MockContract",
  "abi": [
    {
      "constant": true,
      "inputs": [],
      "name": "MOCKS_LIST_END_HASH",
      "outputs": [
        {
          "name": "",
          "type": "bytes32"
        }
      ],
      "payable": false,
      "stateMutability": "view",
      "type": "function"
    },
    {
      "constant": true,
      "inputs": [],
      "name": "MOCKS_LIST_START",
      "outputs": [
        {
          "name": "",
          "type": "bytes32"
        }
      ],
      "payable": false,
      "stateMutability": "view",
      "type": "function"
    },
    {
      "constant": true,
      "inputs": [],
      "name": "MOCKS_LIST_END",
      "outputs": [
        {
          "name": "",
          "type": "bytes"
        }
      ],
      "payable": false,
      "stateMutability": "view",
      "type": "function"
    },
    {
      "constant": true,
      "inputs": [],
      "name": "SENTINEL_ANY_MOCKS",
      "outputs": [
        {
          "name": "",
          "type": "bytes4"
        }
      ],
      "payable": false,
      "stateMutability": "view",
      "type": "function"
    },
    {
      "inputs": [],
      "payable": false,
      "stateMutability": "nonpayable",
      "type": "constructor"
    },
    {
      "payable": true,
      "stateMutability": "payable",
      "type": "fallback"
    },
    {
      "constant": false,
      "inputs": [
        {
          "name": "response",
          "type": "bytes"
        }
      ],
      "name": "givenAnyReturn",
      "outputs": [],
      "payable": false,
      "stateMutability": "nonpayable",
      "type": "function"
    },
    {
      "constant": false,
      "inputs": [
        {
          "name": "response",
          "type": "bool"
        }
      ],
      "name": "givenAnyReturnBool",
      "outputs": [],
      "payable": false,
      "stateMutability": "nonpayable",
      "type": "function"
    },
    {
      "constant": false,
      "inputs": [
        {
          "name": "response",
          "type": "uint256"
        }
      ],
      "name": "givenAnyReturnUint",
      "outputs": [],
      "payable": false,
      "stateMutability": "nonpayable",
      "type": "function"
    },
    {
      "constant": false,
      "inputs": [
        {
          "name": "response",
          "type": "address"
        }
      ],
      "name": "givenAnyReturnAddress",
      "outputs": [],
      "payable": false,
      "stateMutability": "nonpayable",
      "type": "function"
    },
    {
      "constant": false,
      "inputs": [],
      "name": "givenAnyRevert",
      "outputs": [],
      "payable": false,
      "stateMutability": "nonpayable",
      "type": "function"
    },
    {
      "constant": false,
      "inputs": [
        {
          "name": "message",
          "type": "string"
        }
      ],
      "name": "givenAnyRevertWithMessage",
      "outputs": [],
      "payable": false,
      "stateMutability": "nonpayable",
      "type": "function"
    },
    {
      "constant": false,
      "inputs": [],
      "name": "givenAnyRunOutOfGas",
      "outputs": [],
      "payable": false,
      "stateMutability": "nonpayable",
      "type": "function"
    },
    {
      "constant": false,
      "inputs": [
        {
          "name": "call",
          "type": "bytes"
        },
        {
          "name": "response",
          "type": "bytes"
        }
      ],
      "name": "givenCalldataReturn",
      "outputs": [],
      "payable": false,
      "stateMutability": "nonpayable",
      "type": "function"
    },
    {
      "constant": false,
      "inputs": [
        {
          "name": "call",
          "type": "bytes"
        },
        {
          "name": "response",
          "type": "bool"
        }
      ],
      "name": "givenCalldataReturnBool",
      "outputs": [],
      "payable": false,
      "stateMutability": "nonpayable",
      "type": "function"
    },
    {
      "constant": false,
      "inputs": [
        {
          "name": "call",
          "type": "bytes"
        },
        {
          "name": "response",
          "type": "uint256"
        }
      ],
      "name": "givenCalldataReturnUint",
      "outputs": [],
      "payable": false,
      "stateMutability": "nonpayable",
      "type": "function"
    },
    {
      "constant": false,
      "inputs": [
        {
          "name": "call",
          "type": "bytes"
        },
        {
          "name": "response",
          "type": "address"
        }
      ],
      "name": "givenCalldataReturnAddress",
      "outputs": [],
      "payable": false,
      "stateMutability": "nonpayable",
      "type": "function"
    },
    {
      "constant": false,
      "inputs": [
        {
          "name": "call",
          "type": "bytes"
        },
        {
          "name": "response",
          "type": "bytes"
        }
      ],
      "name": "givenMethodReturn",
      "outputs": [],
      "payable": false,
      "stateMutability": "nonpayable",
      "type": "function"
    },
    {
      "constant": false,
      "inputs": [
        {
          "name": "call",
          "type": "bytes"
        },
        {
          "name": "response",
          "type": "bool"
        }
      ],
      "name": "givenMethodReturnBool",
      "outputs": [],
      "payable": false,
      "stateMutability": "nonpayable",
      "type": "function"
    },
    {
      "constant": false,
      "inputs": [
        {
          "name": "call",
          "type": "bytes"
        },
        {
          "name": "response",
          "type": "uint256"
        }
      ],
      "name": "givenMethodReturnUint",
      "outputs": [],
      "payable": false,
      "stateMutability": "nonpayable",
      "type": "function"
    },
    {
      "constant": false,
      "inputs": [
        {
          "name": "call",
          "type": "bytes"
        },
        {
          "name": "response",
          "type": "address"
        }
      ],
      "name": "givenMethodReturnAddress",
      "outputs": [],
      "payable": false,
      "stateMutability": "nonpayable",
      "type": "function"
    },
    {
      "constant": false,
      "inputs": [
        {
          "name": "call",
          "type": "bytes"
        }
      ],
      "name": "givenCalldataRevert",
      "outputs": [],
      "payable": false,
      "stateMutability": "nonpayable",
      "type": "function"
    },
    {
      "constant": false,
      "inputs": [
        {
          "name": "call",
          "type": "bytes"
        }
      ],
      "name": "givenMethodRevert",
      "outputs": [],
      "payable": false,
      "stateMutability": "nonpayable",
      "type": "function"
    },
    {
      "constant": false,
      "inputs": [
        {
          "name": "call",
          "type": "bytes"
        },
        {
          "name": "message",
          "type": "string"
        }
      ],
      "name": "givenCalldataRevertWithMessage",
      "outputs": [],
      "payable": false,
      "stateMutability": "nonpayable",
      "type": "function"
    },
    {
      "constant": false,
      "inputs": [
        {
          "name": "call",
          "type": "bytes"
        },
        {
          "name": "message",
          "type": "string"
        }
      ],
      "name": "givenMethodRevertWithMessage",
      "outputs": [],
      "payable": false,
      "stateMutability": "nonpayable",
      "type": "function"
    },
    {
      "constant": false,
      "inputs": [
        {
          "name": "call",
          "type": "bytes"
        }
      ],
      "name": "givenCalldataRunOutOfGas",
      "outputs": [],
      "payable": false,
      "stateMutability": "nonpayable",
      "type": "function"
    },
    {
      "constant": false,
      "inputs": [
        {
          "name": "call",
          "type": "bytes"
        }
      ],
      "name": "givenMethodRunOutOfGas",
      "outputs": [],
      "payable": false,
      "stateMutability": "nonpayable",
      "type": "function"
    },
    {
      "constant": false,
      "inputs": [],
      "name": "invocationCount",
      "outputs": [
        {
          "name": "",
          "type": "uint256"
        }
      ],
      "payable": false,
      "stateMutability": "nonpayable",
      "type": "function"
    },
    {
      "constant": false,
      "inputs": [
        {
          "name": "call",
          "type": "bytes"
        }
      ],
      "name": "invocationCountForMethod",
      "outputs": [
        {
          "name": "",
          "type": "uint256"
        }
      ],
      "payable": false,
      "stateMutability": "nonpayable",
      "type": "function"
    },
    {
      "constant": false,
      "inputs": [
        {
          "name": "call",
          "type": "bytes"
        }
      ],
      "name": "invocationCountForCalldata",
      "outputs": [
        {
          "name": "",
          "type": "uint256"
        }
      ],
      "payable": false,
      "stateMutability": "nonpayable",
      "type": "function"
    },
    {
      "constant": false,
      "inputs": [],
      "name": "reset",
      "outputs": [],
      "payable": false,
      "stateMutability": "nonpayable",
      "type": "function"
    },
    {
      "constant": false,
      "inputs": [
        {
          "name": "methodId",
          "type": "bytes4"
        },
        {
          "name": "originalMsgData",
          "type": "bytes"
        }
      ],
      "name": "updateInvocationCount",
      "outputs": [],
      "payable": false,
      "stateMutability": "nonpayable",
      "type": "function"
    }
  ],
  "bytecode": "0x60806040523480156200001157600080fd5b506040805190810160405280600481526020017f30786666000000000000000000000000000000000000000000000000000000008152506000807f0100000000000000000000000000000000000000000000000000000000000000815260200190815260200160002090805190602001906200008f92919062000160565b507f0100000000000000000000000000000000000000000000000000000000000000600560007f01000000000000000000000000000000000000000000000000000000000000007bffffffffffffffffffffffffffffffffffffffffffffffffffffffff19167bffffffffffffffffffffffffffffffffffffffffffffffffffffffff1916815260200190815260200160002060006101000a81548163ffffffff02191690837c0100000000000000000000000000000000000000000000000000000000900402179055506200020f565b828054600181600116156101000203166002900490600052602060002090601f016020900481019282601f10620001a357805160ff1916838001178555620001d4565b82800160010185558215620001d4579182015b82811115620001d3578251825591602001919060010190620001b6565b5b509050620001e39190620001e7565b5090565b6200020c91905b8082111562000208576000816000905550600101620001ee565b5090565b90565b613bb4806200021f6000396000f3fe6080604052600436106101ea576000357c01000000000000000000000000000000000000000000000000000000009004806387abab6511610114578063cf11ff5d116100b2578063e211b8a511610081578063e211b8a51461182a578063eb861f6914611841578063f07da229146118c7578063f5afa9c114611930576101ea565b8063cf11ff5d14611657578063d6fe9778146116fd578063d73ca0ac14611783578063d826f88f14611813576101ea565b8063aa788c55116100ee578063aa788c5514611415578063af21ac781461149b578063b3901f29146114d6578063c6ee167f1461157c576101ea565b806387abab65146111d95780639a1dc86b1461125f5780639eaeed751461133a576101ea565b806358cbc0251161018c578063682b47971161015b578063682b479714610fe057806368ab6f2f146110315780636f400756146110b75780637cd96ee414611149576101ea565b806358cbc02514610d575780635a3855ab14610e485780636193659414610eda57806367aad04a14610fb5576101ea565b806336ff0ee5116101c857806336ff0ee514610bcf5780633956dc6b14610c0c5780634937c4f614610c23578063586984a414610cbd576101ea565b80630a20119f14610af357806321fed4d614610b1e5780632ed238dc14610ba4575b600080359050600160028111156101fd57fe5b6001600036604051808383808284378083019250505092505050908152602001604051809103902060009054906101000a900460ff16600281111561023e57fe5b141561032a57600360003660405180838380828437808301925050509250505090815260200160405180910390206040517f08c379a0000000000000000000000000000000000000000000000000000000008152600401808060200182810382528381815460018160011615610100020316600290048152602001915080546001816001161561010002031660029004801561031b5780601f106102f05761010080835404028352916020019161031b565b820191906000526020600020905b8154815290600101906020018083116102fe57829003601f168201915b50509250505060405180910390fd5b60028081111561033657fe5b6001600036604051808383808284378083019250505092505050908152602001604051809103902060009054906101000a900460ff16600281111561037757fe5b1415610386576103856119c0565b5b6060600260003660405180838380828437808301925050509250505090815260200160405180910390208054600181600116156101000203166002900480601f0160208091040260200160405190810160405280929190818152602001828054600181600116156101000203166002900480156104445780601f1061041957610100808354040283529160200191610444565b820191906000526020600020905b81548152906001019060200180831161042757829003601f168201915b50505050509050600081511415610753576001600281111561046257fe5b60066000847bffffffffffffffffffffffffffffffffffffffffffffffffffffffff19167bffffffffffffffffffffffffffffffffffffffffffffffffffffffff1916815260200190815260200160002060009054906101000a900460ff1660028111156104cc57fe5b14156105e15760086000837bffffffffffffffffffffffffffffffffffffffffffffffffffffffff19167bffffffffffffffffffffffffffffffffffffffffffffffffffffffff191681526020019081526020016000206040517f08c379a000000000000000000000000000000000000000000000000000000000815260040180806020018281038252838181546001816001161561010002031660029004815260200191508054600181600116156101000203166002900480156105d25780601f106105a7576101008083540402835291602001916105d2565b820191906000526020600020905b8154815290600101906020018083116105b557829003601f168201915b50509250505060405180910390fd5b6002808111156105ed57fe5b60066000847bffffffffffffffffffffffffffffffffffffffffffffffffffffffff19167bffffffffffffffffffffffffffffffffffffffffffffffffffffffff1916815260200190815260200160002060009054906101000a900460ff16600281111561065757fe5b1415610666576106656119c0565b5b60076000837bffffffffffffffffffffffffffffffffffffffffffffffffffffffff19167bffffffffffffffffffffffffffffffffffffffffffffffffffffffff191681526020019081526020016000208054600181600116156101000203166002900480601f01602080910402602001604051908101604052809291908181526020018280546001816001161561010002031660029004801561074b5780601f106107205761010080835404028352916020019161074b565b820191906000526020600020905b81548152906001019060200180831161072e57829003601f168201915b505050505090505b60008151141561091f576001600281111561076a57fe5b600a60009054906101000a900460ff16600281111561078557fe5b141561084b57600c6040517f08c379a0000000000000000000000000000000000000000000000000000000008152600401808060200182810382528381815460018160011615610100020316600290048152602001915080546001816001161561010002031660029004801561083c5780601f106108115761010080835404028352916020019161083c565b820191906000526020600020905b81548152906001019060200180831161081f57829003601f168201915b50509250505060405180910390fd5b60028081111561085757fe5b600a60009054906101000a900460ff16600281111561087257fe5b1415610881576108806119c0565b5b600b8054600181600116156101000203166002900480601f0160208091040260200160405190810160405280929190818152602001828054600181600116156101000203166002900480156109175780601f106108ec57610100808354040283529160200191610917565b820191906000526020600020905b8154815290600101906020018083116108fa57829003601f168201915b505050505090505b60603073ffffffffffffffffffffffffffffffffffffffff16620186a08460003660405160240180847bffffffffffffffffffffffffffffffffffffffffffffffffffffffff19167bffffffffffffffffffffffffffffffffffffffffffffffffffffffff19168152602001806020018281038252848482818152602001925080828437600081840152601f19601f8201169050808301925050509450505050506040516020818303038152906040527f58cbc025000000000000000000000000000000000000000000000000000000007bffffffffffffffffffffffffffffffffffffffffffffffffffffffff19166020820180517bffffffffffffffffffffffffffffffffffffffffffffffffffffffff83818316178352505050506040518082805190602001908083835b602083101515610a725780518252602082019150602081019050602083039250610a4d565b6001836020036101000a03801982511681845116808217855250505050505090500191505060006040518083038160008787f1925050503d8060008114610ad5576040519150601f19603f3d011682016040523d82523d6000602084013e610ada565b606091505b5091505060008151141515610aeb57fe5b815182602001f35b348015610aff57600080fd5b50610b086119e5565b6040518082815260200191505060405180910390f35b348015610b2a57600080fd5b50610ba260048036036020811015610b4157600080fd5b8101908080359060200190640100000000811115610b5e57600080fd5b820183602082011115610b7057600080fd5b80359060200191846001830284011164010000000083111715610b9257600080fd5b90919293919293905050506119ef565b005b348015610bb057600080fd5b50610bb9611a89565b6040518082815260200191505060405180910390f35b348015610bdb57600080fd5b50610c0a60048036036020811015610bf257600080fd5b81019080803515159060200190929190505050611b24565b005b348015610c1857600080fd5b50610c21611b4f565b005b348015610c2f57600080fd5b50610ca760048036036020811015610c4657600080fd5b8101908080359060200190640100000000811115610c6357600080fd5b820183602082011115610c7557600080fd5b80359060200191846001830284011164010000000083111715610c9757600080fd5b9091929391929390505050611b75565b6040518082815260200191505060405180910390f35b348015610cc957600080fd5b50610d4160048036036020811015610ce057600080fd5b8101908080359060200190640100000000811115610cfd57600080fd5b820183602082011115610d0f57600080fd5b80359060200191846001830284011164010000000083111715610d3157600080fd5b9091929391929390505050611c52565b6040518082815260200191505060405180910390f35b348015610d6357600080fd5b50610e4660048036036040811015610d7a57600080fd5b8101908080357bffffffffffffffffffffffffffffffffffffffffffffffffffffffff1916906020019092919080359060200190640100000000811115610dc057600080fd5b820183602082011115610dd257600080fd5b80359060200191846001830284011164010000000083111715610df457600080fd5b91908080601f016020809104026020016040519081016040528093929190818152602001838380828437600081840152601f19601f820116905080830192505050505050509192919290505050611ca9565b005b348015610e5457600080fd5b50610ed860048036036040811015610e6b57600080fd5b8101908080359060200190640100000000811115610e8857600080fd5b820183602082011115610e9a57600080fd5b80359060200191846001830284011164010000000083111715610ebc57600080fd5b9091929391929390803515159060200190929190505050611e73565b005b348015610ee657600080fd5b50610fb360048036036040811015610efd57600080fd5b8101908080359060200190640100000000811115610f1a57600080fd5b820183602082011115610f2c57600080fd5b80359060200191846001830284011164010000000083111715610f4e57600080fd5b909192939192939080359060200190640100000000811115610f6f57600080fd5b820183602082011115610f8157600080fd5b80359060200191846001830284011164010000000083111715610fa357600080fd5b9091929391929390505050611ee5565b005b348015610fc157600080fd5b50610fca611f7d565b6040518082815260200191505060405180910390f35b348015610fec57600080fd5b5061102f6004803603602081101561100357600080fd5b81019080803573ffffffffffffffffffffffffffffffffffffffff169060200190929190505050611fa1565b005b34801561103d57600080fd5b506110b56004803603602081101561105457600080fd5b810190808035906020019064010000000081111561107157600080fd5b82018360208201111561108357600080fd5b803590602001918460018302840111640100000000831117156110a557600080fd5b9091929391929390505050611fcb565b005b3480156110c357600080fd5b50611147600480360360408110156110da57600080fd5b81019080803590602001906401000000008111156110f757600080fd5b82018360208201111561110957600080fd5b8035906020019184600183028401116401000000008311171561112b57600080fd5b909192939192939080351515906020019092919050505061209d565b005b34801561115557600080fd5b5061115e61210f565b6040518080602001828103825283818151815260200191508051906020019080838360005b8381101561119e578082015181840152602081019050611183565b50505050905090810190601f1680156111cb5780820380516001836020036101000a031916815260200191505b509250505060405180910390f35b3480156111e557600080fd5b5061125d600480360360208110156111fc57600080fd5b810190808035906020019064010000000081111561121957600080fd5b82018360208201111561122b57600080fd5b8035906020019184600183028401116401000000008311171561124d57600080fd5b9091929391929390505050612148565b005b34801561126b57600080fd5b506113386004803603604081101561128257600080fd5b810190808035906020019064010000000081111561129f57600080fd5b8201836020820111156112b157600080fd5b803590602001918460018302840111640100000000831117156112d357600080fd5b9091929391929390803590602001906401000000008111156112f457600080fd5b82018360208201111561130657600080fd5b8035906020019184600183028401116401000000008311171561132857600080fd5b9091929391929390505050612182565b005b34801561134657600080fd5b506114136004803603604081101561135d57600080fd5b810190808035906020019064010000000081111561137a57600080fd5b82018360208201111561138c57600080fd5b803590602001918460018302840111640100000000831117156113ae57600080fd5b9091929391929390803590602001906401000000008111156113cf57600080fd5b8201836020820111156113e157600080fd5b8035906020019184600183028401116401000000008311171561140357600080fd5b90919293919293905050506122b7565b005b34801561142157600080fd5b506114996004803603602081101561143857600080fd5b810190808035906020019064010000000081111561145557600080fd5b82018360208201111561146757600080fd5b8035906020019184600183028401116401000000008311171561148957600080fd5b9091929391929390505050612389565b005b3480156114a757600080fd5b506114d4600480360360208110156114be57600080fd5b810190808035906020019092919050505061245b565b005b3480156114e257600080fd5b5061157a600480360360408110156114f957600080fd5b810190808035906020019064010000000081111561151657600080fd5b82018360208201111561152857600080fd5b8035906020019184600183028401116401000000008311171561154a57600080fd5b9091929391929390803573ffffffffffffffffffffffffffffffffffffffff16906020019092919050505061246f565b005b34801561158857600080fd5b506116556004803603604081101561159f57600080fd5b81019080803590602001906401000000008111156115bc57600080fd5b8201836020820111156115ce57600080fd5b803590602001918460018302840111640100000000831117156115f057600080fd5b90919293919293908035906020019064010000000081111561161157600080fd5b82018360208201111561162357600080fd5b8035906020019184600183028401116401000000008311171561164557600080fd5b90919293919293905050506124e0565b005b34801561166357600080fd5b506116fb6004803603604081101561167a57600080fd5b810190808035906020019064010000000081111561169757600080fd5b8201836020820111156116a957600080fd5b803590602001918460018302840111640100000000831117156116cb57600080fd5b9091929391929390803573ffffffffffffffffffffffffffffffffffffffff169060200190929190505050612578565b005b34801561170957600080fd5b506117816004803603602081101561172057600080fd5b810190808035906020019064010000000081111561173d57600080fd5b82018360208201111561174f57600080fd5b8035906020019184600183028401116401000000008311171561177157600080fd5b90919293919293905050506125e9565b005b34801561178f57600080fd5b50611811600480360360408110156117a657600080fd5b81019080803590602001906401000000008111156117c357600080fd5b8201836020820111156117d557600080fd5b803590602001918460018302840111640100000000831117156117f757600080fd5b90919293919293908035906020019092919050505061263a565b005b34801561181f57600080fd5b50611828612695565b005b34801561183657600080fd5b5061183f612ff8565b005b34801561184d57600080fd5b506118c56004803603602081101561186457600080fd5b810190808035906020019064010000000081111561188157600080fd5b82018360208201111561189357600080fd5b803590602001918460018302840111640100000000831117156118b557600080fd5b9091929391929390505050613045565b005b3480156118d357600080fd5b506118dc61312a565b60405180827bffffffffffffffffffffffffffffffffffffffffffffffffffffffff19167bffffffffffffffffffffffffffffffffffffffffffffffffffffffff1916815260200191505060405180910390f35b34801561193c57600080fd5b506119be6004803603604081101561195357600080fd5b810190808035906020019064010000000081111561197057600080fd5b82018360208201111561198257600080fd5b803590602001918460018302840111640100000000831117156119a457600080fd5b90919293919293908035906020019092919050505061314e565b005b5b6001156119e35760006060600060c060008060066107d05a03f19050506119c1565b565b6000600d54905090565b600260018383604051808383808284378083019250505092505050908152602001604051809103902060006101000a81548160ff02191690836002811115611a3357fe5b0217905550611a8582828080601f016020809104026020016040519081016040528093929190818152602001838380828437600081840152601f19601f820116905080830192505050505050506131a9565b5050565b6040805190810160405280600481526020017f30786666000000000000000000000000000000000000000000000000000000008152506040518082805190602001908083835b602083101515611af45780518252602082019150602081019050602083039250611acf565b6001836020036101000a038019825116818451168082178552505050505050905001915050604051809103902081565b600081611b32576000611b35565b60015b60ff169050611b4b611b4682613294565b6132d8565b5050565b6002600a60006101000a81548160ff02191690836002811115611b6e57fe5b0217905550565b600080611bc584848080601f016020809104026020016040519081016040528093929190818152602001838380828437600081840152601f19601f82011690508083019250505050505050613316565b905060096000600e548360405160200180838152602001827bffffffffffffffffffffffffffffffffffffffffffffffffffffffff19167bffffffffffffffffffffffffffffffffffffffffffffffffffffffff19168152600401925050506040516020818303038152906040528051906020012081526020019081526020016000205491505092915050565b600060046000600e5485856040516020018084815260200183838082843780830192505050935050505060405160208183030381529060405280519060200120815260200190815260200160002054905092915050565b3073ffffffffffffffffffffffffffffffffffffffff163373ffffffffffffffffffffffffffffffffffffffff16141515611d2f576040517f08c379a000000000000000000000000000000000000000000000000000000000815260040180806020018281038252602b815260200180613b5e602b913960400191505060405180910390fd5b6001600d60008282540192505081905550600160096000600e548560405160200180838152602001827bffffffffffffffffffffffffffffffffffffffffffffffffffffffff19167bffffffffffffffffffffffffffffffffffffffffffffffffffffffff191681526004019250505060405160208183030381529060405280519060200120815260200190815260200160002060008282540192505081905550600160046000600e54846040516020018083815260200182805190602001908083835b602083101515611e185780518252602082019150602081019050602083039250611df3565b6001836020036101000a03801982511681845116808217855250505050505090500192505050604051602081830303815290604052805190602001208152602001908152602001600020600082825401925050819055505050565b600081611e81576000611e84565b60015b60ff169050611edf84848080601f016020809104026020016040519081016040528093929190818152602001838380828437600081840152601f19601f82011690508083019250505050505050611eda83613294565b613410565b50505050565b611f7784848080601f016020809104026020016040519081016040528093929190818152602001838380828437600081840152601f19601f8201169050808301925050505050505083838080601f016020809104026020016040519081016040528093929190818152602001838380828437600081840152601f19601f82011690508083019250505050505050613410565b50505050565b7f010000000000000000000000000000000000000000000000000000000000000081565b611fc8611fc38273ffffffffffffffffffffffffffffffffffffffff16613294565b6132d8565b50565b600061201a83838080601f016020809104026020016040519081016040528093929190818152602001838380828437600081840152601f19601f82011690508083019250505050505050613316565b9050600260066000837bffffffffffffffffffffffffffffffffffffffffffffffffffffffff19167bffffffffffffffffffffffffffffffffffffffffffffffffffffffff1916815260200190815260200160002060006101000a81548160ff0219169083600281111561208a57fe5b02179055506120988161352a565b505050565b6000816120ab5760006120ae565b60015b60ff16905061210984848080601f016020809104026020016040519081016040528093929190818152602001838380828437600081840152601f19601f8201169050808301925050505050505061210483613294565b6137bd565b50505050565b6040805190810160405280600481526020017f307866660000000000000000000000000000000000000000000000000000000081525081565b6001600a60006101000a81548160ff0219169083600281111561216757fe5b02179055508181600c919061217d9291906138b1565b505050565b60006121d185858080601f016020809104026020016040519081016040528093929190818152602001838380828437600081840152601f19601f82011690508083019250505050505050613316565b9050600160066000837bffffffffffffffffffffffffffffffffffffffffffffffffffffffff19167bffffffffffffffffffffffffffffffffffffffffffffffffffffffff1916815260200190815260200160002060006101000a81548160ff0219169083600281111561224157fe5b0217905550828260086000847bffffffffffffffffffffffffffffffffffffffffffffffffffffffff19167bffffffffffffffffffffffffffffffffffffffffffffffffffffffff1916815260200190815260200160002091906122a69291906138b1565b506122b08161352a565b5050505050565b6001808585604051808383808284378083019250505092505050908152602001604051809103902060006101000a81548160ff021916908360028111156122fa57fe5b0217905550818160038686604051808383808284378083019250505092505050908152602001604051809103902091906123359291906138b1565b5061238384848080601f016020809104026020016040519081016040528093929190818152602001838380828437600081840152601f19601f820116905080830192505050505050506131a9565b50505050565b60006123d883838080601f016020809104026020016040519081016040528093929190818152602001838380828437600081840152601f19601f82011690508083019250505050505050613316565b9050600160066000837bffffffffffffffffffffffffffffffffffffffffffffffffffffffff19167bffffffffffffffffffffffffffffffffffffffffffffffffffffffff1916815260200190815260200160002060006101000a81548160ff0219169083600281111561244857fe5b02179055506124568161352a565b505050565b61246c61246782613294565b6132d8565b50565b6124db83838080601f016020809104026020016040519081016040528093929190818152602001838380828437600081840152601f19601f820116905080830192505050505050506124d68373ffffffffffffffffffffffffffffffffffffffff16613294565b613410565b505050565b61257284848080601f016020809104026020016040519081016040528093929190818152602001838380828437600081840152601f19601f8201169050808301925050505050505083838080601f016020809104026020016040519081016040528093929190818152602001838380828437600081840152601f19601f820116905080830192505050505050506137bd565b50505050565b6125e483838080601f016020809104026020016040519081016040528093929190818152602001838380828437600081840152601f19601f820116905080830192505050505050506125df8373ffffffffffffffffffffffffffffffffffffffff16613294565b6137bd565b505050565b61263682828080601f016020809104026020016040519081016040528093929190818152602001838380828437600081840152601f19601f820116905080830192505050505050506132d8565b5050565b61269083838080601f016020809104026020016040519081016040528093929190818152602001838380828437600081840152601f19601f8201169050808301925050505050505061268b83613294565b613410565b505050565b60606000807f010000000000000000000000000000000000000000000000000000000000000081526020019081526020016000208054600181600116156101000203166002900480601f01602080910402602001604051908101604052809291908181526020018280546001816001161561010002031660029004801561275d5780601f106127325761010080835404028352916020019161275d565b820191906000526020600020905b81548152906001019060200180831161274057829003601f168201915b505050505090506000818051906020012090505b6040805190810160405280600481526020017f30786666000000000000000000000000000000000000000000000000000000008152506040518082805190602001908083835b6020831015156127dc57805182526020820191506020810190506020830392506127b7565b6001836020036101000a038019825116818451168082178552505050505050905001915050604051809103902081141515612ab15760006001836040518082805190602001908083835b60208310151561284b5780518252602082019150602081019050602083039250612826565b6001836020036101000a038019825116818451168082178552505050505050905001915050908152602001604051809103902060006101000a81548160ff0219169083600281111561289957fe5b021790555060206040519081016040528060008152506002836040518082805190602001908083835b6020831015156128e757805182526020820191506020810190506020830392506128c2565b6001836020036101000a0380198251168184511680821785525050505050509050019150509081526020016040518091039020908051906020019061292d929190613931565b5060206040519081016040528060008152506003836040518082805190602001908083835b6020831015156129775780518252602082019150602081019050602083039250612952565b6001836020036101000a038019825116818451168082178552505050505050905001915050908152602001604051809103902090805190602001906129bd9291906139b1565b506000808281526020019081526020016000208054600181600116156101000203166002900480601f016020809104026020016040519081016040528092919081815260200182805460018160011615610100020316600290048015612a645780601f10612a3957610100808354040283529160200191612a64565b820191906000526020600020905b815481529060010190602001808311612a4757829003601f168201915b5050505050915060206040519081016040528060008152506000808381526020019081526020016000209080519060200190612aa1929190613931565b5081805190602001209050612771565b6040805190810160405280600481526020017f30786666000000000000000000000000000000000000000000000000000000008152506000807f010000000000000000000000000000000000000000000000000000000000000081526020019081526020016000209080519060200190612b2c929190613a31565b506000600560007f01000000000000000000000000000000000000000000000000000000000000007bffffffffffffffffffffffffffffffffffffffffffffffffffffffff19167bffffffffffffffffffffffffffffffffffffffffffffffffffffffff1916815260200190815260200160002060009054906101000a90047c01000000000000000000000000000000000000000000000000000000000290505b7f01000000000000000000000000000000000000000000000000000000000000007bffffffffffffffffffffffffffffffffffffffffffffffffffffffff1916817bffffffffffffffffffffffffffffffffffffffffffffffffffffffff1916141515612ec5576000819050600060066000837bffffffffffffffffffffffffffffffffffffffffffffffffffffffff19167bffffffffffffffffffffffffffffffffffffffffffffffffffffffff1916815260200190815260200160002060006101000a81548160ff02191690836002811115612ca757fe5b0217905550602060405190810160405280600081525060076000837bffffffffffffffffffffffffffffffffffffffffffffffffffffffff19167bffffffffffffffffffffffffffffffffffffffffffffffffffffffff191681526020019081526020016000209080519060200190612d21929190613931565b50602060405190810160405280600081525060086000837bffffffffffffffffffffffffffffffffffffffffffffffffffffffff19167bffffffffffffffffffffffffffffffffffffffffffffffffffffffff191681526020019081526020016000209080519060200190612d979291906139b1565b5060056000827bffffffffffffffffffffffffffffffffffffffffffffffffffffffff19167bffffffffffffffffffffffffffffffffffffffffffffffffffffffff1916815260200190815260200160002060009054906101000a90047c010000000000000000000000000000000000000000000000000000000002915060007c01000000000000000000000000000000000000000000000000000000000260056000837bffffffffffffffffffffffffffffffffffffffffffffffffffffffff19167bffffffffffffffffffffffffffffffffffffffffffffffffffffffff1916815260200190815260200160002060006101000a81548163ffffffff02191690837c01000000000000000000000000000000000000000000000000000000009004021790555050612bcd565b7f0100000000000000000000000000000000000000000000000000000000000000600560007f01000000000000000000000000000000000000000000000000000000000000007bffffffffffffffffffffffffffffffffffffffffffffffffffffffff19167bffffffffffffffffffffffffffffffffffffffffffffffffffffffff1916815260200190815260200160002060006101000a81548163ffffffff02191690837c0100000000000000000000000000000000000000000000000000000000900402179055506020604051908101604052806000815250600b9080519060200190612fb5929190613931565b506000600a60006101000a81548160ff02191690836002811115612fd557fe5b02179055506000600d819055506001600e60008282540192505081905550505050565b6001600a60006101000a81548160ff0219169083600281111561301757fe5b02179055506020604051908101604052806000815250600c90805190602001906130429291906139b1565b50565b6001808383604051808383808284378083019250505092505050908152602001604051809103902060006101000a81548160ff0219169083600281111561308857fe5b0217905550602060405190810160405280600081525060038383604051808383808284378083019250505092505050908152602001604051809103902090805190602001906130d89291906139b1565b5061312682828080601f016020809104026020016040519081016040528093929190818152602001838380828437600081840152601f19601f820116905080830192505050505050506131a9565b5050565b7f010000000000000000000000000000000000000000000000000000000000000081565b6131a483838080601f016020809104026020016040519081016040528093929190818152602001838380828437600081840152601f19601f8201169050808301925050505050505061319f83613294565b6137bd565b505050565b60008180519060200120905060008060008381526020019081526020016000208054600181600116156101000203166002900490501415613290576000807f010000000000000000000000000000000000000000000000000000000000000081526020019081526020016000206000808381526020019081526020016000209080546001816001161561010002031660029004613247929190613ab1565b50816000807f01000000000000000000000000000000000000000000000000000000000000008152602001908152602001600020908051906020019061328e929190613a31565b505b5050565b606060206040519080825280601f01601f1916602001820160405280156132ca5781602001600182028038833980820191505090505b509050816020820152919050565b6000600a60006101000a81548160ff021916908360028111156132f757fe5b021790555080600b9080519060200190613312929190613a31565b5050565b60008060008090505b6004811015613406576008810260ff7f010000000000000000000000000000000000000000000000000000000000000002858381518110151561335e57fe5b9060200101517f010000000000000000000000000000000000000000000000000000000000000090047f010000000000000000000000000000000000000000000000000000000000000002167effffffffffffffffffffffffffffffffffffffffffffffffffffffffffffff19167bffffffffffffffffffffffffffffffffffffffffffffffffffffffff1916908060020a820491505082179150808060010191505061331f565b5080915050919050565b60006001836040518082805190602001908083835b60208310151561344a5780518252602082019150602081019050602083039250613425565b6001836020036101000a038019825116818451168082178552505050505050905001915050908152602001604051809103902060006101000a81548160ff0219169083600281111561349857fe5b0217905550806002836040518082805190602001908083835b6020831015156134d657805182526020820191506020810190506020830392506134b1565b6001836020036101000a0380198251168184511680821785525050505050509050019150509081526020016040518091039020908051906020019061351c929190613a31565b50613526826131a9565b5050565b60007c01000000000000000000000000000000000000000000000000000000000260056000837bffffffffffffffffffffffffffffffffffffffffffffffffffffffff19167bffffffffffffffffffffffffffffffffffffffffffffffffffffffff1916815260200190815260200160002060009054906101000a90047c0100000000000000000000000000000000000000000000000000000000027bffffffffffffffffffffffffffffffffffffffffffffffffffffffff191614156137ba57600560007f01000000000000000000000000000000000000000000000000000000000000007bffffffffffffffffffffffffffffffffffffffffffffffffffffffff19167bffffffffffffffffffffffffffffffffffffffffffffffffffffffff1916815260200190815260200160002060009054906101000a90047c01000000000000000000000000000000000000000000000000000000000260056000837bffffffffffffffffffffffffffffffffffffffffffffffffffffffff19167bffffffffffffffffffffffffffffffffffffffffffffffffffffffff1916815260200190815260200160002060006101000a81548163ffffffff02191690837c01000000000000000000000000000000000000000000000000000000009004021790555080600560007f01000000000000000000000000000000000000000000000000000000000000007bffffffffffffffffffffffffffffffffffffffffffffffffffffffff19167bffffffffffffffffffffffffffffffffffffffffffffffffffffffff1916815260200190815260200160002060006101000a81548163ffffffff02191690837c0100000000000000000000000000000000000000000000000000000000900402179055505b50565b60006137c883613316565b9050600060066000837bffffffffffffffffffffffffffffffffffffffffffffffffffffffff19167bffffffffffffffffffffffffffffffffffffffffffffffffffffffff1916815260200190815260200160002060006101000a81548160ff0219169083600281111561383857fe5b02179055508160076000837bffffffffffffffffffffffffffffffffffffffffffffffffffffffff19167bffffffffffffffffffffffffffffffffffffffffffffffffffffffff1916815260200190815260200160002090805190602001906138a2929190613a31565b506138ac8161352a565b505050565b828054600181600116156101000203166002900490600052602060002090601f016020900481019282601f106138f257803560ff1916838001178555613920565b82800160010185558215613920579182015b8281111561391f578235825591602001919060010190613904565b5b50905061392d9190613b38565b5090565b828054600181600116156101000203166002900490600052602060002090601f016020900481019282601f1061397257805160ff19168380011785556139a0565b828001600101855582156139a0579182015b8281111561399f578251825591602001919060010190613984565b5b5090506139ad9190613b38565b5090565b828054600181600116156101000203166002900490600052602060002090601f016020900481019282601f106139f257805160ff1916838001178555613a20565b82800160010185558215613a20579182015b82811115613a1f578251825591602001919060010190613a04565b5b509050613a2d9190613b38565b5090565b828054600181600116156101000203166002900490600052602060002090601f016020900481019282601f10613a7257805160ff1916838001178555613aa0565b82800160010185558215613aa0579182015b82811115613a9f578251825591602001919060010190613a84565b5b509050613aad9190613b38565b5090565b828054600181600116156101000203166002900490600052602060002090601f016020900481019282601f10613aea5780548555613b27565b82800160010185558215613b2757600052602060002091601f016020900482015b82811115613b26578254825591600101919060010190613b0b565b5b509050613b349190613b38565b5090565b613b5a91905b80821115613b56576000816000905550600101613b3e565b5090565b9056fe43616e206f6e6c792062652063616c6c65642066726f6d2074686520636f6e747261637420697473656c66a165627a7a72305820ad76944b2fff508425f0e5cd856a398994e340dd65dd83ac868dacb15d977d3c0029",
  "source": "pragma solidity ^0.5.0;\n\ninterface MockInterface {\n\t/**\n\t * @dev After calling this method, the mock will return `response` when it is called\n\t * with any calldata that is not mocked more specifically below\n\t * (e.g. using givenMethodReturn).\n\t * @param response ABI encoded response that will be returned if method is invoked\n\t */\n\tfunction givenAnyReturn(bytes calldata response) external;\n\tfunction givenAnyReturnBool(bool response) external;\n\tfunction givenAnyReturnUint(uint response) external;\n\tfunction givenAnyReturnAddress(address response) external;\n\n\tfunction givenAnyRevert() external;\n\tfunction givenAnyRevertWithMessage(string calldata message) external;\n\tfunction givenAnyRunOutOfGas() external;\n\n\t/**\n\t * @dev After calling this method, the mock will return `response` when the given\n\t * methodId is called regardless of arguments. If the methodId and arguments\n\t * are mocked more specifically (using `givenMethodAndArguments`) the latter\n\t * will take precedence.\n\t * @param method ABI encoded methodId. It is valid to pass full calldata (including arguments). The mock will extract the methodId from it\n\t * @param response ABI encoded response that will be returned if method is invoked\n\t */\n\tfunction givenMethodReturn(bytes calldata method, bytes calldata response) external;\n\tfunction givenMethodReturnBool(bytes calldata method, bool response) external;\n\tfunction givenMethodReturnUint(bytes calldata method, uint response) external;\n\tfunction givenMethodReturnAddress(bytes calldata method, address response) external;\n\n\tfunction givenMethodRevert(bytes calldata method) external;\n\tfunction givenMethodRevertWithMessage(bytes calldata method, string calldata message) external;\n\tfunction givenMethodRunOutOfGas(bytes calldata method) external;\n\n\t/**\n\t * @dev After calling this method, the mock will return `response` when the given\n\t * methodId is called with matching arguments. These exact calldataMocks will take\n\t * precedence over all other calldataMocks.\n\t * @param call ABI encoded calldata (methodId and arguments)\n\t * @param response ABI encoded response that will be returned if contract is invoked with calldata\n\t */\n\tfunction givenCalldataReturn(bytes calldata call, bytes calldata response) external;\n\tfunction givenCalldataReturnBool(bytes calldata call, bool response) external;\n\tfunction givenCalldataReturnUint(bytes calldata call, uint response) external;\n\tfunction givenCalldataReturnAddress(bytes calldata call, address response) external;\n\n\tfunction givenCalldataRevert(bytes calldata call) external;\n\tfunction givenCalldataRevertWithMessage(bytes calldata call, string calldata message) external;\n\tfunction givenCalldataRunOutOfGas(bytes calldata call) external;\n\n\t/**\n\t * @dev Returns the number of times anything has been called on this mock since last reset\n\t */\n\tfunction invocationCount() external returns (uint);\n\n\t/**\n\t * @dev Returns the number of times the given method has been called on this mock since last reset\n\t * @param method ABI encoded methodId. It is valid to pass full calldata (including arguments). The mock will extract the methodId from it\n\t */\n\tfunction invocationCountForMethod(bytes calldata method) external returns (uint);\n\n\t/**\n\t * @dev Returns the number of times this mock has been called with the exact calldata since last reset.\n\t * @param call ABI encoded calldata (methodId and arguments)\n\t */\n\tfunction invocationCountForCalldata(bytes calldata call) external returns (uint);\n\n\t/**\n\t * @dev Resets all mocked methods and invocation counts.\n\t */\n\t function reset() external;\n}\n\n/**\n * Implementation of the MockInterface.\n */\ncontract MockContract is MockInterface {\n\tenum MockType { Return, Revert, OutOfGas }\n\t\n\tbytes32 public constant MOCKS_LIST_START = hex\"01\";\n\tbytes public constant MOCKS_LIST_END = \"0xff\";\n\tbytes32 public constant MOCKS_LIST_END_HASH = keccak256(MOCKS_LIST_END);\n\tbytes4 public constant SENTINEL_ANY_MOCKS = hex\"01\";\n\n\t// A linked list allows easy iteration and inclusion checks\n\tmapping(bytes32 => bytes) calldataMocks;\n\tmapping(bytes => MockType) calldataMockTypes;\n\tmapping(bytes => bytes) calldataExpectations;\n\tmapping(bytes => string) calldataRevertMessage;\n\tmapping(bytes32 => uint) calldataInvocations;\n\n\tmapping(bytes4 => bytes4) methodIdMocks;\n\tmapping(bytes4 => MockType) methodIdMockTypes;\n\tmapping(bytes4 => bytes) methodIdExpectations;\n\tmapping(bytes4 => string) methodIdRevertMessages;\n\tmapping(bytes32 => uint) methodIdInvocations;\n\n\tMockType fallbackMockType;\n\tbytes fallbackExpectation;\n\tstring fallbackRevertMessage;\n\tuint invocations;\n\tuint resetCount;\n\n\tconstructor() public {\n\t\tcalldataMocks[MOCKS_LIST_START] = MOCKS_LIST_END;\n\t\tmethodIdMocks[SENTINEL_ANY_MOCKS] = SENTINEL_ANY_MOCKS;\n\t}\n\n\tfunction trackCalldataMock(bytes memory call) private {\n\t\tbytes32 callHash = keccak256(call);\n\t\tif (calldataMocks[callHash].length == 0) {\n\t\t\tcalldataMocks[callHash] = calldataMocks[MOCKS_LIST_START];\n\t\t\tcalldataMocks[MOCKS_LIST_START] = call;\n\t\t}\n\t}\n\n\tfunction trackMethodIdMock(bytes4 methodId) private {\n\t\tif (methodIdMocks[methodId] == 0x0) {\n\t\t\tmethodIdMocks[methodId] = methodIdMocks[SENTINEL_ANY_MOCKS];\n\t\t\tmethodIdMocks[SENTINEL_ANY_MOCKS] = methodId;\n\t\t}\n\t}\n\n\tfunction _givenAnyReturn(bytes memory response) internal {\n\t\tfallbackMockType = MockType.Return;\n\t\tfallbackExpectation = response;\n\t}\n\n\tfunction givenAnyReturn(bytes calldata response) external {\n\t\t_givenAnyReturn(response);\n\t}\n\n\tfunction givenAnyReturnBool(bool response) external {\n\t\tuint flag = response ? 1 : 0;\n\t\t_givenAnyReturn(uintToBytes(flag));\n\t}\n\n\tfunction givenAnyReturnUint(uint response) external {\n\t\t_givenAnyReturn(uintToBytes(response));\t\n\t}\n\n\tfunction givenAnyReturnAddress(address response) external {\n\t\t_givenAnyReturn(uintToBytes(uint(response)));\n\t}\n\n\tfunction givenAnyRevert() external {\n\t\tfallbackMockType = MockType.Revert;\n\t\tfallbackRevertMessage = \"\";\n\t}\n\n\tfunction givenAnyRevertWithMessage(string calldata message) external {\n\t\tfallbackMockType = MockType.Revert;\n\t\tfallbackRevertMessage = message;\n\t}\n\n\tfunction givenAnyRunOutOfGas() external {\n\t\tfallbackMockType = MockType.OutOfGas;\n\t}\n\n\tfunction _givenCalldataReturn(bytes memory call, bytes memory response) private  {\n\t\tcalldataMockTypes[call] = MockType.Return;\n\t\tcalldataExpectations[call] = response;\n\t\ttrackCalldataMock(call);\n\t}\n\n\tfunction givenCalldataReturn(bytes calldata call, bytes calldata response) external  {\n\t\t_givenCalldataReturn(call, response);\n\t}\n\n\tfunction givenCalldataReturnBool(bytes calldata call, bool response) external {\n\t\tuint flag = response ? 1 : 0;\n\t\t_givenCalldataReturn(call, uintToBytes(flag));\n\t}\n\n\tfunction givenCalldataReturnUint(bytes calldata call, uint response) external {\n\t\t_givenCalldataReturn(call, uintToBytes(response));\n\t}\n\n\tfunction givenCalldataReturnAddress(bytes calldata call, address response) external {\n\t\t_givenCalldataReturn(call, uintToBytes(uint(response)));\n\t}\n\n\tfunction _givenMethodReturn(bytes memory call, bytes memory response) private {\n\t\tbytes4 method = bytesToBytes4(call);\n\t\tmethodIdMockTypes[method] = MockType.Return;\n\t\tmethodIdExpectations[method] = response;\n\t\ttrackMethodIdMock(method);\t\t\n\t}\n\n\tfunction givenMethodReturn(bytes calldata call, bytes calldata response) external {\n\t\t_givenMethodReturn(call, response);\n\t}\n\n\tfunction givenMethodReturnBool(bytes calldata call, bool response) external {\n\t\tuint flag = response ? 1 : 0;\n\t\t_givenMethodReturn(call, uintToBytes(flag));\n\t}\n\n\tfunction givenMethodReturnUint(bytes calldata call, uint response) external {\n\t\t_givenMethodReturn(call, uintToBytes(response));\n\t}\n\n\tfunction givenMethodReturnAddress(bytes calldata call, address response) external {\n\t\t_givenMethodReturn(call, uintToBytes(uint(response)));\n\t}\n\n\tfunction givenCalldataRevert(bytes calldata call) external {\n\t\tcalldataMockTypes[call] = MockType.Revert;\n\t\tcalldataRevertMessage[call] = \"\";\n\t\ttrackCalldataMock(call);\n\t}\n\n\tfunction givenMethodRevert(bytes calldata call) external {\n\t\tbytes4 method = bytesToBytes4(call);\n\t\tmethodIdMockTypes[method] = MockType.Revert;\n\t\ttrackMethodIdMock(method);\t\t\n\t}\n\n\tfunction givenCalldataRevertWithMessage(bytes calldata call, string calldata message) external {\n\t\tcalldataMockTypes[call] = MockType.Revert;\n\t\tcalldataRevertMessage[call] = message;\n\t\ttrackCalldataMock(call);\n\t}\n\n\tfunction givenMethodRevertWithMessage(bytes calldata call, string calldata message) external {\n\t\tbytes4 method = bytesToBytes4(call);\n\t\tmethodIdMockTypes[method] = MockType.Revert;\n\t\tmethodIdRevertMessages[method] = message;\n\t\ttrackMethodIdMock(method);\t\t\n\t}\n\n\tfunction givenCalldataRunOutOfGas(bytes calldata call) external {\n\t\tcalldataMockTypes[call] = MockType.OutOfGas;\n\t\ttrackCalldataMock(call);\n\t}\n\n\tfunction givenMethodRunOutOfGas(bytes calldata call) external {\n\t\tbytes4 method = bytesToBytes4(call);\n\t\tmethodIdMockTypes[method] = MockType.OutOfGas;\n\t\ttrackMethodIdMock(method);\t\n\t}\n\n\tfunction invocationCount() external returns (uint) {\n\t\treturn invocations;\n\t}\n\n\tfunction invocationCountForMethod(bytes calldata call) external returns (uint) {\n\t\tbytes4 method = bytesToBytes4(call);\n\t\treturn methodIdInvocations[keccak256(abi.encodePacked(resetCount, method))];\n\t}\n\n\tfunction invocationCountForCalldata(bytes calldata call) external returns (uint) {\n\t\treturn calldataInvocations[keccak256(abi.encodePacked(resetCount, call))];\n\t}\n\n\tfunction reset() external {\n\t\t// Reset all exact calldataMocks\n\t\tbytes memory nextMock = calldataMocks[MOCKS_LIST_START];\n\t\tbytes32 mockHash = keccak256(nextMock);\n\t\t// We cannot compary bytes\n\t\twhile(mockHash != MOCKS_LIST_END_HASH) {\n\t\t\t// Reset all mock maps\n\t\t\tcalldataMockTypes[nextMock] = MockType.Return;\n\t\t\tcalldataExpectations[nextMock] = hex\"\";\n\t\t\tcalldataRevertMessage[nextMock] = \"\";\n\t\t\t// Set next mock to remove\n\t\t\tnextMock = calldataMocks[mockHash];\n\t\t\t// Remove from linked list\n\t\t\tcalldataMocks[mockHash] = \"\";\n\t\t\t// Update mock hash\n\t\t\tmockHash = keccak256(nextMock);\n\t\t}\n\t\t// Clear list\n\t\tcalldataMocks[MOCKS_LIST_START] = MOCKS_LIST_END;\n\n\t\t// Reset all any calldataMocks\n\t\tbytes4 nextAnyMock = methodIdMocks[SENTINEL_ANY_MOCKS];\n\t\twhile(nextAnyMock != SENTINEL_ANY_MOCKS) {\n\t\t\tbytes4 currentAnyMock = nextAnyMock;\n\t\t\tmethodIdMockTypes[currentAnyMock] = MockType.Return;\n\t\t\tmethodIdExpectations[currentAnyMock] = hex\"\";\n\t\t\tmethodIdRevertMessages[currentAnyMock] = \"\";\n\t\t\tnextAnyMock = methodIdMocks[currentAnyMock];\n\t\t\t// Remove from linked list\n\t\t\tmethodIdMocks[currentAnyMock] = 0x0;\n\t\t}\n\t\t// Clear list\n\t\tmethodIdMocks[SENTINEL_ANY_MOCKS] = SENTINEL_ANY_MOCKS;\n\n\t\tfallbackExpectation = \"\";\n\t\tfallbackMockType = MockType.Return;\n\t\tinvocations = 0;\n\t\tresetCount += 1;\n\t}\n\n\tfunction useAllGas() private {\n\t\twhile(true) {\n\t\t\tbool s;\n\t\t\tassembly {\n\t\t\t\t//expensive call to EC multiply contract\n\t\t\t\ts := call(sub(gas, 2000), 6, 0, 0x0, 0xc0, 0x0, 0x60)\n\t\t\t}\n\t\t}\n\t}\n\n\tfunction bytesToBytes4(bytes memory b) private pure returns (bytes4) {\n\t\tbytes4 out;\n\t\tfor (uint i = 0; i < 4; i++) {\n\t\t\tout |= bytes4(b[i] & 0xFF) >> (i * 8);\n\t\t}\n\t\treturn out;\n\t}\n\n\tfunction uintToBytes(uint256 x) private pure returns (bytes memory b) {\n\t\tb = new bytes(32);\n\t\tassembly { mstore(add(b, 32), x) }\n\t}\n\n\tfunction updateInvocationCount(bytes4 methodId, bytes memory originalMsgData) public {\n\t\trequire(msg.sender == address(this), \"Can only be called from the contract itself\");\n\t\tinvocations += 1;\n\t\tmethodIdInvocations[keccak256(abi.encodePacked(resetCount, methodId))] += 1;\n\t\tcalldataInvocations[keccak256(abi.encodePacked(resetCount, originalMsgData))] += 1;\n\t}\n\n\tfunction() payable external {\n\t\tbytes4 methodId;\n\t\tassembly {\n\t\t\tmethodId := calldataload(0)\n\t\t}\n\n\t\t// First, check exact matching overrides\n\t\tif (calldataMockTypes[msg.data] == MockType.Revert) {\n\t\t\trevert(calldataRevertMessage[msg.data]);\n\t\t}\n\t\tif (calldataMockTypes[msg.data] == MockType.OutOfGas) {\n\t\t\tuseAllGas();\n\t\t}\n\t\tbytes memory result = calldataExpectations[msg.data];\n\n\t\t// Then check method Id overrides\n\t\tif (result.length == 0) {\n\t\t\tif (methodIdMockTypes[methodId] == MockType.Revert) {\n\t\t\t\trevert(methodIdRevertMessages[methodId]);\n\t\t\t}\n\t\t\tif (methodIdMockTypes[methodId] == MockType.OutOfGas) {\n\t\t\t\tuseAllGas();\n\t\t\t}\n\t\t\tresult = methodIdExpectations[methodId];\n\t\t}\n\n\t\t// Last, use the fallback override\n\t\tif (result.length == 0) {\n\t\t\tif (fallbackMockType == MockType.Revert) {\n\t\t\t\trevert(fallbackRevertMessage);\n\t\t\t}\n\t\t\tif (fallbackMockType == MockType.OutOfGas) {\n\t\t\t\tuseAllGas();\n\t\t\t}\n\t\t\tresult = fallbackExpectation;\n\t\t}\n\n\t\t// Record invocation as separate call so we don't rollback in case we are called with STATICCALL\n\t\t(, bytes memory r) = address(this).call.gas(100000)(abi.encodeWithSignature(\"updateInvocationCount(bytes4,bytes)\", methodId, msg.data));\n\t\tassert(r.length == 0);\n\t\t\n\t\tassembly {\n\t\t\treturn(add(0x20, result), mload(result))\n\t\t}\n\t}\n}\n",
  "sourcePath": "/Users/billy/gnosis/arbitrage/node_modules/@gnosis.pm/mock-contract/contracts/MockContract.sol",
  "compiler": {
    "name": "solc",
    "version": "0.5.3+commit.10d17f24.Emscripten.clang"
  },
  "schemaVersion": "3.0.1",
  "updatedAt": "2019-02-20T12:39:48.466Z",
  "devdoc": {
    "methods": {}
  },
  "userdoc": {
    "methods": {},
    "notice": "Implementation of the MockInterface."
  }
}