{
  "contractName": "PriceOracleInterface",
  "abi": [
    {
      "constant": true,
      "inputs": [],
      "name": "emergencyMode",
      "outputs": [
        {
          "name": "",
          "type": "bool"
        }
      ],
      "payable": false,
      "stateMutability": "view",
      "type": "function"
    },
    {
      "constant": true,
      "inputs": [],
      "name": "owner",
      "outputs": [
        {
          "name": "",
          "type": "address"
        }
      ],
      "payable": false,
      "stateMutability": "view",
      "type": "function"
    },
    {
      "constant": true,
      "inputs": [],
      "name": "priceFeedSource",
      "outputs": [
        {
          "name": "",
          "type": "address"
        }
      ],
      "payable": false,
      "stateMutability": "view",
      "type": "function"
    },
    {
      "inputs": [
        {
          "name": "_owner",
          "type": "address"
        },
        {
          "name": "_priceFeedSource",
          "type": "address"
        }
      ],
      "payable": false,
      "stateMutability": "nonpayable",
      "type": "constructor"
    },
    {
      "constant": false,
      "inputs": [
        {
          "name": "_emergencyMode",
          "type": "bool"
        }
      ],
      "name": "raiseEmergency",
      "outputs": [],
      "payable": false,
      "stateMutability": "nonpayable",
      "type": "function"
    },
    {
      "constant": false,
      "inputs": [
        {
          "name": "_owner",
          "type": "address"
        }
      ],
      "name": "updateCurator",
      "outputs": [],
      "payable": false,
      "stateMutability": "nonpayable",
      "type": "function"
    },
    {
      "constant": true,
      "inputs": [],
      "name": "getUsdEthPricePeek",
      "outputs": [
        {
          "name": "price",
          "type": "bytes32"
        },
        {
          "name": "valid",
          "type": "bool"
        }
      ],
      "payable": false,
      "stateMutability": "view",
      "type": "function"
    },
    {
      "constant": true,
      "inputs": [],
      "name": "getUSDETHPrice",
      "outputs": [
        {
          "name": "",
          "type": "uint256"
        }
      ],
      "payable": false,
      "stateMutability": "view",
      "type": "function"
    }
  ],
  "bytecode": "0x608060405234801561001057600080fd5b5060405160408061075b8339810180604052604081101561003057600080fd5b81019080805190602001909291908051906020019092919050505081600160006101000a81548173ffffffffffffffffffffffffffffffffffffffff021916908373ffffffffffffffffffffffffffffffffffffffff160217905550806000806101000a81548173ffffffffffffffffffffffffffffffffffffffff021916908373ffffffffffffffffffffffffffffffffffffffff160217905550505061067e806100dd6000396000f3fe608060405234801561001057600080fd5b506004361061009a576000357c0100000000000000000000000000000000000000000000000000000000900480638da5cb5b116100785780638da5cb5b1461012e5780639e385fa414610178578063a3ca17b2146101a8578063c5ace443146101c65761009a565b80630905f5601461009f5780630c6a62dd146100c15780630c8fe9db14610105575b600080fd5b6100a7610210565b604051808215151515815260200191505060405180910390f35b610103600480360360208110156100d757600080fd5b81019080803573ffffffffffffffffffffffffffffffffffffffff169060200190929190505050610223565b005b61010d61030f565b60405180838152602001821515151581526020019250505060405180910390f35b6101366103e1565b604051808273ffffffffffffffffffffffffffffffffffffffff1673ffffffffffffffffffffffffffffffffffffffff16815260200191505060405180910390f35b6101a66004803603602081101561018e57600080fd5b81019080803515159060200190929190505050610407565b005b6101b06104cc565b6040518082815260200191505060405180910390f35b6101ce61060a565b604051808273ffffffffffffffffffffffffffffffffffffffff1673ffffffffffffffffffffffffffffffffffffffff16815260200191505060405180910390f35b600160149054906101000a900460ff1681565b600160009054906101000a900473ffffffffffffffffffffffffffffffffffffffff1673ffffffffffffffffffffffffffffffffffffffff163373ffffffffffffffffffffffffffffffffffffffff161415156102cb576040517f08c379a00000000000000000000000000000000000000000000000000000000081526004018080602001828103825260238152602001806106306023913960400191505060405180910390fd5b80600160006101000a81548173ffffffffffffffffffffffffffffffffffffffff021916908373ffffffffffffffffffffffffffffffffffffffff16021790555050565b6000806000809054906101000a900473ffffffffffffffffffffffffffffffffffffffff1673ffffffffffffffffffffffffffffffffffffffff166359e02dd76040518163ffffffff167c0100000000000000000000000000000000000000000000000000000000028152600401604080518083038186803b15801561039457600080fd5b505afa1580156103a8573d6000803e3d6000fd5b505050506040513d60408110156103be57600080fd5b810190808051906020019092919080519060200190929190505050915091509091565b600160009054906101000a900473ffffffffffffffffffffffffffffffffffffffff1681565b600160009054906101000a900473ffffffffffffffffffffffffffffffffffffffff1673ffffffffffffffffffffffffffffffffffffffff163373ffffffffffffffffffffffffffffffffffffffff161415156104af576040517f08c379a00000000000000000000000000000000000000000000000000000000081526004018080602001828103825260238152602001806106306023913960400191505060405180910390fd5b80600160146101000a81548160ff02191690831515021790555050565b6000600160149054906101000a900460ff16156104ed576102589050610607565b60008060009054906101000a900473ffffffffffffffffffffffffffffffffffffffff1673ffffffffffffffffffffffffffffffffffffffff166359e02dd76040518163ffffffff167c0100000000000000000000000000000000000000000000000000000000028152600401604080518083038186803b15801561057157600080fd5b505afa158015610585573d6000803e3d6000fd5b505050506040513d604081101561059b57600080fd5b8101908080519060200190929190805190602001909291905050505090506000670de0b6b3a764000082600190048115156105d257fe5b04905060008114156105e957600192505050610607565b620f424081111561060157620f424092505050610607565b80925050505b90565b6000809054906101000a900473ffffffffffffffffffffffffffffffffffffffff168156fe4f6e6c7920746865206f776e65722063616e20646f20746865206f7065726174696f6ea165627a7a72305820ecb5fc5d448fe2bb0319f600d339302548c1d3de1be176b47d8a5d707b8d39ec0029",
  "source": "pragma solidity ^0.5.2;\n\n/*\nThis contract is the interface between the MakerDAO priceFeed and our DX platform.\n*/\n\nimport \"../Oracle/PriceFeed.sol\";\nimport \"../Oracle/Medianizer.sol\";\n\n\ncontract PriceOracleInterface {\n    address public priceFeedSource;\n    address public owner;\n    bool public emergencyMode;\n\n    // Modifiers\n    modifier onlyOwner() {\n        require(msg.sender == owner, \"Only the owner can do the operation\");\n        _;\n    }\n\n    /// @dev constructor of the contract\n    /// @param _priceFeedSource address of price Feed Source -> should be maker feeds Medianizer contract\n    constructor(address _owner, address _priceFeedSource) public {\n        owner = _owner;\n        priceFeedSource = _priceFeedSource;\n    }\n    \n    /// @dev gives the owner the possibility to put the Interface into an emergencyMode, which will\n    /// output always a price of 600 USD. This gives everyone time to set up a new pricefeed.\n    function raiseEmergency(bool _emergencyMode) public onlyOwner {\n        emergencyMode = _emergencyMode;\n    }\n\n    /// @dev updates the priceFeedSource\n    /// @param _owner address of owner\n    function updateCurator(address _owner) public onlyOwner {\n        owner = _owner;\n    }\n\n    /// @dev returns the USDETH price\n    function getUsdEthPricePeek() public view returns (bytes32 price, bool valid) {\n        return Medianizer(priceFeedSource).peek();\n    }\n\n    /// @dev returns the USDETH price, ie gets the USD price from Maker feed with 18 digits, but last 18 digits are cut off\n    function getUSDETHPrice() public view returns (uint256) {\n        // if the contract is in the emergencyMode, because there is an issue with the oracle, we will simply return a price of 600 USD\n        if (emergencyMode) {\n            return 600;\n        }\n        (bytes32 price, ) = Medianizer(priceFeedSource).peek();\n\n        // ensuring that there is no underflow or overflow possible,\n        // even if the price is compromised\n        uint priceUint = uint256(price)/(1 ether);\n        if (priceUint == 0) {\n            return 1;\n        }\n        if (priceUint > 1000000) {\n            return 1000000; \n        }\n        return priceUint;\n    }\n}\n",
  "sourcePath": "/Users/billy/sol/arbitrage/node_modules/@gnosis.pm/dx-contracts/contracts/Oracle/PriceOracleInterface.sol",
  "compiler": {
    "name": "solc",
    "version": "0.5.2+commit.1df8f40c.Emscripten.clang"
  },
  "schemaVersion": "3.0.1",
  "updatedAt": "2019-01-21T21:38:20.754Z",
  "devdoc": {
    "methods": {
      "constructor": {
        "details": "constructor of the contract",
        "params": {
          "_priceFeedSource": "address of price Feed Source -> should be maker feeds Medianizer contract"
        }
      },
      "getUSDETHPrice()": {
        "details": "returns the USDETH price, ie gets the USD price from Maker feed with 18 digits, but last 18 digits are cut off"
      },
      "getUsdEthPricePeek()": {
        "details": "returns the USDETH price"
      },
      "raiseEmergency(bool)": {
        "details": "gives the owner the possibility to put the Interface into an emergencyMode, which will output always a price of 600 USD. This gives everyone time to set up a new pricefeed."
      },
      "updateCurator(address)": {
        "details": "updates the priceFeedSource",
        "params": {
          "_owner": "address of owner"
        }
      }
    }
  },
  "userdoc": {
    "methods": {}
  }
}