{
  "contractName": "Proxied",
  "abi": [
    {
      "constant": true,
      "inputs": [],
      "name": "masterCopy",
      "outputs": [
        {
          "name": "",
          "type": "address"
        }
      ],
      "payable": false,
      "stateMutability": "view",
      "type": "function"
    }
  ],
  "bytecode": "0x608060405234801561001057600080fd5b5060e98061001f6000396000f3fe608060405260043610603f576000357c0100000000000000000000000000000000000000000000000000000000900463ffffffff168063a619486e146044575b600080fd5b348015604f57600080fd5b5060566098565b604051808273ffffffffffffffffffffffffffffffffffffffff1673ffffffffffffffffffffffffffffffffffffffff16815260200191505060405180910390f35b6000809054906101000a900473ffffffffffffffffffffffffffffffffffffffff168156fea165627a7a723058200a8c9d93c87b69d540159eb4ace407353353254ca7de766be1759bc8d2a3b6e70029",
  "source": "pragma solidity ^0.5.0;\n\n/// @title Proxied - indicates that a contract will be proxied. Also defines storage requirements for Proxy.\n/// @author Alan Lu - <alan@gnosis.pm>\ncontract Proxied {\n    address public masterCopy;\n}\n\n/// @title Proxy - Generic proxy contract allows to execute all transactions applying the code of a master contract.\n/// @author Stefan George - <stefan@gnosis.pm>\ncontract Proxy is Proxied {\n    /// @dev Constructor function sets address of master copy contract.\n    /// @param _masterCopy Master copy address.\n    constructor(address _masterCopy) public {\n        require(_masterCopy != address(0), \"The master copy is required\");\n        masterCopy = _masterCopy;\n    }\n\n    /// @dev Fallback function forwards all transactions and returns all received return data.\n    function() external payable {\n        address _masterCopy = masterCopy;\n        assembly {\n            calldatacopy(0, 0, calldatasize)\n            let success := delegatecall(not(0), _masterCopy, 0, calldatasize, 0, 0)\n            returndatacopy(0, 0, returndatasize)\n            switch success\n                case 0 {\n                    revert(0, returndatasize)\n                }\n                default {\n                    return(0, returndatasize)\n                }\n        }\n    }\n}\n",
  "sourcePath": "/Users/billy/gnosis/arbitrage/node_modules/@gnosis.pm/util-contracts/contracts/Proxy.sol",
  "compiler": {
    "name": "solc",
    "version": "0.5.0+commit.1d4f565a.Emscripten.clang"
  },
  "schemaVersion": "3.0.1",
  "updatedAt": "2019-02-07T10:42:23.059Z",
  "devdoc": {
    "author": "Alan Lu - <alan@gnosis.pm>",
    "methods": {},
    "title": "Proxied - indicates that a contract will be proxied. Also defines storage requirements for Proxy."
  },
  "userdoc": {
    "methods": {}
  }
}