{
  "contractName": "TokenWhitelist",
  "abi": [
    {
      "constant": true,
      "inputs": [],
      "name": "auctioneer",
      "outputs": [
        {
          "name": "",
          "type": "address"
        }
      ],
      "payable": false,
      "stateMutability": "view",
      "type": "function"
    },
    {
      "constant": true,
      "inputs": [
        {
          "name": "",
          "type": "address"
        }
      ],
      "name": "approvedTokens",
      "outputs": [
        {
          "name": "",
          "type": "bool"
        }
      ],
      "payable": false,
      "stateMutability": "view",
      "type": "function"
    },
    {
      "constant": false,
      "inputs": [
        {
          "name": "_auctioneer",
          "type": "address"
        }
      ],
      "name": "updateAuctioneer",
      "outputs": [],
      "payable": false,
      "stateMutability": "nonpayable",
      "type": "function"
    },
    {
      "anonymous": false,
      "inputs": [
        {
          "indexed": true,
          "name": "token",
          "type": "address"
        },
        {
          "indexed": false,
          "name": "approved",
          "type": "bool"
        }
      ],
      "name": "Approval",
      "type": "event"
    },
    {
      "constant": true,
      "inputs": [
        {
          "name": "addressesToCheck",
          "type": "address[]"
        }
      ],
      "name": "getApprovedAddressesOfList",
      "outputs": [
        {
          "name": "",
          "type": "bool[]"
        }
      ],
      "payable": false,
      "stateMutability": "view",
      "type": "function"
    },
    {
      "constant": false,
      "inputs": [
        {
          "name": "token",
          "type": "address[]"
        },
        {
          "name": "approved",
          "type": "bool"
        }
      ],
      "name": "updateApprovalOfToken",
      "outputs": [],
      "payable": false,
      "stateMutability": "nonpayable",
      "type": "function"
    }
  ],
  "bytecode": "0x608060405234801561001057600080fd5b506107c5806100206000396000f3fe608060405234801561001057600080fd5b5060043610610074576000357c01000000000000000000000000000000000000000000000000000000009004806302ffc0b0146100795780635ec2c7bf1461014757806365b0d711146101915780636d1ea3fa14610255578063796a8076146102b1575b600080fd5b6100f06004803603602081101561008f57600080fd5b81019080803590602001906401000000008111156100ac57600080fd5b8201836020820111156100be57600080fd5b803590602001918460208302840111640100000000831117156100e057600080fd5b90919293919293905050506102f5565b6040518080602001828103825283818151815260200191508051906020019060200280838360005b83811015610133578082015181840152602081019050610118565b505050509050019250505060405180910390f35b61014f6103f3565b604051808273ffffffffffffffffffffffffffffffffffffffff1673ffffffffffffffffffffffffffffffffffffffff16815260200191505060405180910390f35b610253600480360360408110156101a757600080fd5b81019080803590602001906401000000008111156101c457600080fd5b8201836020820111156101d657600080fd5b803590602001918460208302840111640100000000831117156101f857600080fd5b919080806020026020016040519081016040528093929190818152602001838360200280828437600081840152601f19601f820116905080830192505050505050509192919290803515159060200190929190505050610418565b005b6102976004803603602081101561026b57600080fd5b81019080803573ffffffffffffffffffffffffffffffffffffffff1690602001909291905050506105b7565b604051808215151515815260200191505060405180910390f35b6102f3600480360360208110156102c757600080fd5b81019080803573ffffffffffffffffffffffffffffffffffffffff1690602001909291905050506105d7565b005b606060008383905090506060816040519080825280602002602001820160405280156103305781602001602082028038833980820191505090505b50905060008090505b828110156103e75760016000878784818110151561035357fe5b9050602002013573ffffffffffffffffffffffffffffffffffffffff1673ffffffffffffffffffffffffffffffffffffffff1673ffffffffffffffffffffffffffffffffffffffff16815260200190815260200160002060009054906101000a900460ff1682828151811015156103c657fe5b90602001906020020190151590811515815250508080600101915050610339565b50809250505092915050565b6000809054906101000a900473ffffffffffffffffffffffffffffffffffffffff1681565b6000809054906101000a900473ffffffffffffffffffffffffffffffffffffffff1673ffffffffffffffffffffffffffffffffffffffff163373ffffffffffffffffffffffffffffffffffffffff161415156104bf576040517f08c379a000000000000000000000000000000000000000000000000000000000815260040180806020018281038252602a815260200180610770602a913960400191505060405180910390fd5b60008090505b82518110156105b257816001600085848151811015156104e157fe5b9060200190602002015173ffffffffffffffffffffffffffffffffffffffff1673ffffffffffffffffffffffffffffffffffffffff16815260200190815260200160002060006101000a81548160ff021916908315150217905550828181518110151561054a57fe5b9060200190602002015173ffffffffffffffffffffffffffffffffffffffff167fc091bf3abd3a42f670f8ad1a6ad5b849311210403e1d85d6ac31f43114d5ca6e83604051808215151515815260200191505060405180910390a280806001019150506104c5565b505050565b60016020528060005260406000206000915054906101000a900460ff1681565b6000809054906101000a900473ffffffffffffffffffffffffffffffffffffffff1673ffffffffffffffffffffffffffffffffffffffff163373ffffffffffffffffffffffffffffffffffffffff1614151561067e576040517f08c379a000000000000000000000000000000000000000000000000000000000815260040180806020018281038252602a815260200180610770602a913960400191505060405180910390fd5b600073ffffffffffffffffffffffffffffffffffffffff168173ffffffffffffffffffffffffffffffffffffffff1614151515610706576040517f08c379a000000000000000000000000000000000000000000000000000000000815260040180806020018281038252602681526020018061074a6026913960400191505060405180910390fd5b806000806101000a81548173ffffffffffffffffffffffffffffffffffffffff021916908373ffffffffffffffffffffffffffffffffffffffff1602179055505056fe5468652061756374696f6e656572206d75737420626520612076616c696420616464726573734f6e6c79207468652061756374696f6e6565722063616e206e6f6d696e6174652061206e6577206f6e65a165627a7a72305820635be431d7ab6136c7d29d09a3e126274b0c8b1dc1e2ae08203a7658b6d959990029",
  "source": "pragma solidity ^0.5.2;\n\nimport \"./AuctioneerManaged.sol\";\n\n\ncontract TokenWhitelist is AuctioneerManaged {\n    // Mapping that stores the tokens, which are approved\n    // Only tokens approved by auctioneer generate frtToken tokens\n    // addressToken => boolApproved\n    mapping(address => bool) public approvedTokens;\n\n    event Approval(address indexed token, bool approved);\n\n    /// @dev for quick overview of approved Tokens\n    /// @param addressesToCheck are the ERC-20 token addresses to be checked whether they are approved\n    function getApprovedAddressesOfList(address[] calldata addressesToCheck) external view returns (bool[] memory) {\n        uint length = addressesToCheck.length;\n\n        bool[] memory isApproved = new bool[](length);\n\n        for (uint i = 0; i < length; i++) {\n            isApproved[i] = approvedTokens[addressesToCheck[i]];\n        }\n\n        return isApproved;\n    }\n    \n    function updateApprovalOfToken(address[] memory token, bool approved) public onlyAuctioneer {\n        for (uint i = 0; i < token.length; i++) {\n            approvedTokens[token[i]] = approved;\n            emit Approval(token[i], approved);\n        }\n    }\n\n}\n",
  "sourcePath": "/Users/billy/sol/arbitrage/node_modules/@gnosis.pm/dx-contracts/contracts/base/TokenWhitelist.sol",
  "compiler": {
    "name": "solc",
    "version": "0.5.2+commit.1df8f40c.Emscripten.clang"
  },
  "schemaVersion": "3.0.1",
  "updatedAt": "2019-01-21T21:38:20.759Z",
  "devdoc": {
    "methods": {
      "getApprovedAddressesOfList(address[])": {
        "details": "for quick overview of approved Tokens",
        "params": {
          "addressesToCheck": "are the ERC-20 token addresses to be checked whether they are approved"
        }
      }
    }
  },
  "userdoc": {
    "methods": {}
  }
}